:020000040800F2
:10000000000001208D010008491F0008551F00084D
:100010005D1F0008651F00086D1F0008000000003C
:10002000000000000000000000000000751F000834
:10003000811F0008000000008D1F0008991F0008A4
:10004000DD010008DD010008DD010008DD01000818
:10005000DD010008DD010008DD010008DD01000808
:10006000DD010008DD010008DD010008DD010008F8
:10007000DD010008DD010008DD010008DD010008E8
:10008000DD010008DD010008DD010008DD010008D8
:10009000DD010008DD010008DD010008DD010008C8
:1000A000DD010008DD010008DD010008DD010008B8
:1000B000DD0100080000000000000000DD01000874
:1000C000DD010008DD010008DD010008DD01000898
:1000D000DD010008A91F0008DD010008DD0100089E
:1000E000DD010008DD010008000000000000000044
:1000F0000000000000000000000000000000000000
:1001000000000000DD01000800000000DD01000823
:100110000000000000000000DD010008DD01000813
:10012000DD010008DD010008DD010008DD01000837
:10013000DD010008000000000000000000000000D9
:10014000DD010008DD010008DD010008B91F00081D
:10015000DD010008DD010008DD010008DD01000807
:10016000DD010008DD010008DD01000800000000DD
:10017000DD010008DD010008DD01000800000000CD
:0C018000DD010008DD010008DD010008C1
:10018C00DFF834D0002103E00C4B5B5843500431B2
:10019C000B480C4B42189A42F6D30B4A02E0002350
:1001AC0042F8043B094B9A42F9D302F065F808F087
:1001BC00C9FF01F077F8FEE7000001200094000869
:1001CC00000000209805002098050020041800204D
:1001DC00FEE70000044B05481B1A062B02D9044B02
:1001EC0003B11847704700BF9B05002098050020FD
:1001FC000000000005490648091A891001EBD1716D
:10020C00491002D0034B03B11847704798050020E2
:10021C00980500200000000010B5064C237843B967
:10022C00FFF7D8FF044B13B10448AFF30080012350
:10023C00237010BD98050020000000008C01000800
:10024C0008B5084B1BB108480849AFF300800848B3
:10025C00036813B9BDE80840CCE7064B002BF9D076
:10026C009847F7E7000000008C0100089C0500206F
:10027C00980500200000000053B94AB9002908BFB6
:10028C0000281CBF4FF0FF314FF0FF3000F03CB89E
:10029C0082B0EC462DE9005000F01EF8DDF804E0C9
:1002AC0002B00CBC704700BF2DE9F041069C904693
:1002BC0006460F461D4600F029F808FB01FCA8FB7A
:1002CC00002300FB05C5B21A2B4467EB03038646DB
:1002DC00C4E90023BDE8F0812DE9F843089E1746D8
:1002EC00804689461D4600F067F900FB05F3A0FB2C
:1002FC00074507FB0137B8EB04043D4469EB0505E2
:10030C00C6E90045BDE8F883704700BF00292DE918
:10031C00F043C0F2A8800026002BC0F29E808146DC
:10032C008E4690469C46174604460D46002B3DD102
:10033C008A4259D9B2FA82F33BB1C3F120029D40F3
:10034C0020FA02F29F4015439C40390CB5FBF1F0AA
:10035C001FFA87FE01FB10550EFB00F3220C42EA3C
:10036C000545AB4209D9ED1900F1FF3280F00B8144
:10037C00AB4240F2088102383D44ED1AB5FBF1F373
:10038C0001FB13550EFB03FEA4B244EA0545AE4532
:10039C0008D9ED1903F1FF3280F0F780AE4540F239
:1003AC00F480023B43EA0043002203E08B420FD966
:1003BC0000221346341C18BF012460424FF0000584
:1003CC0065EB45015840514000196941BDE8F08387
:1003DC00B3FA83F2002A40F089808B4202D3804525
:1003EC0000F2E2800123E5E712B90123B3FBF2F737
:1003FC00B7FA87F8B8F1000F3BD1ED1B4FEA174C59
:10040C001FFA87FE0122B5FBFCF00CFB10550EFB0E
:10041C0000F3210C41EA0545AB4207D9ED1900F177
:10042C00FF3102D2AB4200F2C3800846ED1AB5FB95
:10043C00FCF30CFB13550EFB03FEA4B244EA05457A
:10044C00AE4507D9ED1903F1FF3102D2AE4500F2EA
:10045C00AD800B4643EA0043ACE752426FEA060616
:10046C0063EB43035BE7404261EB41014FF0FF3626
:10047C0052E707FA08F7C8F1200225FA02F34FEA0F
:10048C00174CB3FBFCF11FFA87FE0CFB113324FA5B
:10049C0002F205FA08F50EFB01F92A43100C40EAAA
:1004AC000343994504FA08F407D9DB1901F1FF302D
:1004BC0078D2994576D902393B44C9EB0303B3FB97
:1004CC00FCF00CFB10330EFB00F592B242EA034336
:1004DC009D4207D9DB1900F1FF325FD29D425DD9F5
:1004EC0002383B445D1B40EA01428CE7C2F1200319
:1004FC0028FA03F10CFA02FC41EA0C0C4FEA1C40FE
:10050C002EFA03F1B1FBF0F51FFA8CF700FB151175
:10051C0029FA03F30EFA02FE07FB05F943EA0E0E65
:10052C004FEA1E4343EA0141894508FA02F808D90B
:10053C0011EB0C0105F1FF3332D2894530D9023D64
:10054C006144C9EB0101B1FBF0F300FB131107FB94
:10055C0003F71FFA8EFE4EEA014E774508D91EEBC3
:10056C000C0E03F1FF3117D2774515D9023BE64447
:10057C0043EA0543A3FB0889C7EB0E0ECE4509D30E
:10058C0005D0002216E71046F7E613460AE794401A
:10059C004445F6D2013BF4E70B46E9E71046A1E7E8
:1005AC001D46CEE7014688E7134603E7023B51E7B9
:1005BC0002383D443AE700BF2DE9F043002B44D10B
:1005CC008A42154604464FD9B2FA82F70E464FB10D
:1005DC00C7F12003B94020FA03F602FA07F50E43DF
:1005EC0000FA07F42F0CB6FBF7F01FFA85FE07FB99
:1005FC0010620EFB00F1260C46EA0243994209D91F
:10060C005B1900F1FF3280F0EE80994240F2EB80F2
:10061C0002382B44591AB1FBF7F307FB13110EFBED
:10062C0003FEA4B244EA01418E4508D9491903F1ED
:10063C00FF3280F0DA808E4540F2D780023B43EAED
:10064C00004000263146BDE8F0838B4247D8B3FA10
:10065C0083F6002E48D18B4202D3824200F2CF8027
:10066C0001203146BDE8F08312B90125B5FBF2F546
:10067C00B5FA85FCBCF1000F78D1491B2F0C1FFA81
:10068C0085FE0126B1FBF7F007FB10110EFB00F203
:10069C00230C43EA01418A4207D9491900F1FF337F
:1006AC0002D28A4200F2BC801846891AB1FBF7F3D9
:1006BC0007FB13110EFB03FEA4B244EA014296455C
:1006CC0008D9521903F1FF3180F09180964540F220
:1006DC008E80023B43EA00403146BDE8F0830026A1
:1006EC0030463146BDE8F083C6F1200422FA04F509
:1006FC00B3402B4321FA04F74FEA1348B7FBF8FC3D
:10070C001FFA83F908FB1C7720FA04FE01FA06F5A0
:10071C0009FB0CF44EEA05054FEA154E4EEA074765
:10072C00BC4202FA06F204D9FF180CF1FF3168D36F
:10073C008C463F1BB7FBF8F408FB147709FB04F954
:10074C00ADB245EA0741894504D9C91804F1FF3512
:10075C005DD32C4644EA0C44A4FB0223C9EB0101F3
:10076C00994249D345D0204600266BE7CCF12004B2
:10077C0005FA0CF521FA04F32A0CB3FBF2F61FFA76
:10078C0085FE02FB163820FA04F701FA0CF10EFB79
:10079C0006F90F433C0C44EA0843994500FA0CF463
:1007AC0007D95B1906F1FF3138D2994536D9023E8B
:1007BC002B44C9EB0303B3FBF2F002FB10330EFB2B
:1007CC0000F1BFB247EA0343994207D95B1900F124
:1007DC00FF3721D299421FD902382B441746591A98
:1007EC0040EA06464EE7104614E7134627E70B4649
:1007FC0070E7B0409042B6D2601E002622E7304629
:10080C0020E7BC4294D9ACF1020C1F4491E7894516
:10081C009FD9023C19449DE73846DFE70E46C8E7EE
:10082C000238294441E700BF80B485B000AF78603E
:10083C0039607B685B68BB607B681B68BA68D31ADD
:10084C00FB60FB68002B03DAFB6803F58063FB603D
:10085C007B689A68FB689A4202DA7B68FA689A604D
:10086C00FB6840F2FF32934202D14FF0FF3315E0A8
:10087C00BB685A1CBA603A68D1B27A6813440A460B
:10088C001A73BB68C3F309027B685A60FB68B3F543
:10089C00407F02DD044B01221A60002318461437F6
:1008AC00BD465DF8047B7047C005002080B584B060
:1008BC0000AF786039607B681B68BB607B685A68E6
:1008CC00BB68D31AFB60FB68002B03DAFB6803F5EB
:1008DC008063FB60FB68002B02D14FF0FF331AE002
:1008EC00BB685A1CBA607A6813441A7B3B681A704E
:1008FC00BB68C3F309027B681A60094B1B68002BA9
:10090C0008D0FB68FF2B05DC054B00221A6005485C
:10091C0008F0D0FB002318461037BD4680BD00BF41
:10092C00C0050020DC15002080B584B000AF7860D5
:10093C007B68FB6002E0FB680133FB60FB681B78A3
:10094C00002BF8D1124B1B68002B0AD1FA687B687C
:10095C00D31A9BB20F4879681A464FF4FA7305F014
:10096C007FF9FA687B68D31A9BB27868194600F055
:10097C0051FFFA687B689A4207D9FB68013B1B78E8
:10098C000A2B02D10448FFF7CFFF1037BD4680BDBC
:10099C00C4050020F00C00205892000880B582B0ED
:1009AC0000AF786000BF074B1A68064B5B689A4231
:1009BC00F9D004487968FFF779FF034618460837E1
:1009CC00BD4680BDC805002080B582B000AF786000
:1009DC00074879680122002305F0D0F90346002B63
:1009EC0001D0012300E0002318460837BD4680BD26
:1009FC00F00C002080B582B000AF78600248FFF7A1
:100A0C0093FF0837BD4680BD5C92000880B584B06A
:100A1C0000AF786039603B681B68BB600023FB60EB
:100A2C0012E07B685A1C7A601B7810481946FFF755
:100A3C00FBFE0346002B04DA0D48FFF775FF00237D
:100A4C000EE0FB680133FB60FA68BB689A42E8DB96
:100A5C00084B1B68002B02D1074808F02BFB002326
:100A6C005BB218461037BD4680BD00BFC8050020DC
:100A7C006C920008C0050020DC15002080B400AF8B
:100A8C00044B054ADA60054B01221A60BD465DF83D
:100A9C00047B704700000020190A0008C0050020E4
:100AAC0080B582B000AF78607B68184604F048FDD2
:100ABC000837BD4680BD00BF80B584B000AF7860FC
:100ACC0039600023FB604FF400437B811CE07A8982
:100ADC003B689A4201D93B687B817B890E487968D7
:100AEC001A464FF0FF3306F0DFF80346FB60FB6855
:100AFC00002B01D0FB680BE07B893A68D31A3B6072
:100B0C007B897A6813447B603B68002BDFD1FB68E0
:100B1C0018461037BD4680BD8C0C002080B582B0C5
:100B2C0000AF78607B68002B08DB0F4B1B685A1CEE
:100B3C000D490A607A68D1B20C4AD1547B68002BFB
:100B4C0003DA094B1B68002B03DC074B1B68402B9B
:100B5C0006D106484021FFF7AFFF034B00221A6075
:100B6C000837BD4680BD00BF140A0020D409002000
:100B7C0080B500AF044801F00DFB4FF090404FF4EE
:100B8C00004104F06BFE80BD8C0C002080B586B05B
:100B9C0000AF0A4801F0D0FA4FF400437B60012308
:100BAC00BB600023FB6000233B613B1D4FF090407A
:100BBC00194604F0DBFC1837BD4680BD8C0C0020B8
:100BCC0080B500AF034B01221A60034801F034FBDF
:100BDC0080BD00BFC4050020F00C002080B582B0A1
:100BEC0000AF17484021002204F02CFF4FF090403A
:100BFC004FF40041002204F025FF0120FFF750FFC5
:100C0C000F484021012204F01DFF64237B6007E0A4
:100C1C007B68013B7B607B68002B01D101230AE0E0
:100C2C000748802104F0F6FE0346012BF0D0022089
:100C3C00FFF736FF002318460837BD4680BD00BFBE
:100C4C000004004880B584B000AF0023FB71194844
:100C5C00FFF76AFE6423FB600FE0FB68002B04D1F6
:100C6C001548FFF761FE022320E0FB1D1846012109
:100C7C00FFF722FFFB68013BFB601048802104F06A
:100C8C00C9FE0346012BE8D10023BB6007E0FB1D26
:100C9C0018460121FFF710FFBB680133BB60BB682E
:100CAC00062BF4DD0648FFF73FFE002318461037ED
:100CBC00BD4680BD7C9200088C9200080004004860
:100CCC009C92000880B487B000AF0346FB71FB799F
:100CDC001B023B61144B1B887B610023FB6016E0FD
:100CEC000023BB607A693B69534003F40043002B3B
:100CFC0002D041F22103BB607B695A00BB685340B0
:100D0C007B613B695B003B61FB680133FB60FB680B
:100D1C00072BE5DD7B699AB2034B1A801C37BD4665
:100D2C005DF8047B704700BFB405002080B400AFB1
:100D3C00034B4FF6FF721A80BD465DF8047B70477B
:100D4C00B405002080B582B000AF786039607B6854
:100D5C00002B05D14FF0FF30FFF7E0FE002313E02E
:100D6C007868FFF71BFE0346002B02D04FF0FF33D1
:100D7C000AE07B681B781846FFF7D0FE7B681B786F
:100D8C001846FFF79FFF002318460837BD4680BD65
:100D9C0080B582B000AF78603960104B1A68104B88
:100DAC001B689A4202D34FF0FF3312E07B68002B92
:100DBC0001D100230DE0094B1B685A1C07490A603E
:100DCC001A787B681A707B681B781846FFF77AFFD5
:100DDC00002318460837BD4680BD00BFB80500206B
:100DEC00BC05002080B582B000AF78603960144B30
:100DFC001A68144B1B689A4202D34FF0FF331AE067
:100E0C007B68002B05D14FF0FF30FFF787FE0023E6
:100E1C0011E00B4B1B685A1C09490A601A787B6855
:100E2C001A7078680121FFF747FE7B681B7818461B
:100E3C00FFF748FF002318460837BD4680BD00BFAA
:100E4C00B8050020BC05002080B584B000AFF86068
:100E5C00B9607A603B6009E0FB687868396898474C
:100E6C000346002B02DA4FF0FF3305E0BB685A1E35
:100E7C00BA60002BF0DC002318461037BD4680BD4D
:100E8C0080B58AB000AF7860396000233B620023E4
:100E9C007B6100233B613B687B6213E007F10B0233
:100EAC007B681046704998470346002B02DA4FF0D6
:100EBC00FF33D5E07B6A1B027B62FB7A1A467B6AA6
:100ECC0013437B627B6A694A9342E7D1BCE0FB7AAD
:100EDC001B09DBB2FB60FB7A03F00F03FB61002301
:100EEC00BB6113E007F10B027B6810465E49984723
:100EFC000346002B02DA4FF0FF33B1E0BB691B0253
:100F0C00BB61FB7A1A46BB691343BB61FB695A1E72
:100F1C00FA61002BE6DCFB68092B17D801A252F80A
:100F2C0023F000BF830F0008451000085F0F000876
:100F3C00590F0008590F000845100008750F0008DC
:100F4C007D0F000845100008451000084FF0FF33D6
:100F5C0086E0454B1B88002B05D04548FFF7E4FC89
:100F6C004FF0FF337CE068E0BB6901337B6164E0E8
:100F7C00BB693B6161E0BB69013B052B0ED801A24B
:100F8C0052F823F0AF0F0008A90F0008AF0F0008AC
:100F9C00A90F00081B100008211000084FF0FF33A8
:100FAC005EE03B697A6902FB03F3002B00DA07333E
:100FBC00DB101A4607F10B03786811461A462A4BC8
:100FCC00FFF742FF0346002B02DA4FF0FF3347E0F6
:100FDC0007F10B027B681046234998470346002B08
:100FEC0002DBFB7A002B02D04FF0FF3338E007F125
:100FFC000B027B6810461C4998470346002B02DB0A
:10100C00FB7A002B02D04FF0FF3329E015E0FFF7FD
:10101C008DFE12E03B6A002B02D14FF0FF331FE034
:10102C0007F10B027B6810460F4998477B6800203C
:10103C0000219847002313E000BFFB68022B0CBF74
:10104C0001230023DBB23B6207F10B027B681046E5
:10105C00054998470346002B3FF439AF4FF0FF3357
:10106C0018462837BD4680BDB40500207E99AA7E5F
:10107C00AC92000880B582B000AF3A484FF4004102
:10108C00012204F0DFFCFFF773FD36484FF40051EA
:10109C00002204F0D7FC344B344A1A60344B354AE6
:1010AC001A603548FFF740FC3448FFF73DFCFFF76A
:1010BC003DFE33480021FFF7E3FE0346002B33D1FE
:1010CC003048FFF731FC284B284A1A60FFF72EFEF8
:1010DC0024484FF40051012204F0B4FCFFF756FDF4
:1010EC00FFF77CFD0346002B03D02748FFF71CFCC1
:1010FC0012E026480021FFF7C3FE0346002B03D065
:10110C002348FFF711FC07E0FFF79CFD0346002B7B
:10111C0002D02048FFF708FCFFF72AFD11484FF4D6
:10112C000051002204F08EFC1B48FFF7FDFB00BFB2
:10113C00FB1D1846FFF748FC0346002BF8D0FFF7C1
:10114C009DFC08484FF48041002204F07BFC0548CC
:10115C004FF40041002204F075FCFFF731FD083715
:10116C00BD4680BD00080048B805002000F001080D
:10117C00BC050020000004087C920008B89200080E
:10118C009D0D0008BC920008D4920008F10D0008D7
:10119C00E4920008F49200080893000880B582B02D
:1011AC0000AF0023FB71374B1B68002B08D036486F
:1011BC004FF4005104F05EFC642004F0C1F95DE0D2
:1011CC003248FFF7B1FB324B1B68002B08D031487B
:1011DC0007F070FF0346002B02D12D4B00221A6042
:1011EC00FB1D2D481946FFF761FBFB797E2BEAD1DD
:1011FC0025484FF40051012204F024FC22484FF4FE
:10120C000041012204F01EFCFFF7C0FCFFF7E6FCD6
:10121C0002461C4B1A601B4B1B68002B00D02DE0A8
:10122C00FFF784FDFB1D18460121FFF745FCFB79F8
:10123C001846FFF747FDFB7918481946FFF720FEC3
:10124C000246104B1A600F4B1B68002B03D014483E
:10125C00FFF76AFB12E0FFF7F5FC0246094B1A6038
:10126C00FFF786FC08484FF40041002204F0EAFB2B
:10127C0005484FF40051002204F0E4FB0837BD464A
:10128C0080BD00BF180A0020000800481493000815
:10129C00C0050020DC150020C8050020510D0008F9
:1012AC00E492000880B500AF04F006F900F012F8E3
:1012BC0000F04EF900F088F800F0E0F800F01AF9B0
:1012CC0000F0B8F800F018FEFFF7D4FEFFF766FF49
:1012DC00FCE700BF80B5AEB000AF23237B674FF4B3
:1012EC008033BB674FF48073C7F880300123C7F895
:1012FC0098301023C7F884300223C7F89C3003239E
:10130C00C7F8A0300323C7F8A4302823C7F8A830A7
:10131C000723C7F8AC300223C7F8B0300223C7F854
:10132C00B43007F17403184601F060F80346002B43
:10133C0001D000F0D7F90F233B6603237B66002313
:10134C00BB660023FB6600233B6707F1600318466E
:10135C00042101F00DFC0346002B01D000F0C2F972
:10136C0042F241033B6002233B6200233B630023B8
:10137C00BB643B46184605F0FBFE0346002B01D030
:10138C0000F0B0F94FF4007001F0D2FE0346002BD0
:10139C0001D000F0A7F901F00BFE0246094BA3FBAC
:1013AC0002239B09184606F09FFB042006F0A8FBBD
:1013BC004FF0FF300021002206F05EFBB837BD462F
:1013CC0080BD00BFD34D621080B500AF164B174ADD
:1013DC001A60154B164A5A60134B00229A60124B36
:1013EC000122DA60104B00221A610F4B00225A6165
:1013FC000D4B00229A610C4B0022DA610A4B002241
:10140C001A62094800F064FF0346002B01D000F07B
:10141C0069F90548002101F0EDFE0346002B01D0CF
:10142C0000F060F980BD00BF400C0020005400406B
:10143C00EC9C901080B500AF0E4B0F4A1A600D4B10
:10144C00FF225A600B4B01229A600A4B0022DA6091
:10145C00084B01221A61074B00225A61054B0022EE
:10146C009A61044806F0BEFB0346002B01D000F045
:10147C0039F980BD600D0020001000A080B500AFD0
:10148C001A4B1B4A1A60194B4FF482725A60174B55
:10149C0000229A60154B4FF4E062DA60134B022283
:1014AC001A61124B01225A61104B4FF400729A616F
:1014BC000E4B0822DA610D4B00221A620B4B0022F4
:1014CC005A620A4B00229A62084B0722DA62074BD7
:1014DC0000221A63054B00225A63044805F05CFB9A
:1014EC000346002B01D000F0FDF880BD8C0C0020D1
:1014FC00003C004080B500AF134B144A1A60124BED
:10150C004FF4E1325A60104B00229A600E4B0022CD
:10151C00DA600D4B00221A610B4B0C225A610A4BFC
:10152C0000229A61084B0022DA61074B00221A62F2
:10153C00054B00225A62044804F040FB0346002B82
:10154C0001D000F0CFF880BDF00C00200038014035
:10155C0080B58AB000AF5F4A5E4BDB6C43F004038E
:10156C00D3645C4BDB6C03F004033B613B69594A6D
:10157C00584BDB6C43F08003D364564BDB6C03F0AD
:10158C008003FB60FB68534A524BDB6C43F0010356
:10159C00D364504BDB6C03F00103BB60BB684D4A5A
:1015AC004C4BDB6C43F00203D3644A4BDB6C03F013
:1015BC0002037B607B68474A464BDB6C43F00803B5
:1015CC00D364444BDB6C03F008033B603B6842483C
:1015DC004FF46041002204F035FA4FF090404FF484
:1015EC000041012204F02EFA3C484021012204F073
:1015FC0029FA4FF460437B610123BB610023FB613B
:10160C0000233B6207F114033348194603F0AEFF85
:10161C0041F6FF737B610023BB610023FB6107F183
:10162C0014032D48194603F0A1FF40F233137B61DC
:10163C000023BB610023FB6107F114034FF09040C2
:10164C00194603F093FF4FF604437B610023BB6103
:10165C000023FB6107F114032048194603F086FFB1
:10166C004FF400437B610123BB610023FB6100232A
:10167C003B6207F114034FF09040194603F076FFDC
:10168C0004237B610023BB610023FB6107F114037E
:10169C001348194603F06AFF40237B610123BB61A9
:1016AC000023FB6100233B6207F114030B4819462E
:1016BC0003F05CFF80237B610023BB610123FB6192
:1016CC0007F114030548194603F050FF2837BD46AF
:1016DC0080BD00BF00100240000800480004004814
:1016EC00000C004880B400AFFEE700BF80B500AF2F
:1016FC0006480749002207F085FC0448054907F015
:10170C009BFC00235BB2184680BD00BFDC1500209B
:10171C00A40F0020A40D002080B400AF00235BB206
:10172C001846BD465DF8047B704700BF80B483B09B
:10173C0000AF03463960FB711346BB80FB79232B4A
:10174C004AD801A252F823F0E5170008E517000863
:10175C00E5170008E5170008E5170008E51700086D
:10176C00E5170008E5170008E5170008E51700085D
:10177C00E5170008E5170008E5170008E51700084D
:10178C00E5170008E5170008E5170008E51700083D
:10179C00E5170008E5170008E5170008E51700082D
:1017AC00E5170008E5170008E5170008E51700081D
:1017BC00E5170008E5170008E5170008E51700080D
:1017CC00E5170008E5170008E5170008E5170008FD
:1017DC00E5170008E517000800BF00235BB21846A8
:1017EC000C37BD465DF8047B704700BF80B582B0F6
:1017FC0000AF786039600648796807F01DFC044832
:10180C0007F058FC00235BB218460837BD4680BD74
:10181C00DC15002080B584B000AF78600B467B806F
:10182C000023FB730D4BD3F81832BB60BB68D3F8A5
:10183C001432002B01D001230BE07B880748796818
:10184C001A4607F0DFFB054807F00AFC0346FB735A
:10185C00FB7B18461037BD4680BD00BFDC15002051
:10186C0080B584B000AF78607B681B680C4A9342EB
:10187C0013D10C4A0B4B9B6D43F080639365094B62
:10188C009B6D03F08063FB60FB684320002100220A
:10189C0006F0F2F8432006F00BF91037BD4680BD78
:1018AC00006800400010024080B582B000AF786044
:1018BC007B68D3F830247B6803F57C73104619469B
:1018CC0006F016FB0837BD4680BD00BF80B582B060
:1018DC0000AF78600B46FB707B68D3F83014FB7854
:1018EC007A685B01134403F506739B68FA78084623
:1018FC0011461A4606F046FB0837BD4680BD00BFB0
:10190C0080B582B000AF78600B46FB707B68D3F873
:10191C003014FB787A685B01134438339B68FA788F
:10192C00084611461A4606F089FB0837BD4680BDAD
:10193C0080B582B000AF78607B68D3F8303418463D
:10194C0006F074FC0837BD4680BD00BF80B584B07E
:10195C0000AF78600123FB737B689B68012B02D17D
:10196C000123FB7302E00123FB7300BF7B68D3F8F8
:10197C003024FB7B1046194606F020FC7B68D3F81C
:10198C003034184606F0EAFB1037BD4680BD00BF68
:10199C0080B582B000AF78607B68D3F830341846DD
:1019AC0006F01CFC7B68DB69002B05D0044A044B59
:1019BC001B6943F0060313610837BD4680BD00BFA9
:1019CC0000ED00E080B582B000AF78607B68DB6929
:1019DC00002B07D0084A084B1B6923F00603136140
:1019EC0000F0ACF97B68D3F83034184606F00CFCE8
:1019FC000837BD4680BD00BF00ED00E080B582B069
:101A0C0000AF786001F0E8FB2F4A7B68C2F83034F5
:101A1C007B682D4AC3F820222B4B2C4A1A602A4B88
:101A2C0008225A60284B01229A60274B00221A6127
:101A3C00254B01225A61244B00229A61224B002231
:101A4C00DA61214B00221A621F4B00225A621E4897
:101A5C0001F01CFC0346002B01D0FFF743FE7B6812
:101A6C00D3F82032184600210022182304F014F871
:101A7C007B68D3F82032184680210022582304F0CA
:101A8C000BF87B68D3F82032184681210022C02342
:101A9C0004F002F87B68D3F82032184601210022AA
:101AAC004FF4887303F0F8FF7B68D3F820321846A4
:101ABC00822100224FF4807303F0EEFF00231846BE
:101ACC000837BD4680BD00BFA80F0020006800404D
:101ADC0080B582B000AF78607B68D3F820321846AE
:101AEC0001F0C2FC002318460837BD4680BD00BF7C
:101AFC0080B582B000AF7860084611461A4603469E
:101B0C00FB700B46BB7013463B807B68D3F82002FE
:101B1C00F9783A88BB7801F065FE0023184608373F
:101B2C00BD4680BD80B582B000AF78600B46FB70BF
:101B3C007B68D3F82022FB781046194601F0A8FEEA
:101B4C00002318460837BD4680BD00BF80B582B063
:101B5C0000AF78600B46FB707B68D3F82022FB78D3
:101B6C001046194601F098FF002318460837BD4669
:101B7C0080BD00BF80B582B000AF78600B46FB70B3
:101B8C007B68D3F82022FB781046194601F0DEFF63
:101B9C00002318460837BD4680BD00BF80B485B011
:101BAC0000AF78600B46FB707B68D3F82032FB608B
:101BBC00FB785BB2002B08DAFB7803F07F03FA6842
:101BCC005B01134428339B7908E0FB7803F07F0317
:101BDC00FA685B01134403F502739B7918461437BA
:101BEC00BD465DF8047B704780B582B000AF78606D
:101BFC000B46FB707B68D3F82022FB781046194605
:101C0C0001F0CAFD002318460837BD4680BD00BF51
:101C1C0080B584B000AFF8607A601A460B46FB7250
:101C2C0013463B81FB68D3F820123B89FA7A0846AD
:101C3C0011467A6801F0DCFE002318461037BD46C9
:101C4C0080BD00BF80B584B000AFF8607A601A46E2
:101C5C000B46FB7213463B81FB68D3F820123B8981
:101C6C00FA7A084611467A6801F058FE00231846A5
:101C7C001037BD4680BD00BF80B582B000AF786024
:101C8C000B46FB707B68D3F82022FB781046194674
:101C9C0001F098FE034618460837BD4680BD00BFCC
:101CAC0080B582B000AF78600B46FB70FB78002BE0
:101CBC0002D0012B13D023E07B68DB69002B07D00B
:101CCC00FFF708FB104A104B1B6923F00603136146
:101CDC007B68D3F83034184606F096FA10E07B682F
:101CEC00D3F83034184606F079FA7B68DB69002BA0
:101CFC0005D0054A044B1B6943F00603136100BF72
:101D0C000837BD4680BD00BF00ED00E080B483B055
:101D1C0000AF7860034B18460C37BD465DF8047B6A
:101D2C00704700BF1C0A002080B483B000AF7860FD
:101D3C000C37BD465DF8047B704700BF80B500AF23
:101D4C00FFF7C8FA80BD00BF80B485B000AF7860E3
:101D5C007B68D3F82032FB60FB685B6A012B01D1F6
:101D6C00002300E0022318461437BD465DF8047BBF
:101D7C00704700BF80B483B000AF03463960FB717D
:101D8C003B6812221A80034B18460C37BD465DF88F
:101D9C00047B70473000002080B483B000AF034652
:101DAC003960FB713B6804221A80034B18460C37D0
:101DBC00BD465DF8047B70475000002080B582B0B2
:101DCC0000AF03463960FB71FB79002B05D1084845
:101DDC0008493A6806F072FE04E0054805493A687D
:101DEC0006F06CFE034B18460837BD4680BD00BF9D
:101DFC002C930008DC13002080B582B000AF0346A2
:101E0C003960FB71044805493A6806F057FE034BEC
:101E1C0018460837BD4680BD44930008DC130020EB
:101E2C0080B582B000AF03463960FB71FB79002BA3
:101E3C0005D1084808493A6806F040FE04E0054818
:101E4C0005493A6806F03AFE034B18460837BD467A
:101E5C0080BD00BF58930008DC13002080B582B011
:101E6C0000AF03463960FB71FB79002B05D10848A4
:101E7C0008493A6806F022FE04E0054805493A682C
:101E8C0006F01CFE034B18460837BD4680BD00BF4C
:101E9C0068930008DC13002080B582B000AF0346C5
:101EAC003960FB71FB79002B05D1084808493A6869
:101EBC0006F004FE04E0054805493A6806F0FEFD0C
:101ECC00034B18460837BD4680BD00BF749300080D
:101EDC00DC13002080B483B000AF03463960FB7183
:101EEC003B680C221A80034B18460C37BD465DF834
:101EFC00047B70474400002080B500AF0B480C49B0
:101F0C00002205F063FF09480A4905F08BFF0748DA
:101F1C00094907F05FF80548FFF716FF0346002B49
:101F2C0002D0024805F098FF80BD00BFDC150020F0
:101F3C0010000020640000200000002080B400AFDE
:101F4C00BD465DF8047B704780B400AFFEE700BF70
:101F5C0080B400AFFEE700BF80B400AFFEE700BF67
:101F6C0080B400AFFEE700BF80B400AFBD465DF8A3
:101F7C00047B704780B400AFBD465DF8047B7047AE
:101F8C0080B400AFBD465DF8047B704780B500AFF0
:101F9C0003F0BCFA05F0D0FD80BD00BF80B500AFEA
:101FAC00014803F0AFFF80BDF00C002080B500AFFE
:101FBC00014801F07BFA80BDA80F002080B582B0EB
:101FCC0000AF244A234B1B6E43F001031366214BD5
:101FDC001B6E03F001037B607B681E4A1D4B9B6DDF
:101FEC0043F0805393651B4B9B6D03F080533B6018
:101FFC003B68032005F036FD6FF00B00002100223A
:10200C0005F03AFD6FF00A000021002205F034FDC6
:10201C006FF009000021002205F02EFD6FF0040086
:10202C000021002205F028FD6FF0030000210022A2
:10203C0005F022FD6FF001000021002205F01CFDCF
:10204C004FF0FF300021002205F016FD0837BD4689
:10205C0080BD00BF0010024080B588B000AF786032
:10206C007B681B68114A93421CD14FF44073FB6090
:10207C0012233B6101237B610323BB610423FB61BE
:10208C0007F10C030A48194603F070FA094A094B88
:10209C009B6D43F400139365064B9B6D03F4001387
:1020AC00BB60BB682037BD4680BD00BF00540040FC
:1020BC00000400480010024080B588B000AF786082
:1020CC007B681B68194A93422CD1194A184B1B6D1B
:1020DC0043F480731365164B1B6D03F48073BB6064
:1020EC00BB68CC23FB6002233B6100237B61032391
:1020FC00BB610A23FB6107F10C034FF090401946BA
:10210C0003F034FA0323FB6002233B6100237B6161
:10211C000323BB610A23FB6107F10C030548194635
:10212C0003F024FA2037BD4680BD00BF001000A08C
:10213C00001002400004004880B588B000AF786001
:10214C007B681B68104A93421BD1104A0F4B9B6D46
:10215C0043F4004393650D4B9B6D03F40043BB604C
:10216C00BB683823FB6002233B6100237B610323A4
:10217C00BB610623FB6107F10C030548194603F00C
:10218C00F5F92037BD4680BD003C004000100240F0
:10219C000004004880B582B000AF78607B681B6893
:1021AC00074A934209D1074A064B9B6D23F400431F
:1021BC0093650548382103F051FB0837BD4680BDB7
:1021CC00003C0040001002400004004880B588B07C
:1021DC0000AF78607B681B68154A934225D1154A7D
:1021EC00144B1B6E43F480431366124B1B6E03F4AB
:1021FC008043BB60BB684FF4C063FB6002233B6150
:10220C0001237B610323BB610723FB6107F10C03F3
:10221C004FF09040194603F0A9F925200021002227
:10222C0005F02AFC252005F043FC2037BD4680BD77
:10223C00003801400010024080B582B000AF7860D9
:10224C007B681B680A4A93420ED10A4A094B1B6EE3
:10225C0023F4804313664FF090404FF4C06103F0B9
:10226C00FDFA252005F032FC0837BD4680BD00BFC5
:10227C00003801400010024080B400AF124A124BEB
:10228C001B6843F0010313600F4B00229A600E4A47
:10229C000D4B1B6823F0A85323F4102313600A4B37
:1022AC004FF48052DA60084A074B1B6823F48023F2
:1022BC001360054B00229A61044B4FF000629A6048
:1022CC00BD465DF8047B70470010024000ED00E055
:1022DC0080B582B000AF78607B68002B01D1012300
:1022EC0080E07B6893F84130DBB2002B06D17B6831
:1022FC00002283F840207868FFF7AEFE7B6824222A
:10230C0083F841207B681B687A681268126822F097
:10231C0001021A607B681B687A68526822F070624E
:10232C001A617B681B687A681268926822F4004212
:10233C009A607B68DB68012B07D17B681B687A6825
:10234C00926842F400429A6006E07B681B687A68E7
:10235C00926842F404429A607B68DB68022B04D1D9
:10236C007B681B684FF400625A607B681A687B6854
:10237C001B685B6843F0007343F4004353607B6855
:10238C001B687A681268D26822F40042DA607B68B3
:10239C001B687A6811697A68526911437A68926984
:1023AC0012020A43DA607B681B687A68D1697A6822
:1023BC00126A0A431A607B681B687A681268126892
:1023CC0042F001021A607B6800225A647B6820226A
:1023DC0083F841207B6800221A637B68002283F813
:1023EC004220002318460837BD4680BD80B58CB00E
:1023FC0000AF78600023BB627B681B6803F010039E
:10240C00002B00F0DB80A34B9B6803F00C03002B2C
:10241C0040F084809F4B1B6803F00203002B05D017
:10242C007B689B69002B01D101239BE37B681A6AB3
:10243C00984B1B6803F00803002B04D0954B1B68CA
:10244C0003F0F00305E0934BD3F8943003F470637E
:10245C001B099A4223D97B681B6A184600F0F8FDC9
:10246C000346002B01D001237CE38A4A894B1B686D
:10247C0043F0080313608749864B1B6823F0F00276
:10248C007B681B6A13430B608249824B5B6823F4A5
:10249C007F427B68DB691B0213434B6022E07D4A61
:1024AC007C4B1B6843F0080313607A49794B1B681B
:1024BC0023F0F0027B681B6A13430B607549754B64
:1024CC005B6823F47F427B68DB691B0213434B6020
:1024DC007B681B6A184600F0BBFD0346002B01D03D
:1024EC0001233FE300F068FC01466A4B9B6803F054
:1024FC00F002F0237B627B6A93FAA3F33B623B6AA4
:10250C00B3FA83F322FA03F3634AD35C21FA03F39D
:10251C00624A1360002002F0DDFF4FE07B689B698C
:10252C00002B32D05B4A5B4B1B6843F001031360FA
:10253C0002F0FAFFB86208E002F0F6FF0246BB6A4E
:10254C00D31A022B01D903230CE3524B1B6803F063
:10255C000203002BF0D04F4A4E4B1B6843F008038C
:10256C0013604C494B4B1B6823F0F0027B681B6AD1
:10257C0013430B604749474B5B6823F47F427B68EE
:10258C00DB691B0213434B6018E0424A414B1B684A
:10259C0023F00103136002F0C7FFB86208E002F0F9
:1025AC00C3FF0246BB6AD31A022B01D90323D9E21B
:1025BC00384B1B6803F00203002BF0D17B681B68BF
:1025CC0003F00103002B7AD0324B9B6803F00C0311
:1025DC00082B0BD02F4B9B6803F00C030C2B12D148
:1025EC002C4BDB6803F00303032B0CD1294B1B682A
:1025FC0003F40033002B05D07B685B68002B01D102
:10260C000123AFE25BE07B685B68B3F5803F06D1EA
:10261C00204A204B1B6843F4803313601DE07B6819
:10262C005B68B3F5A02F0CD11A4A1A4B1B6843F404
:10263C0080231360174A174B1B6843F480331360D5
:10264C000BE0144A134B1B6823F480331360114ABC
:10265C00104B1B6823F4802313607B685B68002B92
:10266C0013D002F061FFB86208E002F05DFF024691
:10267C00BB6AD31A642B01D9032373E2054B1B6885
:10268C0003F40033002BF0D019E002F04DFFB862D8
:10269C000FE000BF0010024084930008540000209B
:1026AC0002F042FF0246BB6AD31A642B01D9032302
:1026BC0058E2AF4B1B6803F40033002BF0D17B685E
:1026CC001B6803F00203002B7FD0A94B9B6803F01F
:1026DC000C03042B0BD0A64B9B6803F00C030C2BA8
:1026EC0027D1A34BDB6803F00303022B21D1A04BB2
:1026FC001B6803F48063002B05D07B68DB68002B20
:10270C0001D101232EE29A48994B5B6823F0F852D1
:10271C007B6819694FF0F853FB61FB6993FAA3F3DB
:10272C00BB61BB69B3FA83F301FA03F31343436050
:10273C004BE07B68DB68002B2ED08D4A8C4B1B68E2
:10274C0043F48073136002F0EFFEB86208E002F00D
:10275C00EBFE0246BB6AD31A022B01D9032301E21A
:10276C00834B1B6803F48063002BF0D08048804BB4
:10277C005B6823F0F8527B6819694FF0F8537B6162
:10278C007B6993FAA3F33B613B69B3FA83F301FAD8
:10279C0003F31343436018E0754A754B1B6823F42D
:1027AC008073136002F0C0FEB86208E002F0BCFE59
:1027BC000246BB6AD31A022B01D90323D2E16C4B1C
:1027CC001B6803F48063002BF0D17B681B6803F05B
:1027DC000803002B3CD07B685B69002B1CD0644A3F
:1027EC00634BD3F8943043F00103C2F8943002F0F9
:1027FC009BFEB86208E002F097FE0246BB6AD31A51
:10280C00022B01D90323ADE1594BD3F8943003F0DB
:10281C000203002BEFD01BE0554A554BD3F89430F4
:10282C0023F00103C2F8943002F07EFEB86208E097
:10283C0002F07AFE0246BB6AD31A022B01D903239B
:10284C0090E14B4BD3F8943003F00203002BEFD103
:10285C007B681B6803F00403002B00F0A9800023A5
:10286C0087F82F30424B9B6D03F08053002B0ED119
:10287C003F4A3F4B9B6D43F0805393653C4B9B6DA4
:10288C0003F08053FB60FB68012387F82F30394B32
:10289C001B6803F48073002B18D1364A354B1B6828
:1028AC0043F48073136002F03FFEB86208E002F05C
:1028BC003BFE0246BB6AD31A022B01D9032351E11A
:1028CC002C4B1B6803F48073002BF0D07B689B6847
:1028DC00012B08D1264A264BD3F8903043F0010344
:1028EC00C2F8903024E07B689B68052B10D1204AFD
:1028FC001F4BD3F8903043F00403C2F890301C4ABD
:10290C001B4BD3F8903043F00103C2F890300FE02A
:10291C00174A174BD3F8903023F00103C2F89030CC
:10292C00134A134BD3F8903023F00403C2F89030C1
:10293C007B689B68002B16D002F0F6FDB8620AE0AB
:10294C0002F0F2FD0246BB6AD31A41F2883293427E
:10295C0001D9032306E1064BD3F8903003F00203B0
:10296C00002BEDD01AE002F0DFFDB8620FE000BFE3
:10297C00001002400070004002F0D6FD0246BB6A17
:10298C00D31A41F28832934201D90323EAE0774B00
:10299C00D3F8903003F00203002BEDD197F82F30D1
:1029AC00012B05D1714A714B9B6D23F080539365BC
:1029BC007B681B6803F02003002B3CD07B685B6AB0
:1029CC00002B1CD0694A694BD3F8983043F00103B3
:1029DC00C2F8983002F0A8FDB86208E002F0A4FD3D
:1029EC000246BB6AD31A022B01D90323BAE05F4B10
:1029FC00D3F8983003F00203002BEFD01BE05B4AB6
:102A0C005A4BD3F8983023F00103C2F8983002F0F7
:102A1C008BFDB86208E002F087FD0246BB6AD31A50
:102A2C00022B01D903239DE0504BD3F8983003F0CF
:102A3C000203002BEFD17B689B6A002B00F0918086
:102A4C004A4B9B6803F00C030C2B00F088807B68CE
:102A5C009B6A022B55D1454A444B1B6823F080736B
:102A6C00136002F061FDB86208E002F05DFD024601
:102A7C00BB6AD31A022B01D9032373E03B4B1B68AF
:102A8C0003F00073002BF0D138497B681B6B013BC2
:102A9C001A017B685B6B1B021A437B68DB6A1A4367
:102AAC007B68DB6B5B08013B5B051A437B681B6C2B
:102ABC005B08013B5B061A437B689B6BDB0613438D
:102ACC00CB602A4A294B1B6843F080731360274A5A
:102ADC00264BDB6843F08073D36002F025FDB862AF
:102AEC0008E002F021FD0246BB6AD31A022B01D981
:102AFC00032337E01D4B1B6803F00073002BF0D051
:102B0C002FE01A4A194B1B6823F080731360174B84
:102B1C001B6803F00063002B05D1144A134BDB68D0
:102B2C0023F00303D360114A104BDB6823F0887346
:102B3C0023F48033D36002F0F7FCB86208E002F0B3
:102B4C00F3FC0246BB6AD31A022B01D9032309E01A
:102B5C00064B1B6803F00073002BF0D101E001233E
:102B6C0000E0002318463037BD4680BD00100240FF
:102B7C0080B586B000AF7860396000237B618A4BEA
:102B8C001B6803F007023B689A4210D28649864BB9
:102B9C001B6823F007023B6813430B60824B1B68D6
:102BAC0003F007023B689A4201D00123F7E07B68EF
:102BBC001B6803F00203002B08D07C497B4B9B68FD
:102BCC0023F0F0027B689B6813438B607B681B6867
:102BDC0003F00103002B00F08F807B685B68022BF5
:102BEC0007D1724B1B6803F40033002B21D1012356
:102BFC00D5E07B685B68032B07D16C4B1B6803F03B
:102C0C000073002B15D10123C9E07B685B68002B96
:102C1C0007D1664B1B6803F00203002B09D101237B
:102C2C00BDE0624B1B6803F48063002B01D10123D0
:102C3C00B5E05E495D4B9B6823F003027B685B68E3
:102C4C0013438B6002F070FC78617B685B68022B2D
:102C5C0012D10AE002F068FC02467B69D31A41F2F9
:102C6C008832934201D9032399E0504B9B6803F0BF
:102C7C000C03082BEED13FE07B685B68032B12D171
:102C8C000AE002F051FC02467B69D31A41F2883209
:102C9C00934201D9032382E0444B9B6803F00C035D
:102CAC000C2BEED128E07B685B68002B12D10AE07C
:102CBC0002F03AFC02467B69D31A41F28832934205
:102CCC0001D903236BE0394B9B6803F00C03002BF9
:102CDC00EED111E00AE002F027FC02467B69D31A20
:102CEC0041F28832934201D9032358E02F4B9B6861
:102CFC0003F00C03042BEED12B4B1B6803F00702E3
:102D0C003B689A4210D92849274B1B6823F00702CD
:102D1C003B6813430B60244B1B6803F007023B68B2
:102D2C009A4201D001233AE07B681B6803F004034C
:102D3C00002B08D01D491D4B9B6823F4E0627B6877
:102D4C00DB6813438B607B681B6803F00803002B64
:102D5C0009D01649154B9B6823F460527B681B699C
:102D6C00DB0013438B6000F027F801460F4B9B6888
:102D7C0003F0F002F0233B613B6993FAA3F3FB6091
:102D8C00FB68B3FA83F322FA03F3094AD35C21FA02
:102D9C0003F3084A1360002002F09CFB0023184642
:102DAC001837BD4680BD00BF002002400010024015
:102DBC00849300085400002080B495B000AF002329
:102DCC00FB640023BB6400233B640223FB630223EC
:102DDC00BB6300237B64724B9B6803F00C03002BDA
:102DEC000BD06F4B9B6803F00C030C2B3DD16C4B41
:102DFC00DB6803F00303012B37D1694B1B6803F02D
:102E0C000803002B12D1664BD3F8943003F4706294
:102E1C004FF470637B637B6B93FAA3F33B633B6B65
:102E2C00B3FA83F322FA03F3FB640FE05C4B1B68E9
:102E3C0003F0F002F023FB62FB6A93FAA3F3BB628C
:102E4C00BB6AB3FA83F322FA03F3FB64554AFB6CB7
:102E5C0052F82330FB64524B9B6803F00C03002B9D
:102E6C0002D1FB6C7B6411E010E04D4B9B6803F0CE
:102E7C000C03042B02D14C4B7B6407E0484B9B6842
:102E8C0003F00C03082B01D1484B7B64444B9B682B
:102E9C0003F00C030C2B7BD1414BDB6803F00303D9
:102EAC003B643F4BDB6803F0700270237B627B6AF0
:102EBC0093FAA3F33B623B6AB3FA83F322FA03F36C
:102ECC000133BB633B6C022B02D0032B18D02FE0D9
:102EDC00354ABB6BB2FBF3F3314AD26802F4FE41C4
:102EEC004FF4FE42FA61FA6992FAA2F2BA61BA6937
:102EFC00B2FA82F221FA02F202FB03F3BB642FE076
:102F0C002A4ABB6BB2FBF3F3254AD26802F4FE41AA
:102F1C004FF4FE427A617A6992FAA2F23A613A6906
:102F2C00B2FA82F221FA02F202FB03F3BB6417E05D
:102F3C00FA6CBB6BB2FBF3F3194AD26802F4FE4194
:102F4C004FF4FE42FA60FA6892FAA2F2BA60BA68DA
:102F5C00B2FA82F221FA02F202FB03F3BB6400BF65
:102F6C000F4BDB6803F0C0624FF0C0637B607B6883
:102F7C0093FAA3F33B603B68B3FA83F322FA03F3AF
:102F8C0001335B00FB63BA6CFB6BB2FBF3F37B644A
:102F9C007B6C18465437BD465DF8047B704700BF08
:102FAC00001002409C9300080024F400001BB700A2
:102FBC0080B400AF034B1B681846BD465DF8047B1C
:102FCC00704700BF5400002080B582B000AFFFF7FF
:102FDC00EFFF01460B4B9B6803F4E0624FF4E06398
:102FEC007B607B6893FAA3F33B603B68B3FA83F393
:102FFC0022FA03F3044AD35C21FA03F31846083788
:10300C00BD4680BD001002409493000880B582B08C
:10301C0000AFFFF7CDFF01460B4B9B6803F46052EA
:10302C004FF460537B607B6893FAA3F33B603B687F
:10303C00B3FA83F322FA03F3044AD35C21FA03F3C1
:10304C0018460837BD4680BD001002409493000816
:10305C0080B586B000AF786000237B6100233B61B4
:10306C002A4B9B6D03F08053002B03D000F052F8D9
:10307C00786114E0254A254B9B6D43F08053936592
:10308C00224B9B6D03F08053FB60FB6800F042F811
:10309C0078611E4A1D4B9B6D23F0805393657B69B1
:1030AC00B3F5007F0BD17B68802B19D97B68A02BE3
:1030BC0002D902233B6113E001233B6110E07B68E2
:1030CC00802B02D903233B610AE07B68802B02D161
:1030DC0002233B6104E07B68702B01D101233B612F
:1030EC000B490B4B1B6823F007023B6913430B6026
:1030FC00074B1B6803F007023B699A4201D001237E
:10310C0000E0002318461837BD4680BD0010024071
:10311C000020024080B400AF044B1B6803F4C06372
:10312C001846BD465DF8047B704700BF0070004038
:10313C0080B485B000AF78600023FB607B68B3F58A
:10314C00007F2DD1214B1B6803F4C063B3F5007FC6
:10315C0035D01E4A1D4B1B6823F4C06343F4007327
:10316C0013601B4B1B681B4AA2FB03239B0C3222D4
:10317C0002FB03F3FB6002E0FB68013BFB60FB68B6
:10318C00002B05D0114B5B6903F48063002BF3D14A
:10319C000E4B5B6903F48063002B10D003230FE00C
:1031AC000A4B1B6803F4C063B3F5806F07D0074A62
:1031BC00064B1B6823F4C06343F480631360002345
:1031CC0018461437BD465DF8047B7047007000400C
:1031DC005400002083DE1B4380B400AF044A044B30
:1031EC005B6843F480635360BD465DF8047B7047B5
:1031FC000070004080B483B000AF786039607B68A9
:10320C0093F84130DBB2202B38D17B6893F84030F7
:10321C00012B01D1022332E07B68012283F840208C
:10322C007B68242283F841207B681B687A681268CB
:10323C00126822F001021A607B681B687A681268B7
:10324C00126822F480521A607B681B687A681268D4
:10325C0011683A680A431A607B681B687A681268BE
:10326C00126842F001021A607B68202283F8412028
:10327C007B68002283F84020002300E002231846DC
:10328C000C37BD465DF8047B704700BFF0B58BB0C2
:10329C0006AF78600023FB607B68002B01D1012313
:1032AC00DEE07B6893F8ED33DBB2002B06D17B6854
:1032BC00002283F8EC237868FEF7D2FA7B680322AD
:1032CC0083F8ED237B681B68184600F0DBFF7B68F6
:1032DC00D3F800E07E686D4606F110040FCC0FC5E4
:1032EC0094E8030085E80300331D0ECB704600F014
:1032FC009BFF7B681B681846002100F0E1FF002350
:10330C00FB6037E07A68FB685B01134428330122C9
:10331C005A71FB68D9B27A68FB685B011344283395
:10332C000A461A71FB6899B27A68FB685B01134410
:10333C0030330A461A817A68FB685B0113442833E0
:10334C000022DA717A68FB685B011344383300227F
:10335C005A607A68FB685B011344383300229A6028
:10336C007A68FB6802335B01134400225A60FB68E5
:10337C000133FB607B685A68FB689A42C2D8002311
:10338C00FB603CE07A68FB685B01134403F5027355
:10339C0000225A71FB68D9B27A68FB685B0113444E
:1033AC0003F502730A461A71FB6899B27A68FB68D6
:1033BC005B01134430330A461A817A68FB685B015F
:1033CC00134403F502730022DA717A68FB685B011F
:1033DC00134403F5067300225A607A68FB685B019C
:1033EC00134403F5067300229A607A68FB68113364
:1033FC005B01134400225A60FB680133FB60FB68DD
:10340C000E2BBFD97B68D3F800E07E686D4606F1C1
:10341C0010040FCC0FC594E8030085E80300331D9E
:10342C000ECB704600F05AFF7B68002283F82820F0
:10343C007B68012283F8ED237B681B6A012B02D188
:10344C00786802F091FB7B685B6A012B02D178688B
:10345C0002F064FB7B681B68184601F08DFF0023AB
:10346C0018461437BD46F0BD80B582B000AF786009
:10347C007B6893F8EC33012B01D1022312E07B68BB
:10348C00012283F8EC237B681B68184601F05AFF75
:10349C007B681B68184600F0D9FE7B68002283F815
:1034AC00EC23002318460837BD4680BD80B584B098
:1034BC0000AF78600023FB607B681B68184601F046
:1034CC0073FF034603F40043002B02D0786800F02E
:1034DC0085FB7B681B68184601F066FF034603F406
:1034EC008063002B12D07B681B687A681268B2F874
:1034FC00442092B222F4806292B2A3F844207868FD
:10350C00FEF724FA7868002100F046F97B681B6806
:10351C00184601F049FF034603F48043002B0BD0FF
:10352C007B681B687A681268B2F8442092B222F465
:10353C00804292B2A3F844207B681B68184601F0C5
:10354C0033FF034603F40053002B0BD07B681B683E
:10355C007A681268B2F8442092B222F4005292B205
:10356C00A3F844207B681B68184601F01DFF034636
:10357C0003F48053002B57D07B681B687A68126861
:10358C00B2F8402092B222F0040292B2A3F840208A
:10359C004FF43F43FB607B681B68FA6892B2A3F858
:1035AC0040207B681B6A012B22D1FB6843F080030F
:1035BC00FB607B681B68BB607B680122C3F8282416
:1035CC007B68002283F82024BB68B3F854309BB28C
:1035DC0043F001039AB2BB68A3F85420BB68B3F85C
:1035EC0054309BB243F002039AB2BB68A3F8542048
:1035FC007B6893F82034012B07D17B68002283F879
:10360C00202478680021FEF74BFB7868FEF7DAF986
:10361C007B681B687A681268B2F8442092B222F474
:10362C00805292B2A3F844207B681B68184601F0C4
:10363C00BBFE034603F40063002B30D07B681B6891
:10364C007A681268B2F8442092B222F4006292B204
:10365C00A3F844207B681B687A681268B2F8402093
:10366C0092B242F0080292B2A3F840207B681B6829
:10367C007A681268B2F8402092B242F0040292B218
:10368C00A3F840207B681B68184601F08DFE0346AA
:10369C0003F48053002B02D17868FEF779F97B682C
:1036AC001B68184601F080FE034603F08003002BD4
:1036BC0040D07B681B687A681268B2F8442092B2DA
:1036CC0022F0800292B2A3F844207B6893F8203455
:1036DC00002B2CD17B681B687A681268B2F84020EA
:1036EC0092B242F0040292B2A3F840207B681B68AD
:1036FC007A681268B2F8402092B242F0080292B294
:10370C00A3F840207B68012283F820247B681B6887
:10371C00B3F854309BB203F0F0039B101A467B684D
:10372C00C3F8242478680121FEF7BAFA02E078681D
:10373C00FEF72EF97B681B68184601F035FE034630
:10374C0003F40073002B0ED07B681B687A68126838
:10375C00B2F8442092B222F4007292B2A3F8442040
:10376C007868FEF7E5F87B681B68184601F01CFECC
:10377C00034603F48073002B0BD07B681B687A68BC
:10378C001268B2F8442092B222F4807292B2A3F87A
:10379C0044201037BD4680BD80B582B000AF786044
:1037AC000B46FB707B6893F8EC33012B01D10223A1
:1037BC0013E07B68012283F8EC237B68FA7883F8AA
:1037CC0028207B681A68FB781046194601F0A6FD84
:1037DC007B68002283F8EC23002318460837BD468B
:1037EC0080BD00BF80B584B000AF7860084611463C
:1037FC001A460346FB700B463B801346BB700023F6
:10380C00FB720023FB60FB785BB2002B09DAFB78C0
:10381C0003F07F035B0128337A6813440433FB60A5
:10382C0009E0FB7803F07F035B0103F502737A6810
:10383C0013440433FB60FB7803F07F03DAB2FB68BC
:10384C001A70FB78DB09DBB21A46FB685A703A88AF
:10385C00FB681A61FB68BA78DA707B6893F8EC3312
:10386C00012B01D102230EE07B68012283F8EC23AB
:10387C007B681B681846F96800F052FD7B680022D3
:10388C0083F8EC23FB7A18461037BD4680BD00BF89
:10389C0080B584B000AF78600B46FB700023FB60F2
:1038AC00FB785BB2002B09DAFB7803F07F035B013A
:1038BC0028337A6813440433FB6009E0FB7803F087
:1038CC007F035B0103F502737A6813440433FB60D6
:1038DC00FB7803F07F03DAB2FB681A70FB78DB0924
:1038EC00DBB21A46FB685A707B6893F8EC33012BF9
:1038FC0001D102230EE07B68012283F8EC237B6864
:10390C001B681846F96801F01FF87B68002283F8E1
:10391C00EC23002318461037BD4680BD80B586B019
:10392C0000AFF8607A603B600B46FB7200237B6152
:10393C00FB7A03F07F035B0103F50273FA6813440F
:10394C0004337B617B697A685A617B693A689A6156
:10395C007B690022DA617B6900225A70FB7A03F0E2
:10396C007F03DAB27B691A70FB6893F8EC33012B96
:10397C0001D1022322E0FB68012283F8EC23FB7ABD
:10398C0003F07F03002B0AD1FB681A68FB68DB6825
:10399C00DBB2104679691A4601F09EF909E0FB6822
:1039AC001A68FB68DB68DBB2104679691A4601F0CD
:1039BC0093F9FB68002283F8EC2300231846183790
:1039CC00BD4680BD80B483B000AF78600B46FB7001
:1039DC00FB7803F07F037A6811335B0113449B6817
:1039EC009BB218460C37BD465DF8047B704700BF90
:1039FC0080B586B000AFF8607A603B600B46FB7216
:103A0C0000237B61FB7A03F07F035B012833FA68A8
:103A1C00134404337B617B697A685A617B693A6829
:103A2C009A617B690022DA617B6901225A70FB7A08
:103A3C0003F07F03DAB27B691A70FB6893F8EC33FE
:103A4C00012B01D1022322E0FB68012283F8EC2335
:103A5C00FB7A03F07F03002B0AD1FB681A68FB6822
:103A6C00DB68DBB2104679691A4601F035F909E0DA
:103A7C00FB681A68FB68DB68DBB2104679691A468A
:103A8C0001F02AF9FB68002283F8EC230023184686
:103A9C001837BD4680BD00BF80B584B000AF7860DC
:103AAC000B46FB700023FB60FB785BB2002B09DA42
:103ABC00FB7803F07F035B0128337A6813440433EB
:103ACC00FB6007E0FB785B0103F502737A68134433
:103ADC000433FB60FB6801229A70FB7803F07F03D0
:103AEC00DAB2FB681A70FB78DB09DBB21A46FB68AA
:103AFC005A707B6893F8EC33012B01D1022320E040
:103B0C007B68012283F8EC237B681B681846F968F4
:103B1C0001F00CFBFB7803F07F03002B0CD17B68CE
:103B2C0019687B68DB68DAB27B6803F57C7308463E
:103B3C0011461A4601F04AFC7B68002283F8EC23FC
:103B4C00002318461037BD4680BD00BF80B584B039
:103B5C0000AF78600B46FB700023FB60FB785BB218
:103B6C00002B09DAFB7803F07F035B0128337A68BA
:103B7C0013440433FB6007E0FB785B0103F502732D
:103B8C007A6813440433FB60FB6800229A70FB785C
:103B9C0003F07F03DAB2FB681A70FB78DB09DBB247
:103BAC001A46FB685A707B6893F8EC33012B01D1F1
:103BBC0002230EE07B68012283F8EC237B681B68F0
:103BCC001846F96801F012FB7B68002283F8EC239D
:103BDC00002318461037BD4680BD00BF90B589B094
:103BEC0000AF78600023BB610023FB830023FB75CF
:103BFC000023FB810023BB8105E3FB899BB2DBB275
:103C0C0003F00F03FB75FB7D002B40F02281FB8939
:103C1C009BB203F01003002B4BD17B681A687B68B6
:103C2C001B681B889BB223F4E14323F070039BB207
:103C3C0013807B682C33BB617B681B68B3F85030F6
:103C4C009BB21A46BB691B78DB0013441A467B688F
:103C5C001B68134403F202431B88C3F30902BB69BC
:103C6C00DA61BB695A69BB69DB691A44BB695A6181
:103C7C0078680021FDF744FE7B6893F82830DBB2AE
:103C8C00002B00F0C082BB699B69002B40F0BB820B
:103C9C007B681B687A6892F82820D2B262F07F02A7
:103CAC00D2B292B2A3F84C207B68002283F8282071
:103CBC00A9E27B6803F50373BB617B681B681B88F7
:103CCC009BB2BB81BB899BB203F40063002B2FD04A
:103CDC007B681B68B3F850309BB21A46BB691B78E3
:103CEC00DB0013441A467B681B68134403F206433B
:103CFC001B88C3F30902BB69DA617B6818687B68AF
:103D0C0003F57C71BB699A88BB69DB699BB201F0D6
:103D1C00A5FB7B681A687B681B681B8899B240F608
:103D2C008F730B409BB213807868FDF7BDFD6AE280
:103D3C00BB899BB29BB21BB2002B80F264827B6866
:103D4C001A687B681B681B8899B240F68F730B400E
:103D5C009BB213807B681B68B3F850309BB21A4639
:103D6C00BB691B78DB0013441A467B681B68134441
:103D7C0003F206431B88C3F30902BB69DA61BB6912
:103D8C00DB69002B11D07B681868BB695969BB696A
:103D9C009A88BB69DB699BB201F060FBBB695A690D
:103DAC00BB69DB691A44BB695A6178680021FDF76D
:103DBC008DFD7B681B68B3F850309BB21A467B684C
:103DCC001B68134403F206433B61BB691B693E2B22
:103DDC0017D9BB691B695B09BB83BB691B6903F002
:103DEC001F03002B02D1BB8B013BBB83BB8B9B0204
:103DFC009BB26FEA43436FEA53439AB23B691A8012
:103E0C0011E0BB691B695B08BB83BB691B6903F0D1
:103E1C000103002B02D0BB8B0133BB83BB8B9B02FA
:103E2C009AB23B691A807B681B681B889BB223F48F
:103E3C00804323F070039CB284F480539CB284F4CE
:103E4C0000539CB27B681A689A4B23439BB2138035
:103E5C00D9E17B681B681A46FB7D9B0013441B88C9
:103E6C009BB2BB81BB899BB29BB21BB2002B80F275
:103E7C00D4807B681B681A46FB7D9B001A447B68C8
:103E8C001B681946FB7D9B000B441B8899B240F6BE
:103E9C008F730B409BB21380FB7D5B0103F50273A8
:103EAC007A6813440433BB61BB699B7A002B20D125
:103EBC007B681B68B3F850309BB21A46BB691B7801
:103ECC00DB0013441A467B681B68134403F2064359
:103EDC001B88C3F30903FB83FB8B002B78D07B6817
:103EEC001868BB695969BB699A88FB8B01F0B6FAF3
:103EFC006EE07B681B681A46BB691B789B001344F9
:103F0C001B889BB203F48043002B20D07B681B687A
:103F1C00B3F850309BB21A46BB691B78DB001344D4
:103F2C001A467B681B68134403F202431B88C3F3D5
:103F3C000903FB83FB8B002B29D07B681868BB69BA
:103F4C005969BB69DA88FB8B01F088FA1FE07B6842
:103F5C001B68B3F850309BB21A46BB691B78DB0068
:103F6C0013441A467B681B68134403F206431B88F0
:103F7C00C3F30903FB83FB8B002B08D07B68186809
:103F8C00BB695969BB691A89FB8B01F067FA7B68BD
:103F9C001B681A46BB691B789B001A447B681B681C
:103FAC001946BB691B789B000B441B889BB29BB2C8
:103FBC0023F0F0031B051B0D9BB243F07F4343F42E
:103FCC007F0343F4004343F0C0039BB29BB21380C6
:103FDC00BB69DA69FB8B1A44BB69DA61BB695A6944
:103FEC00FB8B1A44BB695A61BB699B69002B04D0DB
:103FFC00FA8BBB691B699A4206D2BB691B7878683D
:10400C001946FDF763FC08E0BB691978BB695A696E
:10401C00BB699B697868FFF781FCBB899BB203F095
:10402C008003002B00F0EF80FB7D5B0128337A6866
:10403C0013440433BB617B681B681A46FB7D9B00F1
:10404C001A447B681B681946FB7D9B000B441B883C
:10405C009BB223F4E14323F070039BB21380BB6942
:10406C009B7A002B28D17B681B68B3F850309BB22D
:10407C001A46BB691B78DB0013441A467B681B6825
:10408C00134403F202431B88C3F30902BB69DA61D0
:10409C00BB69DB69002B00F086807B681868BB6904
:1040AC005969BB699A88BB69DB699BB201F09CF9C1
:1040BC0079E000BF8080FFFF7B681B681A46BB69F4
:1040CC001B789B0013441B889BB203F04003002B0E
:1040DC0024D07B681B68B3F850309BB21A46BB697E
:1040EC001B78DB0013441A467B681B68134403F2ED
:1040FC0002431B88C3F30902BB69DA61BB69DB6944
:10410C00002B2FD07B681868BB695969BB69DA88AA
:10411C00BB69DB699BB201F067F923E07B681B6824
:10412C00B3F850309BB21A46BB691B78DB001344C2
:10413C001A467B681B68134403F206431B88C3F3BF
:10414C000902BB69DA61BB69DB69002B0AD07B68A9
:10415C001868BB695969BB691A89BB69DB699BB271
:10416C0001F042F97B681B681A46BB691B789B00FF
:10417C001A447B681B681946BB691B789B000B446F
:10418C001B889BB29BB223F0F0031B051B0D9BB24B
:10419C0043F07F4343F47F0343F4404343F08003F5
:1041AC009BB29BB213807B681B68B3F850309BB2F8
:1041BC001A46BB691B78DB0013441A467B681B68E4
:1041CC00134403F202431B88C3F30902BB69DA618F
:1041DC00BB695A69BB69DB691A44BB695A61BB6923
:1041EC009B69002B06D1BB691B7878681946FDF7D3
:1041FC0087FB08E0BB691978BB695A69BB699B6985
:10420C007868FFF7F5FB7B681B68B3F844309BB20A
:10421C001A46FA819BB21BB2002BFFF6EEAC0023C0
:10422C0018462437BD4690BD84B080B483B000AF2F
:10423C00786007F1140080E80E00002318460C3754
:10424C00BD465DF8047B04B0704700BF80B485B0F8
:10425C0000AF78600023FB604FF43D43FB607B684C
:10426C00B3F840309AB2FB689BB213439AB27B68A6
:10427C00A3F84020002318461437BD465DF8047B94
:10428C00704700BF80B485B000AF78600023FB603E
:10429C004FF43D43FB607B68B3F840309AB2FB6847
:1042AC009BB2DB439BB213409AB27B68A3F84020CD
:1042BC00002318461437BD465DF8047B704700BFD9
:1042CC0080B483B000AF78600B46FB7000231846B7
:1042DC000C37BD465DF8047B704700BF84B080B4DA
:1042EC0083B000AF786007F1140080E80E007B68A3
:1042FC000122A3F840207B680022A3F840207B68B1
:10430C000022A3F844207B680022A3F8502000234D
:10431C0018460C37BD465DF8047B04B0704700BFEF
:10432C0090B484B000AF786039603B68DB78032BC5
:10433C0065D801A252F823F055430008DB4300086E
:10434C0085430008AB4300087B683A6812789200FA
:10435C001A447B683968097889000B441B889BB226
:10436C009BB223F4EC4323F070039BB243F4007331
:10437C009BB29BB2138043E07B683A681278920040
:10438C001A447B683968097889000B441B889BB2F6
:10439C0023F4EC4323F070039BB2138030E07B6872
:1043AC003A68127892001A447B6839680978890057
:1043BC000B441B889BB29BB223F4EC4323F0700399
:1043CC009BB243F4C0639BB29BB2138018E07B6832
:1043DC003A68127892001A447B6839680978890027
:1043EC000B441B889BB29BB223F4EC4323F0700369
:1043FC009BB243F480639BB29BB2138000E000BF7E
:10440C007B683A68127892001A447B68396809789C
:10441C0089000B441B889BB29BB223F0F0031B0555
:10442C001B0D9BB243F07F4343F47F0343F40043E3
:10443C0043F0800399B23B681B789BB20B439BB251
:10444C009BB213803B689B7A002B40F0F3803B6857
:10445C005B78002B55D07B68B3F850309BB21A4672
:10446C003B681B78DB0013441A467B68134403F546
:10447C0080631A463B689B8823F001039BB2138030
:10448C007B683A681278920013441B889BB203F045
:10449C004003002B1CD07B683A68127892001A44B7
:1044AC007B683968097889000B441B889BB29BB2E6
:1044BC0023F0F0031B051B0D9BB243F07F4343F429
:1044CC007F0343F4004343F0C0039BB29BB21380C1
:1044DC007B683A681278920013441B889BB223F4D1
:1044EC00E04323F040039CB284F020039CB27B6831
:1044FC003A68127892001A444D4B23439BB21380B6
:10450C0019E27B68B3F850309BB21A463B681B78B3
:10451C00DB0013441A467B68134403F204431A4627
:10452C003B689B8823F001039BB213807B68B3F834
:10453C0050309BB21A463B681B78DB0013441A467A
:10454C007B68134403F20643BB603B681B693E2B3C
:10455C0017D93B681B695B09FB813B681B6903F03E
:10456C001F03002B02D1FB89013BFB81FB899B02C2
:10457C009BB26FEA43436FEA53439AB2BB681A800B
:10458C0011E03B681B695B08FB813B681B6903F00E
:10459C000103002B02D0FB890133FB81FB899B02B9
:1045AC009AB2BB681A807B683A68127892001344FE
:1045BC001B889BB203F48043002B1CD07B683A68A9
:1045CC00127892001A447B683968097889000B4488
:1045DC001B889BB29BB223F0F0031B051B0D9BB2F7
:1045EC0043F07F4343F47F0343F4404343F08003A1
:1045FC009BB29BB213807B683A681278920013448A
:10460C001B889BB223F4804323F070039CB284F488
:10461C0080539CB284F400539CB27B683A68127845
:10462C0092001A44024B23439BB2138083E100BFD8
:10463C008080FFFF7B683A68127892001A447B688E
:10464C003968097889000B441B889BB29BB223F410
:10465C00F8731B051B0D9BB243F07F4343F47F03A0
:10466C0043F4014343F080039BB29BB213807B68FD
:10467C00B3F850309BB21A463B681B78DB001344EE
:10468C001A467B68134403F580631A463B68DB8843
:10469C0023F001039BB213807B68B3F850309BB2BC
:1046AC001A463B681B78DB0013441A467B6813449C
:1046BC0003F204431A463B681B8923F001039BB2A7
:1046CC0013803B685B78002B40F09E807B683A68D7
:1046DC001278920013441B889BB203F48043002B86
:1046EC001CD07B683A68127892001A447B6839684F
:1046FC00097889000B441B889BB29BB223F0F00312
:10470C001B051B0D9BB243F07F4343F47F0343F423
:10471C00404343F080039BB29BB213807B683A68A2
:10472C001278920013441B889BB203F04003002BB9
:10473C001CD07B683A68127892001A447B683968FE
:10474C00097889000B441B889BB29BB223F0F003C1
:10475C001B051B0D9BB243F07F4343F47F0343F4D3
:10476C00004343F0C0039BB29BB213807B683A6852
:10477C00127892001A447B683968097889000B44D6
:10478C001B889BB29BB223F0F0031B051B0D9BB245
:10479C0043F07F4343F47F0343F4004343F0C003EF
:1047AC009BB29BB213807B683A68127892001344D8
:1047BC001B889BB223F4804323F070039CB284F4D7
:1047CC0080539CB284F400539CB27B683A68127894
:1047DC0092001A445B4B23439BB213807B683A686C
:1047EC001278920013441B889BB223F4E04323F00D
:1047FC0040039CB27B683A68127892001A44514B81
:10480C0023439BB2138096E07B683A68127892003F
:10481C0013441B889BB203F48043002B1CD07B6891
:10482C003A68127892001A447B68396809788900D2
:10483C000B441B889BB29BB223F0F0031B051B0D92
:10484C009BB243F07F4343F47F0343F4404343F074
:10485C0080039BB29BB213807B683A6812789200FB
:10486C0013441B889BB203F04003002B1CD07B68C5
:10487C003A68127892001A447B6839680978890082
:10488C000B441B889BB29BB223F0F0031B051B0D42
:10489C009BB243F07F4343F47F0343F4004343F064
:1048AC00C0039BB29BB213807B683A68127892006B
:1048BC001A447B683968097889000B441B889BB2C1
:1048CC009BB223F0F0031B051B0D9BB243F07F43FF
:1048DC0043F47F0343F4404343F080039BB29BB209
:1048EC0013807B683A681278920013441B889BB241
:1048FC0023F4E04323F040039CB27B683A681278BF
:10490C0092001A440F4B23439BB213807B683A6886
:10491C001278920013441B889BB223F4804323F03B
:10492C0070039CB27B683A68127892001A44054B6B
:10493C0023439BB21380002318461037BD4690BC0E
:10494C00704700BF8080FFFF90B482B000AF7860EA
:10495C0039603B689B7A002B7FD13B685B78002BDE
:10496C003DD07B683A681278920013441B889BB246
:10497C0003F04003002B1CD07B683A68127892003D
:10498C001A447B683968097889000B441B889BB2F0
:10499C009BB223F0F0031B051B0D9BB243F07F432E
:1049AC0043F47F0343F4004343F0C0039BB29BB238
:1049BC0013807B683A681278920013441B889BB270
:1049CC0023F4E04323F040039CB27B683A681278EE
:1049DC0092001A446F4B23439BB2138073E17B68A4
:1049EC003A681278920013441B889BB203F48043FC
:1049FC00002B1CD07B683A68127892001A447B68B2
:104A0C003968097889000B441B889BB29BB223F050
:104A1C00F0031B051B0D9BB243F07F4343F47F0354
:104A2C0043F4404343F080039BB29BB213807B68FA
:104A3C003A681278920013441B889BB223F480438B
:104A4C0023F070039CB27B683A68127892001A4487
:104A5C00504B23439BB2138035E13B685B78002BB2
:104A6C0040F09A807B683A681278920013441B8855
:104A7C009BB203F48043002B1CD07B683A681278FD
:104A8C0092001A447B683968097889000B441B88AA
:104A9C009BB29BB223F0F0031B051B0D9BB243F0A2
:104AAC007F4343F47F0343F4404343F080039BB2C2
:104ABC009BB213807B683A681278920013441B886F
:104ACC009BB203F04003002B1CD07B683A68127831
:104ADC0092001A447B683968097889000B441B885A
:104AEC009BB29BB223F0F0031B051B0D9BB243F052
:104AFC007F4343F47F0343F4004343F0C0039BB272
:104B0C009BB213807B683A68127892001A447B68D7
:104B1C003968097889000B441B889BB29BB223F03F
:104B2C00F0031B051B0D9BB243F07F4343F47F0343
:104B3C0043F4004343F0C0039BB29BB213807B68E9
:104B4C003A681278920013441B889BB223F480437A
:104B5C0023F070039CB27B683A68127892001A4476
:104B6C000C4B23439BB213807B683A6812789200FB
:104B7C0013441B889BB223F4E04323F040039CB204
:104B8C007B683A68127892001A44024B23439BB21A
:104B9C00138098E08080FFFF7B683A68127892005F
:104BAC0013441B889BB203F48043002B1CD07B68FE
:104BBC003A68127892001A447B683968097889003F
:104BCC000B441B889BB29BB223F0F0031B051B0DFF
:104BDC009BB243F07F4343F47F0343F4404343F0E1
:104BEC0080039BB29BB213807B683A681278920068
:104BFC0013441B889BB203F04003002B1CD07B6832
:104C0C003A68127892001A447B68396809788900EE
:104C1C000B441B889BB29BB223F0F0031B051B0DAE
:104C2C009BB243F07F4343F47F0343F4004343F0D0
:104C3C00C0039BB29BB213807B683A6812789200D7
:104C4C001A447B683968097889000B441B889BB22D
:104C5C009BB223F0F0031B051B0D9BB243F07F436B
:104C6C0043F47F0343F4404343F080039BB29BB275
:104C7C0013807B683A681278920013441B889BB2AD
:104C8C0023F4E04323F040039CB27B683A6812782B
:104C9C0092001A440F4B23439BB213807B683A68F3
:104CAC001278920013441B889BB223F4804323F0A8
:104CBC0070039CB27B683A68127892001A44054BD8
:104CCC0023439BB21380002318460837BD4690BC83
:104CDC00704700BF8080FFFF90B58DB000AFF860CB
:104CEC00B9601346FB710023FB85BB689B69BB62F3
:104CFC00BB685B78012B40F05281BB689A69BB683A
:104D0C001B699A4209D9BB681B69BB62BB689A696B
:104D1C00BB6AD21ABB689A6105E0BB689B69BB622F
:104D2C00BB6800229A61BB689B7A002B1AD1BB68C6
:104D3C005969BB689A88BB6A9BB2F86800F054FB4F
:104D4C00FB68B3F850309BB21A46BB681B78DB008B
:104D5C0013441A46FB68134403F20243BA6A92B234
:104D6C001A8000E1FB68BA681278920013441B8821
:104D7C009BB203F04003002B55D0BB685B78002B33
:104D8C0038D1FB68B3F850309BB21A46BB681B781D
:104D9C00DB0013441A46FB68134403F20643FB6121
:104DAC00BB6A3E2B15D9BB6A5B09FB84BB6A03F05B
:104DBC001F03002B02D1FB8C013BFB84FB8C9B0261
:104DCC009BB26FEA43436FEA53439AB2FB691A8072
:104DDC0025E0BB6A5B08FB84BB6A03F00103002B74
:104DEC0002D0FB8C0133FB84FB8C9B029AB2FB69D7
:104DFC001A8014E0BB685B78012B10D1FB68B3F808
:104E0C0050309BB21A46BB681B78DB0013441A4621
:104E1C00FB68134403F20243BA6A92B21A80BB686D
:104E2C001B89FB8554E0BB685B78002B38D1FB6891
:104E3C00B3F850309BB21A46BB681B78DB001344A6
:104E4C001A46FB68134403F20243BB61BB6A3E2B58
:104E5C0015D9BB6A5B09BB84BB6A03F01F03002B2B
:104E6C0002D1BB8C013BBB84BB8C9B029BB26FEA17
:104E7C0043436FEA53439AB2BB691A8025E0BB6A7D
:104E8C005B08BB84BB6A03F00103002B02D0BB8C14
:104E9C000133BB84BB8C9B029AB2BB691A8014E0B1
:104EAC00BB685B78012B10D1FB68B3F850309BB218
:104EBC001A46BB681B78DB0013441A46FB68134484
:104ECC0003F20243BA6A92B21A80BB68DB88FB8594
:104EDC00BB685969BB6A9BB2FA8DF86800F084FA1A
:104EEC00BB685B78002B1DD1FB68BA681278920006
:104EFC001A44FB68B968097889000B441B889BB27B
:104F0C009BB223F0F0031B051B0D9BB243F07F43B8
:104F1C0043F47F0343F4004343F0C0039BB29BB2C2
:104F2C00138020E0BB685B78012B1CD1FB68BA684E
:104F3C00127892001A44FB68B968097889000B440E
:104F4C001B889BB29BB223F0F0031B051B0D9BB27D
:104F5C0043F07F4343F47F0343F4404343F0800327
:104F6C009BB29BB21380FB68BA6812789200134410
:104F7C001B889BB223F4E04323F040039CB284F0E3
:104F8C0010039CB284F020039CB2FB68BA681278C0
:104F9C0092001A44644B23439BB21380BFE0BB685E
:104FAC009A69BB681B699A4209D9BB681B69BB62C9
:104FBC00BB689A69BB6AD21ABB689A6105E0BB6888
:104FCC009B69BB62BB6800229A61BB689B7A002B11
:104FDC0038D1FB68B3F850309BB21A46BB681B78CB
:104FEC00DB0013441A46FB68134403F206437B614F
:104FFC00BB6A3E2B15D9BB6A5B097B84BB6A03F089
:10500C001F03002B02D17B8C013B7B847B8C9B028E
:10501C009BB26FEA43436FEA53439AB27B691A809F
:10502C0062E0BB6A5B087B84BB6A03F00103002B64
:10503C0002D07B8C01337B847B8C9B029AB27B6984
:10504C001A8051E0BB685B78002B38D1FB68B3F851
:10505C0050309BB21A46BB681B78DB0013441A46CF
:10506C00FB68134403F206433B61BB6A3E2B15D924
:10507C00BB6A5B093B84BB6A03F01F03002B02D1A4
:10508C003B8C013B3B843B8C9B029BB26FEA4343C2
:10509C006FEA53439AB23B691A8025E0BB6A5B08FE
:1050AC003B84BB6A03F00103002B02D03B8C013321
:1050BC003B843B8C9B029AB23B691A8014E0BB6820
:1050CC005B78012B10D1FB68B3F850309BB21A46B9
:1050DC00BB681B78DB0013441A46FB68134403F2CD
:1050EC000243BA6A92B21A80FB68BA6812789200CC
:1050FC0013441B889BB223F4804323F070039CB2AF
:10510C0084F480539CB284F400539CB2FB68BA685C
:10511C00127892001A44044B23439BB21380002351
:10512C0018463437BD4690BD8080FFFF90B482B0E6
:10513C0000AF786039603B681B78002B18D17B6816
:10514C003A681278920013441B889BB24BF6BF74DA
:10515C001C4084F4805484F010047B683A68127804
:10516C0092001A44A1B2204B0B439BB2138034E043
:10517C003B685B78002B18D07B683A6812789200F9
:10518C0013441B889BB223F4E04323F040039CB2EE
:10519C0084F010039CB27B683A68127892001A442F
:1051AC00114B23439BB2138017E07B683A6812784B
:1051BC00920013441B889BB223F4804323F07003AA
:1051CC009CB284F480539CB27B683A68127892004B
:1051DC001A44054B23439BB213800023184608370F
:1051EC00BD4690BC704700BF8080FFFF90B482B07A
:1051FC0000AF786039603B685B78002B43D07B68EC
:10520C003A681278920013441B889BB203F0400357
:10521C00002B1CD07B683A68127892001A447B6889
:10522C003968097889000B441B889BB29BB223F028
:10523C00F0031B051B0D9BB243F07F4343F47F032C
:10524C0043F4004343F0C0039BB29BB213807B68D2
:10525C003A681278920013441B889BB223F4E04303
:10526C0023F040039CB284F010039CB284F0200322
:10527C009CB27B683A68127892001A44264B2343FE
:10528C009BB2138042E07B683A6812789200134418
:10529C001B889BB203F48043002B1CD07B683A68BC
:1052AC00127892001A447B683968097889000B449B
:1052BC001B889BB29BB223F0F0031B051B0D9BB20A
:1052CC0043F07F4343F47F0343F4404343F08003B4
:1052DC009BB29BB213807B683A681278920013449D
:1052EC001B889BB223F4804323F070039CB284F49C
:1052FC0080539CB284F400539CB27B683A68127859
:10530C0092001A44044B23439BB21380002318468B
:10531C000837BD4690BC70478080FFFF80B483B0D7
:10532C0000AF78600B46FB70FB78002B03D17B68D9
:10533C008022A3F84C20002318460C37BD465DF89C
:10534C00047B704780B483B000AF7860094A094B86
:10535C00B3F858309BB26FEA43436FEA53439BB2A6
:10536C00A2F85830002318460C37BD465DF8047B74
:10537C00704700BF0068004080B483B000AF786015
:10538C00084A084BB3F858309BB2C3F30E039BB2D8
:10539C00A2F85830002318460C37BD465DF8047B44
:1053AC00704700BF0068004080B485B000AF7860E3
:1053BC000023FB607B68B3F844309BB2FB60FB6856
:1053CC0018461437BD465DF8047B704780B485B031
:1053DC0000AFF8600B467A60FB7200231846143756
:1053EC00BD465DF8047B704780B489B000AFF860AF
:1053FC00B96011461A460B46FB801346BB80BB882E
:10540C0001335B107B61FA88FB68134403F58063FE
:10541C00BB617B69FB6118E0BB681B787B82BB6856
:10542C000133BB60BB681B781B029AB27B8A1343A7
:10543C009BB23B82BB699A1CBA613A8A1A80BB68E0
:10544C000133BB60FB69013BFB61FB69002BE3D1C2
:10545C002437BD465DF8047B704700BF80B489B02B
:10546C0000AFF860B96011461A460B46FB80134634
:10547C00BB80BB8801335B107B61FA88FB681344EB
:10548C0003F58063BB617B69FB610DE0BB685A1C53
:10549C00BA60BA69911CB96112881A80BB68013371
:1054AC00BB60FB69013BFB61FB69002BEED1243730
:1054BC00BD465DF8047B704780B500AF032002F059
:1054CC00D1FA002000F006F8FCF778FD002318460E
:1054DC0080BD00BF80B582B000AF7860094B1B68FF
:1054EC00094AA2FB03239B09184602F0FDFA4FF070
:1054FC00FF307968002202F0BFFA00231846083703
:10550C00BD4680BD54000020D34D621080B400AF66
:10551C00044B1B680133034A1360BD465DF8047BE2
:10552C00704700BF0018002080B400AF034B1B680D
:10553C001846BD465DF8047B704700BF001800207C
:10554C0080B584B000AF78600023FB60FFF7ECFF00
:10555C00F86000BFFFF7E8FF0246FB68D21A7B68D1
:10556C009A42F7D31037BD4680BD00BF80B487B0D8
:10557C0000AF7860396000237B610023FB6000235F
:10558C003B6150E13B681A687B69012101FA03F326
:10559C001340FB60FB68002B00F042813B685B68AA
:1055AC00022B03D03B685B68122B22D17B69DA0893
:1055BC007B68083253F822303B617B6903F00703A8
:1055CC009B001A460F239340DB433A6913403B611F
:1055DC003B681B697A6902F00702920093403A69B2
:1055EC0013433B617B69DA087B680832396943F8FD
:1055FC0022107B681B683B617B695B001A460323A6
:10560C009340DB433A6913403B613B685B6803F0B2
:10561C0003037A69520093403A6913433B617B68F8
:10562C003A691A603B685B68012B0BD03B685B687E
:10563C00022B07D03B685B68112B03D03B685B687F
:10564C00122B2FD17B689B683B617B695B001A46F0
:10565C0003239340DB433A6913403B613B68DB68AF
:10566C007A69520093403A6913433B617B683A690B
:10567C009A607B685B683B617B69012202FA03F3E9
:10568C00DB433A6913403B613B685B6803F01003F2
:10569C001A097B6902FA03F33A6913433B617B688D
:1056AC003A695A607B68DB683B617B695B001A4630
:1056BC0003239340DB433A6913403B613B689B688F
:1056CC007A69520093403A6913433B617B683A69AB
:1056DC00DA603B685B6803F08053002B00F0A0801D
:1056EC00574A574B1B6E43F001031366544B1B6E0A
:1056FC0003F00103BB60BB68524A7B699B08023311
:10570C0052F823303B617B6903F003039B001A467C
:10571C000F239340DB433A6913403B617B68B3F141
:10572C00904F19D07B68484A934213D07B68474A04
:10573C0093420DD07B68464A934207D07B68454A1A
:10574C00934201D1042308E0072306E0032304E07D
:10575C00022302E0012300E000237A6902F0030235
:10576C00920093403A6913433B6136497B699B082D
:10577C0002333A6941F82320374B1B683B61FB68C5
:10578C00DB433A6913403B613B685B6803F480334D
:10579C00002B03D03A69FB6813433B612E4A3B69EB
:1057AC0013602D4B5B683B61FB68DB433A6913402C
:1057BC003B613B685B6803F40033002B03D03A6910
:1057CC00FB6813433B61244A3B695360224B9B6843
:1057DC003B61FB68DB433A6913403B613B685B68A8
:1057EC0003F48013002B03D03A69FB6813433B612D
:1057FC00194A3B699360184BDB683B61FB68DB43E0
:10580C003A6913403B613B685B6803F40013002B5F
:10581C0003D03A69FB6813433B610F4A3B69D36081
:10582C007B6901337B613B681A687B6922FA03F35D
:10583C00002B7FF4A7AE1C37BD465DF8047B704788
:10584C00001002400000014000040048000800481D
:10585C00000C0048001000480004014080B487B0E0
:10586C0000AF7860396000237B6100233B6100232B
:10587C00FB60B7E07B6901229A403B6813403B61B7
:10588C003B69002B00F0AB807B681A687B695B007E
:10589C00194603238B401A437B681A607B69DA082C
:1058AC007B69D9087B68083153F821107B6903F0B8
:1058BC0007039B0018460F238340DB4319407B688A
:1058CC00083243F822107B689A687B695B001946A2
:1058DC0003238B40DB431A407B689A607B685A68D1
:1058EC007B69012101FA03F3DB431A407B685A60A0
:1058FC007B68DA687B695B00194603238B40DB43CA
:10590C001A407B68DA603D4A7B699B08023352F887
:10591C002330FB607B6903F003039B001A460F23C3
:10592C009340FA681340FB607B68B3F1904F19D039
:10593C007B68334A934213D07B68324A93420DD032
:10594C007B68314A934207D07B68304A934201D13D
:10595C00042308E0072306E0032304E0022302E00B
:10596C00012300E000237A6902F00302920003FA9B
:10597C0002F2FB689A4232D17B6903F003039B006D
:10598C001A460F239340FB601C487B699B081B49FC
:10599C007A699208023251F82210FA68D2430A400E
:1059AC00023340F823201A49194B1A683B69DB4330
:1059BC0013400B601649164B5A683B69DB43134086
:1059CC004B601349124B9A683B69DB4313408B6065
:1059DC000F490F4BDA683B69DB431340CB607B69A3
:1059EC0001337B617B693A6822FA03F3002B7FF465
:1059FC0041AF1C37BD465DF8047B70470000014089
:105A0C000004004800080048000C00480010004842
:105A1C000004014080B485B000AF78600B467B80F9
:105A2C007B681A697B881340002B02D00123FB731F
:105A3C0001E00023FB73FB7B18461437BD465DF871
:105A4C00047B704780B483B000AF78600B467B80DA
:105A5C0013467B707B78002B03D07A887B689A6125
:105A6C0002E07A887B689A620C37BD465DF8047B4D
:105A7C00704700BF80B483B000AF78600B467B806A
:105A8C007B685A697B885A407B685A610C37BD46E3
:105A9C005DF8047B704700BF80B487B000AFF8603E
:105AAC007B600B467B8113463B8100237B617B89AA
:105ABC0003F080039BB2002B09D07B8903F07F039A
:105ACC005B012833FA68134404337B6107E07B895C
:105ADC005B0103F50273FA68134404337B613B8961
:105AEC00002B07D17B6900229A727B689AB27B6982
:105AFC009A800BE07B6901229A727B689AB27B696F
:105B0C00DA807B681B0C9AB27B691A8100231846D9
:105B1C001C37BD465DF8047B704700BF80B485B070
:105B2C0000AF78607B681B68FB607B680122C3F860
:105B3C002C24FB68B3F858309BB243F001039AB2A3
:105B4C00FB68A3F85820FB68B3F858309BB243F0BD
:105B5C0002039AB2FB68A3F85820002318461437A6
:105B6C00BD465DF8047B704780B485B000AF7860AB
:105B7C007B681B68FB607B680122C3F828247B6868
:105B8C00002283F82024FB68B3F854309BB243F016
:105B9C0001039AB2FB68A3F85420FB68B3F85430A5
:105BAC009BB243F002039AB2FB68A3F85420002383
:105BBC0018461437BD465DF8047B704780B582B03B
:105BCC0000AF78607B68002B01D1012343E07B6838
:105BDC0093F86930DBB2002B06D17B68002283F886
:105BEC0068207868FCF7F2FA7B68242283F8692035
:105BFC007B681B687A681268126822F001021A60CE
:105C0C00786800F0B5FA0346012B01D1012322E09C
:105C1C007B685B6A002B02D0786800F077FD7B68AC
:105C2C001B687A681268526822F490425A607B684A
:105C3C001B687A681268926822F02A029A607B6864
:105C4C001B687A681268126842F001021A60786860
:105C5C0000F0FEFD034618460837BD4680BD00BF68
:105C6C0080B588B002AFF860B9603B601346FB802A
:105C7C0000237B61FB6893F86930DBB2202B77D172
:105C8C00BB68002B02D0FB88002B01D1012370E0F4
:105C9C00FB6893F86830012B01D1022369E0FB68A3
:105CAC00012283F86820FB680022DA66FB68212257
:105CBC0083F86920FFF738FC7861FB68FA88A3F851
:105CCC005020FB68FA88A3F8522034E0FB68B3F844
:105CDC0052309BB2013B9AB2FB68A3F852203B684E
:105CEC000093F868802100227B6900F0FBFD0346DD
:105CFC00002B01D003233CE0FB689B68B3F5805F6D
:105D0C0011D1FB681B69002B0DD1BB683B61FB6893
:105D1C001B683A691288C2F3080292B21A85BB68F2
:105D2C000233BB6007E0FB681A68BB68591CB9609A
:105D3C001B789BB21385FB68B3F852309BB2002BD7
:105D4C00C4D13B680093F868402100227B6900F0C5
:105D5C00C9FD0346002B01D003230AE0FB68202277
:105D6C0083F86920FB68002283F86820002300E098
:105D7C00022318461837BD4680BD00BF80B58AB0D7
:105D8C0002AFF860B9603B601346FB800023FB61F7
:105D9C00FB6893F86A30DBB2202B40F0AD80BB6817
:105DAC00002B02D0FB88002B01D10123A5E0FB685E
:105DBC0093F86830012B01D102239EE0FB6801228D
:105DCC0083F86820FB680022DA66FB68222283F8DD
:105DDC006A20FFF7A9FBF861FB68FA88A3F8582042
:105DEC00FB68FA88A3F85A20FB689B68B3F5805FC0
:105DFC000ED1FB681B69002B05D1FB6840F2FF122A
:105E0C00A3F85C2028E0FB68FF22A3F85C2023E0C9
:105E1C00FB689B68002B0DD1FB681B69002B04D120
:105E2C00FB68FF22A3F85C2016E0FB687F22A3F836
:105E3C005C2011E0FB689B68B3F1805F0CD1FB68C0
:105E4C001B69002B04D1FB687F22A3F85C2003E0C4
:105E5C00FB683F22A3F85C20FB68B3F85C307B83C3
:105E6C003AE0FB68B3F85A309BB2013B9AB2FB683C
:105E7C00A3F85A203B680093F86820210022FB69A4
:105E8C0000F030FD0346002B01D0032335E0FB6806
:105E9C009B68B3F5805F12D1FB681B69002B0ED198
:105EAC00BB687B61FB681B689B8C9AB27B8B134035
:105EBC009AB27B691A80BB680233BB600CE0BB688A
:105ECC005A1CBA60FA681268928C92B2D1B27A8B70
:105EDC00D2B20A40D2B21A70FB68B3F85A309BB2F5
:105EEC00002BBED1FB68202283F86A20FB680022BD
:105EFC0083F86820002300E0022318462037BD46B3
:105F0C0080BD00BF80B586B000AF78607B681B6831
:105F1C00DB697B617B681B681B683B617B6903F0F9
:105F2C000F03FB60FB68002B0DD17B6903F0200392
:105F3C00002B08D03B6903F02003002B03D07868BA
:105F4C0000F0BEFDFBE07B681B689B68BB60FB68D8
:105F5C00002B00F0B980BB6803F00103002B05D1C6
:105F6C003B6903F49073002B00F0AE807B6903F067
:105F7C000103002B0ED03B6903F48073002B09D076
:105F8C007B681B6801221A627B68DB6E43F001029E
:105F9C007B68DA667B6903F00203002B0ED0BB68CA
:105FAC0003F00103002B09D07B681B6802221A62E4
:105FBC007B68DB6E43F004027B68DA667B6903F076
:105FCC000403002B0ED0BB6803F00103002B09D097
:105FDC007B681B6804221A627B68DB6E43F002024A
:105FEC007B68DA667B6903F00803002B13D03B69EE
:105FFC0003F02003002B04D1BB6803F00103002B3A
:10600C0009D07B681B6808221A627B68DB6E43F040
:10601C0008027B68DA667B68DB6E002B53D07B69E9
:10602C0003F02003002B07D03B6903F02003002B67
:10603C0002D0786800F044FD7B68DB6E03F0080347
:10604C00002B06D17B681B689B6803F04003002B78
:10605C0032D0786800F090FC7B681B689B6803F07A
:10606C004003002B23D07B681B687A681268926807
:10607C0022F040029A607B685B6E002B13D07B6829
:10608C005B6E304A9A637B685B6E184601F06AFD62
:10609C000346002B0FD07B685B6E9B6B7A68526E4D
:1060AC001046984707E07868FAF7A4FC0BE078688C
:1060BC00FAF7A0FC07E006E07868FAF79BFC7B682F
:1060CC000022DA663BE03AE07B681B689B68BB60A9
:1060DC007B6903F48013002B15D0BB6803F4800399
:1060EC00002B10D07B681B684FF480121A627B68FF
:1060FC00202283F869207B68202283F86A20786844
:10610C0001F026FD1BE07B6903F08003002B08D017
:10611C003B6903F08003002B03D0786800F060FC2F
:10612C000DE07B6903F04003002B08D03B6903F0C2
:10613C004003002B03D0786800F0AAFC00BF18378E
:10614C00BD4680BDC169000880B483B000AF7860E3
:10615C000C37BD465DF8047B704700BF80B483B03C
:10616C0000AF78600C37BD465DF8047B704700BF0C
:10617C002DE9B04386B000AF786000237B6110231B
:10618C00FB740023BB8100233B820023FB737B68E1
:10619C009A687B681B691A437B685B691A437B6846
:1061AC00DB6913437B617B681A687B681B68196821
:1061BC00B84B0B4079690B4313607B681B687A689A
:1061CC001268526822F440517A68D2680A435A60C5
:1061DC007B689B697B617B681B68AF4A934204D0E8
:1061EC007B681B6A7A6913437B617B681B687A68DE
:1061FC001268926822F430617A690A439A607B686B
:10620C001B68A64A934221D1A54BD3F8883003F0E2
:10621C000303032B16D801A252F823F039620008AD
:10622C00456200083F6200084B6200080123FB74C2
:10623C000AE00223FB7407E00423FB7404E0082348
:10624C00FB7401E01023FB7400BF88E07B681B68C3
:10625C00944A934234D1924BD3F8883003F00C0318
:10626C000C2B29D801A252F823F000BFAD62000814
:10627C00C5620008C5620008C5620008B962000862
:10628C00C5620008C5620008C5620008B362000858
:10629C00C5620008C5620008C5620008BF6200083C
:1062AC000023FB740AE00223FB7407E00423FB7455
:1062BC0004E00823FB7401E01023FB7400BF4EE0E4
:1062CC007B681B68784A934220D1754BD3F8883091
:1062DC0003F03003102B0FD0102B02D8002B05D05D
:1062EC0010E0202B05D0302B09D00BE00023FB74E1
:1062FC000AE00223FB7407E00423FB7404E0082388
:10630C00FB7401E01023FB7400BF28E07B681B6862
:10631C00614A934223D1624BD3F8883003F4406333
:10632C00B3F5806F12D0B3F5806F02D8002B07D075
:10633C0012E0B3F5006F06D0B3F5406F09D00BE057
:10634C000023FB740AE00223FB7407E00423FB74B4
:10635C0004E00823FB7401E01023FB7400BF7B688E
:10636C001B684D4A934240F0EE8000237B61FB7C1E
:10637C00082B24D801A252F823F000BFAD6300080B
:10638C00CB630008B5630008CB630008BB6300084F
:10639C00CB630008CB630008CB630008C363000821
:1063AC00FCF712FE78610DE0404B7B610AE0FCF7D4
:1063BC0003FD786106E04FF400437B6102E00123AA
:1063CC00FB7300BF7B69002B00F099817B685A68D6
:1063DC0013465B001A447B699A4205D87B685B685C
:1063EC001A037B699A4202D20123FB73AAE0FB7C5D
:1063FC00082B00F2948001A252F823F02D640008BF
:10640C002B650008716400082B650008C164000846
:10641C002B6500082B6500082B650008FF6400083D
:10642C00FCF7D2FD03461A464FF000034FEA03294E
:10643C0049EA12694FEA02287B685B685B081A46D6
:10644C004FF0000318EB020049EB03017B685B681B
:10645C001A464FF00003F9F70FFF02460B4613469E
:10646C007B615FE07B685B685B081A464FF000035A
:10647C000F484FF00001801841EB03017B685B680B
:10648C001A464FF00003F9F7F7FE02460B46134687
:10649C007B6147E0F369FFEF00800040003801406A
:1064AC000010024000440040004800400024F4006A
:1064BC00000024F4FCF780FC03461A464FF000035E
:1064CC001D0245EA126514027B685B685B081A467C
:1064DC004FF00003A01845EB03017B685B681A467C
:1064EC004FF00003F9F7C8FE02460B4613467B61DA
:1064FC0018E07B685B685B081A464FF0000312F5E6
:10650C00000043F100017B685B681A464FF0000302
:10651C00F9F7B2FE02460B4613467B6102E00123FB
:10652C00FB7300BF7B69B3F5407F08D37B69B3F580
:10653C00801F04D27B681B687A69DA6002E0012351
:10654C00FB73DCE0DBE07B68DB69B3F5004F6DD1FE
:10655C00FB7C082B56D801A252F823F08D6500085D
:10656C00A9650008C565000811660008DF6500080C
:10657C00116600081166000811660008FB6500082A
:10658C00FCF722FD03465A007B685B685B081A44E3
:10659C007B685B68B2FBF3F33B8236E0FCF736FDBD
:1065AC0003465A007B685B685B081A447B685B682F
:1065BC00B2FBF3F33B8228E07B685B685B0803F17A
:1065CC00F47303F590437A685268B3FBF2F33B82A1
:1065DC001BE0FCF7F1FB03465A007B685B685B0829
:1065EC001A447B685B68B2FBF3F33B820DE07B687B
:1065FC005B685B0803F580327B685B68B2FBF3F386
:10660C003B8202E00123FB7300BF3B8A23F00F03A4
:10661C00BB813B8A03F00F035B109AB2BB89134317
:10662C00BB817B681B68BA89DA6068E0FB7C082B4D
:10663C0062D801A252F823F0696600088966000846
:10664C00A966000805670008C96600080567000808
:10665C000567000805670008E96600087B681C6888
:10666C00FCF7B2FC02467B685B685B081A447B68EB
:10667C005B68B2FBF3F39BB2E36040E07B681C68A1
:10668C00FCF7C4FC02467B685B685B081A447B68B9
:10669C005B68B2FBF3F39BB2E36030E07B681A6893
:1066AC007B685B685B0803F5740303F5105379682A
:1066BC004968B3FBF1F39BB2D36020E07B681C68A4
:1066CC00FCF77AFB02467B685B685B081A447B68C4
:1066DC005B68B2FBF3F39BB2E36010E07B681B6872
:1066EC007A685268520802F500417A685268B1FB28
:1066FC00F2F292B2DA6002E00123FB7300BFFB7B83
:10670C0018461837BD46BDE8B08300BF80B483B0CF
:10671C0000AF78607B685B6A03F00103002B0AD042
:10672C007B681B687A681268526822F400317A68B8
:10673C00926A0A435A607B685B6A03F00203002B7F
:10674C000AD07B681B687A681268526822F4803120
:10675C007A68D26A0A435A607B685B6A03F0040366
:10676C00002B0AD07B681B687A681268526822F486
:10677C0080217A68126B0A435A607B685B6A03F06B
:10678C000803002B0AD07B681B687A681268526871
:10679C0022F400417A68526B0A435A607B685B6A48
:1067AC0003F01003002B0AD07B681B687A68126810
:1067BC00926822F480517A68926B0A439A607B68E3
:1067CC005B6A03F02003002B0AD07B681B687A6895
:1067DC001268926822F400517A68D26B0A439A606C
:1067EC007B685B6A03F04003002B1AD07B681B6844
:1067FC007A681268526822F480117A68126C0A4323
:10680C005A607B681B6CB3F5801F0AD17B681B68D0
:10681C007A681268526822F4C0017A68526C0A4392
:10682C005A607B685B6A03F08003002B0AD07B689C
:10683C001B687A681268526822F400217A68926C9C
:10684C000A435A600C37BD465DF8047B704700BFA5
:10685C0080B586B002AF78600023FB607B680022B5
:10686C00DA66FEF761FEF8607B681B681B6803F054
:10687C000803002B0ED06FF07E43009378684FF422
:10688C0000110022FB6800F02DF80346002B01D00C
:10689C00032322E07B681B681B6803F00403002BB6
:1068AC000ED06FF07E43009378684FF48001002285
:1068BC00FB6800F017F80346002B01D003230CE013
:1068CC007B68202283F869207B68202283F86A2069
:1068DC007B68002283F86820002318461037BD46D9
:1068EC0080BD00BF80B584B000AFF860B9603B607C
:1068FC001346FB712CE0BB69B3F1FF3F28D0BB6999
:10690C00002B07D0FEF710FE02463B68D21ABB697B
:10691C009A421DD9FB681B68FA681268126822F447
:10692C00D0721A60FB681B68FA681268926822F0D1
:10693C0001029A60FB68202283F86920FB68202200
:10694C0083F86A20FB68002283F8682003230FE099
:10695C00FB681B68DA69BB681A40BB689A420CBFBB
:10696C0001230023DBB21A46FB799A42C3D00023E1
:10697C0018461037BD4680BD80B483B000AF786038
:10698C007B681B687A681268126822F490721A602D
:10699C007B681B687A681268926822F001029A6020
:1069AC007B68202283F86A200C37BD465DF8047B97
:1069BC00704700BF80B584B000AF78607B689B6A7D
:1069CC00FB60FB680022A3F85A20FB680022A3F8A6
:1069DC005220F868FAF70EF81037BD4680BD00BF9C
:1069EC0080B485B000AF78607B6893F86930DBB217
:1069FC00212B46D17B68B3F852309BB2002B11D1BE
:106A0C007B681B687A681268126822F080021A6030
:106A1C007B681B687A681268126842F040021A6040
:106A2C0000232FE07B689B68B3F5805F14D17B68F3
:106A3C001B69002B10D17B68DB6CFB607B681B68CF
:106A4C00FA681288C2F3080292B21A857B68DB6C72
:106A5C009A1C7B68DA6409E07B681A687B68DB6CDB
:106A6C00581C7968C8641B789BB213857B68B3F893
:106A7C0052309BB2013B9AB27B68A3F852200023A0
:106A8C0000E0022318461437BD465DF8047B7047BE
:106A9C0080B582B000AF78607B681B687A6812683A
:106AAC00126822F040021A607B68202283F8692069
:106ABC007868FFF749FB002318460837BD4680BDB0
:106ACC0080B584B000AF78607B68B3F85C30FB8134
:106ADC007B6893F86A30DBB2222B4ED17B681B6843
:106AEC009B8CBB817B689B68B3F5805F12D17B6804
:106AFC001B69002B0ED17B685B6DBB60BA89FB896F
:106B0C0013409AB2BB681A807B685B6D9A1C7B68D9
:106B1C005A650BE07B685B6D591C7A685165BA89C4
:106B2C00D1B2FA89D2B20A40D2B21A707B68B3F8E9
:106B3C005A309BB2013B9BB27A681946A2F85A10A4
:106B4C00002B18D17B681B687A681268126822F4D3
:106B5C0090721A607B681B687A681268926822F0DF
:106B6C0001029A607B68202283F86A207868FFF71C
:106B7C00F5FA00230CE000230AE07B681B687A68B6
:106B8C001268128B92B242F0080292B21A8302235C
:106B9C0018461037BD4680BD80B584B000AF786014
:106BAC007B68002B01D101237AE07B6800229A627A
:106BBC007B6893F85D30DBB2002B06D17B6800223A
:106BCC0083F85C207868FBF7B7FA7B68022283F8BD
:106BDC005D207B681B687A681268126822F040029C
:106BEC001A607B68DB68B3F5E06F02D90023FB60A9
:106BFC0002E04FF48053FB607B68DB68B3F5706F89
:106C0C0007D07B68DB68B3F5E06F02D07B680022AD
:106C1C009A627B681B6B002B0BD17B68DB68B3F52E
:106C2C00E06F03D97B6802221A6302E07B680122C1
:106C3C001A637B681B687A6851687A68926811439A
:106C4C007A68126911437A68526911437A689269B9
:106C5C0002F4007211437A68D26911437A68126A9D
:106C6C0011437A68926A0A431A607B681B687A68D7
:106C7C009269120C02F004017A68526A11437A6824
:106C8C00526B11437A68D2681143FA680A435A600E
:106C9C007B6800221A667B68012283F85D20002342
:106CAC0018461037BD4680BD80B588B000AFF8607F
:106CBC00B9603B601346FB800023BB610023FB776C
:106CCC00FB6893F85C30012B01D102233EE1FB6899
:106CDC00012283F85C20FEF727FCB861FB6893F86F
:106CEC005D30DBB2012B02D00223FB7725E1BB68C0
:106CFC00002B02D0FB88002B02D10123FB771CE177
:106D0C00FB68032283F85D20FB6800221A66FB688F
:106D1C00BA689A63FB68FA889A87FB68FA88DA87FC
:106D2C00FB6800221A64FB680022A3F84420FB686D
:106D3C000022A3F84620FB6800221A65FB6800229B
:106D4C00DA64FB689B68B3F5004F07D1FB681B68DE
:106D5C00FA681268126842F480421A60FB681B6879
:106D6C001B6803F04003002B07D1FB681B68FA6813
:106D7C001268126842F040021A60FB68DB68B3F5D7
:106D8C00E06F47D9FB685B68002B04D0FB68DB8F96
:106D9C009BB2012B0ED1FB681B68BA681288DA60B3
:106DAC00BB680233BB60FB68DB8F9BB2013B9AB2C2
:106DBC00FB68DA8728E0FB681B689B6803F002031A
:106DCC00002B0FD0FB681B68BA681288DA60BB68AE
:106DDC000233BB60FB68DB8F9BB2013B9AB2FB6852
:106DEC00DA8711E03B68002B0BD03B68B3F1FF3F17
:106DFC000AD0FEF799FB0246BB69D21A3B689A424D
:106E0C0002D30323FB7798E0FB68DB8F9BB2002B4C
:106E1C00D1D172E0FB685B68002B04D0FB68DB8F80
:106E2C009BB2012B24D1FB68DB8F9BB2012B0FD9BA
:106E3C00FB681B68BA681288DA60BB680233BB60F7
:106E4C00FB68DB8F9BB2023B9AB2FB68DA870FE0E0
:106E5C00FB681B6803F10C02BB68591CB9601B78FA
:106E6C001370FB68DB8F9BB2013B9AB2FB68DA872D
:106E7C003EE0FB681B689B6803F00203002B25D0E7
:106E8C00FB68DB8F9BB2012B0FD9FB681B68BA68C0
:106E9C001288DA60BB680233BB60FB68DB8F9BB285
:106EAC00023B9AB2FB68DA8722E0FB681B6803F1AD
:106EBC000C02BB68591CB9601B781370FB68DB8F24
:106ECC009BB2013B9AB2FB68DA8711E03B68002B5E
:106EDC000BD03B68B3F1FF3F0AD0FEF725FB02460F
:106EEC00BB69D21A3B689A4202D30323FB7724E096
:106EFC00FB68DB8F9BB2002BBBD1F8683968BA6991
:106F0C0000F004F90346002B02D0FB6820221A661D
:106F1C00FB689B68002B0AD100237B61FB681B6814
:106F2C00DB687B61FB681B689B687B617B69FB682A
:106F3C001B6E002B01D00123FB77FB68012283F829
:106F4C005D20FB68002283F85C20FB7F184620370D
:106F5C00BD4680BD80B584B000AFF860B9607A6082
:106F6C003B604DE03B68B3F1FF3F49D03B68002BE1
:106F7C0007D0FEF7D9FA0246BB69D21A3B689A428F
:106F8C003ED3FB681B68FA681268526822F0E00274
:106F9C005A60FB685B68B3F5827F11D1FB689B6814
:106FAC00B3F5004F04D0FB689B68B3F5806F07D135
:106FBC00FB681B68FA681268126822F040021A60BB
:106FCC00FB689B6AB3F5005F10D1FB681A68FB681D
:106FDC001B6819684DF6FF730B401360FB681B6848
:106FEC00FA681268126842F400521A60FB680122B7
:106FFC0083F85D20FB68002283F85C2003230EE0FD
:10700C00FB681B689A68BB681A40BB689A4201D13E
:10701C00012200E000227B689A42A3D1002318468B
:10702C001037BD4680BD00BF80B586B000AFF8609C
:10703C00B9607A603B605BE0BB68B3F5C06F09D1A7
:10704C007B68002B06D1FB681B680C331B78DBB20A
:10705C00FB75FB7D3B68B3F1FF3F49D03B68002BD0
:10706C0007D0FEF761FA02463B6AD21A3B689A4295
:10707C003ED3FB681B68FA681268526822F0E00283
:10708C005A60FB685B68B3F5827F11D1FB689B6823
:10709C00B3F5004F04D0FB689B68B3F5806F07D144
:1070AC00FB681B68FA681268126822F040021A60CA
:1070BC00FB689B6AB3F5005F10D1FB681A68FB682C
:1070CC001B6819684DF6FF730B401360FB681B6857
:1070DC00FA681268126842F400521A60FB680122C6
:1070EC0083F85D20FB68002283F85C20032308E012
:1070FC00FB681B689A68BB681A407B689A429BD1F4
:10710C00002318461837BD4680BD00BF80B586B039
:10711C0002AFF860B9607A607B680093F8684FF44E
:10712C00C0510022BB68FFF77FFF0346002B07D03E
:10713C00FB681B6E43F02002FB681A66032313E006
:10714C007B680093F86880210022BB68FFF702FF80
:10715C000346002B07D0FB681B6E43F02002FB6834
:10716C001A66032300E0002318461037BD4680BD85
:10717C0080B586B000AF786000237B610023FB6094
:10718C000023FB740023BB747B681B6803F400634F
:10719C00002B2FD07B685B6CB3F5000F05D0B3F5DB
:1071AC00400F15D0002B07D00FE05A4A594BDB6823
:1071BC0043F48033D3600CE07B6804331846002121
:1071CC0000F01CFA0346FB7403E00123FB7400E09F
:1071DC0000BFFB7C002B0BD14E494E4BD3F88830B3
:1071EC0023F440027B685B6C1343C1F8883001E0E8
:1071FC00FB7CBB747B681B6803F40033002B00F032
:10720C00988000237B74434B9B6D03F08053002BC1
:10721C000DD1404A3F4B9B6D43F0805393653D4BE2
:10722C009B6D03F08053BB60BB6801237B743A4AAF
:10723C00394B1B6843F480731360FEF775F9F860E3
:10724C0009E0FEF771F90246FB68D31A022B02D94A
:10725C000323FB7405E0304B1B6803F48073002B95
:10726C00EFD0FB7C002B59D12A4BD3F8903003F490
:10727C0040737B617B69002B1ED07B68DA6D7B6968
:10728C009A4219D0234BD3F8903023F440737B618E
:10729C00204A204BD3F8903043F48033C2F890301E
:1072AC001C4A1C4BD3F8903023F48033C2F8903036
:1072BC00184A7B69C2F890307B6903F00103002BFC
:1072CC0016D0FEF731F9F8600BE0FEF72DF9024607
:1072DC00FB68D31A41F28832934202D90323FB7420
:1072EC0006E00C4BD3F8903003F00203002BECD0EB
:1072FC00FB7C002B0BD10749064BD3F8903023F4C1
:10730C0040727B68DB6D1343C1F8903008E0FB7C66
:10731C00BB7405E00010024000700040FB7CBB74A5
:10732C007B7C012B05D18D4A8C4B9B6D23F08053BC
:10733C0093657B681B6803F00103002B0AD0874917
:10734C00864BD3F8883023F003027B681B6A134307
:10735C00C1F888307B681B6803F00203002B0AD04D
:10736C007E497E4BD3F8883023F00C027B685B6A35
:10737C001343C1F888307B681B6803F00403002BAF
:10738C000AD07649754BD3F8883023F030027B68ED
:10739C009B6A1343C1F888307B681B6803F0200399
:1073AC00002B0AD06D496D4BD3F8883023F4406222
:1073BC007B68DB6A1343C1F888307B681B6803F475
:1073CC000073002B0AD06549644BD3F8883023F442
:1073DC0040227B68DB6B1343C1F888307B681B68E9
:1073EC0003F48063002B0AD05C495C4BD3F88830E3
:1073FC0023F440127B681B6C1343C1F888307B6804
:10740C001B6803F04003002B0AD05449534BD3F8AC
:10741C00883023F440527B681B6B1343C1F88830CF
:10742C007B681B6803F08003002B0AD04B494B4B45
:10743C00D3F8883023F440427B685B6B1343C1F86C
:10744C0088307B681B6803F48073002B0AD0434997
:10745C00424BD3F8883023F440327B689B6B134348
:10746C00C1F888307B681B6803F40053002B28D0CC
:10747C003A493A4BD3F8883023F040627B689B6CD6
:10748C001343C1F888307B689B6CB3F1006F06D155
:10749C00324A324BDB6843F48013D36011E07B68D3
:1074AC009B6CB3F1806F0CD17B68043318460121BF
:1074BC0000F0A4F80346FB74FB7C002B01D0FB7C92
:1074CC00BB747B681B6803F40023002B28D0234972
:1074DC00224BD3F8883023F040627B68DB6C13437B
:1074EC00C1F888307B68DB6CB3F1006F06D11B4AA6
:1074FC001A4BDB6843F48013D36011E07B68DB6CC0
:10750C00B3F1806F0CD17B6804331846012100F075
:10751C0075F80346FB74FB7C002B01D0FB7CBB7421
:10752C007B681B6803F48023002B2BD00B490B4B7F
:10753C00D3F8883023F040627B681B6D1343C1F88D
:10754C0088307B681B6DB3F1006F09D1034A034B84
:10755C00DB6843F48013D36014E000BF00100240DA
:10756C007B681B6DB3F1806F0CD17B6804331846BC
:10757C00012100F043F80346FB74FB7C002B01D087
:10758C00FB7CBB747B681B6803F48043002B1CD012
:10759C001949194BD3F8883023F040527B685B6D46
:1075AC001343C1F888307B685B6DB3F1805F0CD1FD
:1075BC007B6804331846022100F020F80346FB7464
:1075CC00FB7C002B01D0FB7CBB747B681B6803F439
:1075DC000043002B0AD00849074BD3F8883023F01E
:1075EC0080427B689B6D1343C1F88830BB7C184686
:1075FC001837BD4680BD00BF0010024090B595B055
:10760C0000AF786039600023BB64002387F84F30EB
:10761C00A24BDB6803F00303002B23D09F4BDB68EA
:10762C0003F003027B681B689A4217D17B681B68C6
:10763C00002B13D0994BDB6803F0700270237B6432
:10764C007B6C93FAA3F33B643B6CB3FA83F322FA9F
:10765C0003F35A1C7B685B689A4252D0012387F86B
:10766C004F304EE07B681B68022B0ED0032B17D0DB
:10767C00012B26D1894B1B6803F00203002B03D18D
:10768C00012387F84F3020E01FE0844B1B6803F484
:10769C008063002B03D1012387F84F3015E014E0F1
:1076AC007E4B1B6803F40033002B09D17B4B1B680A
:1076BC0003F48023002B03D1012387F84F3004E01F
:1076CC0003E0012387F84F3000BF97F84F30002BB1
:1076DC0017D1724C714BDB6823F073027B6819680D
:1076EC007B685B68581E7023FB63FB6B93FAA3F3F8
:1076FC00BB63BB6BB3FA83F300FA03F30B43134383
:10770C00E36097F84F30002B40F0C180634A634B25
:10771C001B6823F080631360FDF706FFB8640AE072
:10772C00FDF702FF0246BB6CD31A022B03D90323CD
:10773C0087F84F3005E0594B1B6803F00063002BB2
:10774C00EED197F84F30002B40F0A1803B68002B16
:10775C0025D1524C514B1B6923F0784323F4FE4343
:10776C007A6891684FF4FE427A637A6B92FAA2F2CD
:10777C003A633A6BB2FA82F291407A68D0684FF071
:10778C007842FA62FA6A92FAA2F2BA62BA6AB2FA67
:10779C0082F200FA02F20A431343236151E03B6880
:1077AC00012B27D13D4C3D4B1B6923F4C00323F423
:1077BC00FE437A6891684FF4FE427A627A6A92FAD2
:1077CC00A2F23A623A6AB2FA82F291407A6812698B
:1077DC005208501E4FF4C002FA61FA6992FAA2F2F2
:1077EC00BA61BA69B2FA82F200FA02F20A4313439E
:1077FC00236126E0294C294B1B6923F0C06323F439
:10780C00FE437A6891684FF4FE427A617A6992FA83
:10781C00A2F23A613A69B2FA82F291407A685269FC
:10782C005208501E4FF0C062FA60FA6892FAA2F247
:10783C00BA60BA68B2FA82F200FA02F20A4313434F
:10784C002361164A154B1B6843F080631360FDF7E8
:10785C006BFEB8640AE0FDF767FE0246BB6CD31AF8
:10786C00022B03D9032387F84F3005E00B4B1B6821
:10787C0003F00063002BEED097F84F30002B06D1AD
:10788C000649064B1A697B689B6913430B6197F891
:10789C004F3018465437BD4690BD00BF0010024013
:1078AC0080B485B000AF78607B6803F00703FB60A1
:1078BC000C4BDB68BB60BA684FF6FF031340BB6030
:1078CC00FB681A02BB68134343F0BF6343F40033F5
:1078DC00BB60044ABB68D3601437BD465DF8047BBB
:1078EC00704700BF00ED00E080B400AF044BDB68D4
:1078FC0003F4E0631B0A1846BD465DF8047B704731
:10790C0000ED00E080B483B000AF0346FB71084982
:10791C0097F907305B09FA7902F01F02012000FA8F
:10792C0002F241F823200C37BD465DF8047B70470A
:10793C0000E100E080B483B000AF0346FB7109495D
:10794C0097F907305B09FA7902F01F02012000FA5F
:10795C0002F2203341F823200C37BD465DF8047B3E
:10796C00704700BF00E100E080B483B000AF034675
:10797C003960FB7197F90730002B0BDA0D49FB7955
:10798C0003F00F03043B3A68D2B21201D2B20B449B
:10799C001A7609E0084997F907303A68D2B2120111
:1079AC00D2B20B4483F800230C37BD465DF8047B40
:1079BC00704700BF00ED00E000E100E080B489B04A
:1079CC0000AFF860B9607A60FB6803F00703FB61F5
:1079DC00FB69C3F10703042B28BF0423BB61FB69BC
:1079EC000433062B02D9FB69033B00E000237B61C7
:1079FC00BB69012202FA03F35A1EBB681A407B6969
:107A0C009A407B69012101FA03F3591E7B680B40F4
:107A1C00134318462437BD465DF8047B704700BFFE
:107A2C0080B582B000AF78607B68013BB3F1807F9A
:107A3C0001D301230FE00A4A7B68013B53604FF0EE
:107A4C00FF300F21FFF790FF054B00229A60044B8B
:107A5C0007221A60002318460837BD4680BD00BFB8
:107A6C0010E000E080B582B000AF78607868FFF776
:107A7C0017FF0837BD4680BD80B586B000AF034602
:107A8C00B9607A60FB7300237B61FFF72DFF78618F
:107A9C007869B9687A68FFF791FF024697F90F3059
:107AAC0018461146FFF760FF1837BD4680BD00BF72
:107ABC0080B582B000AF0346FB7197F907301846CA
:107ACC00FFF720FF0837BD4680BD00BF80B582B0F0
:107ADC0000AF0346FB7197F907301846FFF72AFFF2
:107AEC000837BD4680BD00BF80B582B000AF78605E
:107AFC007868FFF795FF034618460837BD4680BDEA
:107B0C0080B483B000AF78607B68042B06D1094A3F
:107B1C00084B1B6843F00403136005E0054A054B52
:107B2C001B6823F0040313600C37BD465DF8047B1F
:107B3C00704700BF10E000E080B500AF00F002F825
:107B4C0080BD00BF80B400AFBD465DF8047B7047BC
:107B5C0080B483B000AF78600C37BD465DF8047B11
:107B6C00704700BF80B584B000AF78600023FB7312
:107B7C007B6893F82530DBB2022B05D07B6804229E
:107B8C00DA630123FB7327E07B681B687A68126851
:107B9C00126822F00E021A607B681B687A68126801
:107BAC00126822F001021A607B681B6C7A68526CB6
:107BBC00114601228A405A607B68012283F82520F5
:107BCC007B68002283F824207B689B6B002B03D0FE
:107BDC007B689B6B78689847FB7B18461037BD46D3
:107BEC0080BD00BF80B58CB002AF7860012387F8F0
:107BFC002730FDF799FC38627B68002B01D10123FB
:107C0C0097E07B6893F83830DBB2012B01D102236B
:107C1C008FE07B68012283F838207B6893F8393039
:107C2C00DBB2002B0BD17B68002283F838207868FC
:107C3C00FAF742FA786841F2883100F081F87B68F3
:107C4C001B687A681268126822F470617A6892680C
:107C5C00501E4FF47062FA61FA6992FAA2F2BA619C
:107C6C00BA69B2FA82F200FA02F20A431A607B682D
:107C7C001B6C00937868202100223B6A00F06EF8A0
:107C8C00034687F8273097F82730002B4BD17B68B9
:107C9C001A687B681B681B6823F07F4323F0D003B2
:107CAC00796848684FF07F417961796991FAA1F15F
:107CBC0039613969B1FA81F188407968C96808433A
:107CCC007968C96908437968096A01430B431360F1
:107CDC007B681A687B681B685968184B0B4079687D
:107CEC0008694FF4F811F960F96891FAA1F1B960DB
:107CFC00B968B1FA81F188407968496908437968B3
:107D0C00896901430B4353607B681B687A6812686E
:107D1C00126842F001021A607B680022DA637B6809
:107D2C00012283F839207B68002283F8382097F8E9
:107D3C00273018462837BD4680BD00BFFEF8E0FF4F
:107D4C0080B483B000AF786039607B683A681A649D
:107D5C000C37BD465DF8047B704700BF80B584B01E
:107D6C0000AFF860B9603B601346FB711AE0BB6969
:107D7C00B3F1FF3F16D0BB69002B07D0FDF7D4FB46
:107D8C0002463B68D21ABB699A420BD9FB680422A3
:107D9C0083F83920FB68DB6B43F00102FB68DA6384
:107DAC0001230EE0FB681B689A68BB681340002B2C
:107DBC0014BF01230023DBB21A46FB799A42D6D1B9
:107DCC00002318461037BD4680BD00BF80B584B077
:107DDC0000AFF860B9601346FB71FB68002B01D152
:107DEC0002231AE0FB68D3F81432002B03D0FB6893
:107DFC000022C3F81422BB68002B03D0FB68BA68BE
:107E0C00C3F81022FB68012283F8FC21FB68FA7985
:107E1C001A70F868F9F7F2FD002318461037BD46C2
:107E2C0080BD00BF80B485B000AF7860396000239E
:107E3C00FB733B68002B06D07B683A68C3F81422AE
:107E4C000023FB7301E00223FB73FB7B1846143702
:107E5C00BD465DF8047B704780B582B000AF78609A
:107E6C007868F9F735FE002318460837BD4680BD03
:107E7C0080B483B000AF7860002318460C37BD4641
:107E8C005DF8047B704700BF80B584B000AF7860AC
:107E9C000B46FB700223FB737B68D3F81432002B68
:107EAC000CD07B68D3F814321B68FA7878681146CA
:107EBC0098470346002B01D10023FB73FB7B18462C
:107ECC001037BD4680BD00BF80B582B000AF786072
:107EDC000B46FB707B68D3F814325B68FA787868D1
:107EEC0011469847002318460837BD4680BD00BF91
:107EFC0080B582B000AF786039607B6803F502739F
:107F0C001846396800F08EFD7B680122C3F8F42115
:107F1C007B68B3F80E321A467B68C3F8F8217B688D
:107F2C0093F8083203F01F03012B0BD0022B11D056
:107F3C00002B17D17B6803F502737868194600F0A3
:107F4C008FF91AE07B6803F502737868194600F024
:107F5C00D7F912E07B6803F502737868194600F0D4
:107F6C0003FA0AE07B6893F8083223F07F03DBB254
:107F7C0078681946F9F7EAFD00BF00231846083760
:107F8C00BD4680BD80B586B000AFF8600B467A6008
:107F9C00FB72FB7A002B38D1FB6803F582737B6193
:107FAC00FB68D3F8F431032B42D17B699A687B6967
:107FBC00DB689A4214D97B699A687B69DB68D21AB0
:107FCC007B699A607B69DA687B699B68934228BFFE
:107FDC0013469BB2F86879681A4600F015FE27E044
:107FEC00FB68D3F814321B69002B0AD0FB6893F89A
:107FFC00FC31032B05D1FB68D3F814321B69F868EC
:10800C009847F86800F012FE12E0FB68D3F81432BF
:10801C009B69002B0CD0FB6893F8FC31032B07D128
:10802C00FB68D3F814329B69FA7AF86811469847C2
:10803C00002318461837BD4680BD00BF80B586B0FA
:10804C0000AFF8600B467A60FB72FB7A002B6CD1A8
:10805C00FB6814337B61FB68D3F8F431022B57D1E6
:10806C007B699A687B69DB689A4215D97B699A6847
:10807C007B69DB68D21A7B699A607B699B689BB2CF
:10808C00F86879681A4600F08FFDF8680021002224
:10809C000023F9F7D7FD3BE07B695B687A69D2680E
:1080AC00B3FBF2F102FB01F29B1A002B1CD17B6992
:1080BC005A687B69DB689A4216D37B695A68FB68FD
:1080CC00D3F8F8319A420FD2F8680021002200F060
:1080DC006BFDFB680022C3F8F821F8680021002230
:1080EC000023F9F7AFFD13E0FB68D3F81432DB681B
:1080FC00002B0AD0FB6893F8FC31032B05D1FB68ED
:10810C00D3F81432DB68F8689847F86800F0A2FDE1
:10811C00FB6893F80032012B1AD1F868FFF7A8FE20
:10812C00FB68002283F8002212E0FB68D3F81432BB
:10813C005B69002B0CD0FB6893F8FC31032B07D147
:10814C00FB68D3F814325B69FA7AF86811469847E1
:10815C00002318461837BD4680BD00BF80B582B0DD
:10816C0000AF78607868002100224023F9F7C0FC4A
:10817C007B684022C3F810217868802100224023BC
:10818C00F9F7B6FC7B6840221A627B68012283F8FF
:10819C00FC217B68D3F81832002B09D07B68D3F80C
:1081AC0014325B687A685268D2B278681146984784
:1081BC00002318460837BD4680BD00BF80B483B08D
:1081CC0000AF78600B46FB707B68FA781A7400235A
:1081DC0018460C37BD465DF8047B704780B483B0FD
:1081EC0000AF78607B6893F8FC217B6883F8FD21F5
:1081FC007B68042283F8FC21002318460C37BD460B
:10820C005DF8047B704700BF80B483B000AF78602A
:10821C007B6893F8FD217B6883F8FC2100231846CA
:10822C000C37BD465DF8047B704700BF80B582B04B
:10823C0000AF78607B6893F8FC31032B0BD17B6823
:10824C00D3F81432DB69002B05D07B68D3F81432D9
:10825C00DB6978689847002318460837BD4680BD0F
:10826C0080B584B000AF786039600023FB733B6845
:10827C005B78092B39D801A252F823F0D982000877
:10828C00ED820008F7820008E3820008F7820008FC
:10829C00BB820008B1820008F7820008CF82000878
:1082AC00C58200087868396800F036F922E07868F1
:1082BC00396800F051FA1DE07868396800F08AFAE4
:1082CC0018E07868396800F00FFB13E078683968BB
:1082DC0000F03CFB0EE07868396800F061FB09E0C7
:1082EC007868396800F076FB04E07868396800F04B
:1082FC00D5FB00BFFB7B18461037BD4680BD00BFC9
:10830C0080B584B000AF786039600023FB737B6864
:10831C0093F8FC31032B1CD13B689B88DBB2012BFF
:10832C0011D87B68D3F814329B6878683968984701
:10833C003B68DB88002B0BD1FB7B002B08D17868CA
:10834C0000F074FC0AE07868396800F0A7FB05E0DF
:10835C0004E07868396800F0A1FB00BF00231846E0
:10836C001037BD4680BD00BF80B584B000AF7860CB
:10837C0039600023FB733B689B88BB733B681B789D
:10838C0003F06003202B08D17B68D3F814329B6870
:10839C007868396898470023B9E03B685B78012B13
:1083AC0039D0032B02D0002B6AD0AFE07B6893F856
:1083BC00FC31022B02D0032B0DD026E0BB7B002B13
:1083CC0008D0BB7B802B05D0BB7B78681946F9F7AE
:1083DC00BDFB1FE01EE03B685B88002B0AD1BB7B1A
:1083EC00002B07D0BB7B802B04D0BB7B7868194655
:1083FC00F9F7ACFB7B68D3F814329B687868396862
:10840C009847786800F012FC04E07868396800F04E
:10841C0045FB00BF7AE07B6893F8FC31022B02D05D
:10842C00032B0DD026E0BB7B002B08D0BB7B802B15
:10843C0005D0BB7B78681946F9F788FB1FE01EE076
:10844C003B685B88002B14D1BB7B03F07F03002BB4
:10845C000BD0BB7B78681946F9F78CFB7B68D3F89B
:10846C0014329B68786839689847786800F0DEFBAE
:10847C0005E004E07868396800F010FB00BF45E0C7
:10848C007B6893F8FC31022B02D0032B0CD037E025
:10849C00BB7B03F07F03002B05D0BB7B78681946B0
:1084AC00F9F754FB31E030E0BB7B5BB2002B08DA10
:1084BC00BB7B03F07F0301331B017A681344043345
:1084CC0007E0BB7B03F07F0310331B017A68134476
:1084DC000433BB60BB7B78681946F9F75FFB034636
:1084EC00002B03D0BB6801221A6002E0BB6800229B
:1084FC001A60BB6878681946022200F039FB04E068
:10850C007868396800F0CAFA00BF00BFFB7B1846D8
:10851C001037BD4680BD00BF80B584B000AF786019
:10852C0039603B685B881B0A9BB2013B0E2B00F247
:10853C00F58001A252F823F09B850008B585000850
:10854C00F58500082987000829870008D5860008CA
:10855C00FB8600082987000829870008298700085E
:10856C00298700082987000829870008298700081F
:10857C00818500087B68D3F81032DB697A68117C3E
:10858C0007F10A02084611469847F860CBE07B6871
:10859C00D3F810321B687A68117C07F10A0208467E
:1085AC0011469847F860BEE07B681B7C002B0DD110
:1085BC007B68D3F814329B6A07F10A02104698477D
:1085CC00F860FB68013302221A70ACE07B68D3F8C8
:1085DC001432DB6A07F10A0210469847F860FB6810
:1085EC00013302221A709EE03B685B88DBB2052BDC
:1085FC005CD801A252F823F01D86000837860008CB
:10860C00518600086B860008858600089F86000846
:10861C007B68D3F810325B687A68117C07F10A0228
:10862C00084611469847F8604DE07B68D3F8103245
:10863C009B687A68117C07F10A0208461146984734
:10864C00F86040E07B68D3F81032DB687A68117C04
:10865C0007F10A02084611469847F86033E07B6838
:10866C00D3F810321B697A68117C07F10A020846AC
:10867C0011469847F86026E07B68D3F810325B69A6
:10868C007A68117C07F10A02084611469847F8608F
:10869C0019E07B68D3F810329B697A68117C07F17A
:1086AC000A02084611469847F8600CE07B68D3F83C
:1086BC0014329B6B3A685288D1B207F10A0278687F
:1086CC009847F86000BF2EE07B681B7C002B09D11B
:1086DC007B68D3F814325B6B07F10A02104698479B
:1086EC00F86020E07868396800F0D8F930E07B68F1
:1086FC001B7C002B0DD17B68D3F814321B6B07F15C
:10870C000A0210469847F860FB68013307221A707A
:10871C0009E07868396800F0C1F919E078683968BF
:10872C0000F0BCF914E07B89002B11D03B68DB888E
:10873C00002B0DD03B68DA887B89934228BF134607
:10874C009BB27B817B897868F9681A4600F010FA35
:10875C001037BD4680BD00BF80B584B000AF7860D7
:10876C0039603B689B88002B2DD13B68DB88002B44
:10877C0029D13B685B88DBB203F07F03FB737B681A
:10878C0093F8FC31032B04D17868396800F086F932
:10879C0018E07B68FA7B83F8FE21FB7B786819462E
:1087AC00F9F722FA786800F041FAFB7B002B04D031
:1087BC007B68022283F8FC2104E07B68012283F8A9
:1087CC00FC2104E003E07868396800F067F91037A1
:1087DC00BD4680BD80B582B000AF786039603B6823
:1087EC005B88DAB23F4B1A703E4B1B78012B04D9D5
:1087FC007868396800F052F970E07B6893F8FC31C6
:10880C00022B02D0032B23D063E0364B1B78002BBA
:10881C001AD0344B1B781A467B685A607B6803224B
:10882C0083F8FC212F4B1B7878681946FFF72CFB3B
:10883C000346022B04D17868396800F02FF94DE01B
:10884C00786800F0F3F949E0786800F0EFF945E05A
:10885C00244B1B78002B12D17B68022283F8FC215D
:10886C00204B1B781A467B685A601E4B1B78786825
:10887C001946FFF729FB786800F0D8F928E0194B66
:10888C001B781A467B685B689A421DD07B685B68D4
:10889C00DBB278681946FFF717FB124B1B781A46A8
:1088AC007B685A600F4B1B7878681946FFF7ECFA17
:1088BC000346022B04D17868396800F0EFF80DE01C
:1088CC00786800F0B3F903E0786800F0AFF905E0E0
:1088DC0004E07868396800F0E1F800BF0837BD465D
:1088EC0080BD00BF3C0C002080B582B000AF78602A
:1088FC0039603B68DB88012B04D07868396800F05C
:10890C00CDF81FE07B6893F8FC31022B02D0032BCF
:10891C000BD012E07B6800229A607B680833786881
:10892C001946012200F024F90CE07B6804337868C6
:10893C001946012200F01CF904E07868396800F04F
:10894C00ADF800BF0837BD4680BD00BF80B582B012
:10895C0000AF786039607B6893F8FC31023B012BE7
:10896C0015D87B680122DA607B68D3F80432002BBF
:10897C0005D07B68DB6843F002027B68DA607B68B9
:10898C000C3378681946022200F0F2F804E078689B
:10899C00396800F083F800BF0837BD4680BD00BFC2
:1089AC0080B582B000AF786039603B685B88012B82
:1089BC000DD17B680122C3F804227B68D3F81432F2
:1089CC009B68786839689847786800F02FF9083701
:1089DC00BD4680BD80B582B000AF786039607B68E1
:1089EC0093F8FC31023B012B13D83B685B88012BBD
:1089FC000ED17B680022C3F804227B68D3F81432B2
:108A0C009B68786839689847786800F00FF905E03A
:108A1C0004E07868396800F041F800BF0837BD46BB
:108A2C0080BD00BF80B483B000AF786039603B6814
:108A3C001A787B681A703B685A787B685A703B6866
:108A4C0002331B789AB23B6803331B789BB21B0230
:108A5C009BB213449AB27B685A803B6804331B78F0
:108A6C009AB23B6805331B789BB21B029BB2134432
:108A7C009AB27B689A803B6806331B789AB23B6843
:108A8C0007331B789BB21B029BB213449AB27B68D0
:108A9C00DA800C37BD465DF8047B704780B582B038
:108AAC0000AF7860396078688021F9F74FF8786802
:108ABC000021F9F74BF80837BD4680BD80B586B06C
:108ACC0000AFF860B9607A600023FB75FB68002B7F
:108ADC0033D0F86800F034F8034601339BB25B00E6
:108AEC009AB27B681A80FB7D5A1CFA751A46BB68D1
:108AFC0013447A681288D2B21A70FB7D5A1CFA752C
:108B0C001A46BB68134403221A7012E0FB7D5A1CF0
:108B1C00FA751A46BB681A44FB68591CF9601B7835
:108B2C001370FB7D5A1CFA751A46BB68134400225D
:108B3C001A70FB681B78002BE8D11837BD4680BD36
:108B4C0080B485B000AF78600023FB7305E0FB7B3D
:108B5C000133FB737B6801337B607B681B78002BD4
:108B6C00F5D1FB7B18461437BD465DF8047B704786
:108B7C0080B584B000AFF860B9601346FB80FB6829
:108B8C000222C3F8F421FA88FB689A61FA88FB6820
:108B9C00DA61FB88F8680021BA68F9F739F8002324
:108BAC0018461037BD4680BD80B584B000AFF86064
:108BBC00B9601346FB80FB88F8680021BA68F9F7A6
:108BCC0027F8002318461037BD4680BD80B584B009
:108BDC0000AFF860B9601346FB80FB680322C3F852
:108BEC00F421FA88FB68C3F80821FA88FB68C3F8FB
:108BFC000C21FB88F8680021BA68F9F723F80023E8
:108C0C0018461037BD4680BD80B584B000AFF86003
:108C1C00B9601346FB80FB88F8680021BA68F9F745
:108C2C0011F8002318461037BD4680BD80B582B0C0
:108C3C0000AF78607B680422C3F8F42178680021C7
:108C4C0000220023F8F7E4FF002318460837BD463E
:108C5C0080BD00BF80B582B000AF78607B68052214
:108C6C00C3F8F4217868002100220023F8F7EAFF0A
:108C7C00002318460837BD4680BD00BF80B584B0C0
:108C8C0000AF78600B46FB700023FB737B681B7C8A
:108C9C00002B0ED17868812102224FF40073F8F773
:108CAC0027FF7868012102224FF40073F8F720FFA8
:108CBC000BE07868812102224023F8F719FF7868CD
:108CCC00012102224023F8F713FF78688221032246
:108CDC000823F8F70DFF4FF40770F9F717F8024661
:108CEC007B68C3F818227B68D3F81832002B02D1AA
:108CFC000123FB7328E07B68D3F81832BB607B68D8
:108D0C00D3F81C321B689847BB680022C3F81422A6
:108D1C00BB680022C3F818227B681B7C002B0AD18D
:108D2C00BB68D3F80432786801211A464FF40073FB
:108D3C00F8F788FF08E0BB68D3F8043278680121A3
:108D4C001A464023F8F77EFFFB7B18461037BD46CA
:108D5C0080BD00BF80B584B000AF78600B46FB705F
:108D6C000023FB7378688121F8F7DCFE7868012119
:108D7C00F8F7D8FE78688221F8F7D4FE7B68D3F830
:108D8C001832002B0ED07B68D3F81C325B689847E6
:108D9C007B68D3F818321846F8F7C6FF7B680022B8
:108DAC00C3F81822FB7B18461037BD4680BD00BFA8
:108DBC0080B584B000AF786039607B68D3F8183226
:108DCC00FB603B681B7803F06003002B3ED0202B2C
:108DDC0000D047E03B68DB88002B2CD03B681B782D
:108DEC00DBB25BB2002B12DA7B68D3F81C329B68C7
:108DFC003A685078F9683A68D2889847FA683B68BC
:108E0C00DB88786811461A46FFF7B2FE2BE03B6808
:108E1C005A78FB6883F800223B68DB88DAB2FB687F
:108E2C0083F80122FA683B68DB88786811461A4699
:108E3C00FFF7CCFE17E07B68D3F81C329B683A68CE
:108E4C00527810463968002298470CE03B685B78F2
:108E5C000A2B01D00B2B05E0786805490122FFF79E
:108E6C0087FE00BF00BF002318461037BD4680BDEB
:108E7C003D0C002080B485B000AF78600B46FB70D1
:108E8C007B68D3F81832FB607B68D3F81832002B60
:108E9C0005D0FB680022C3F81422002300E0022353
:108EAC0018461437BD465DF8047B704780B584B016
:108EBC0000AF78600B46FB707B68D3F81832FB6010
:108ECC00FB7878681946F8F7D7FE0246FB68C3F8BA
:108EDC000C227B68D3F81832002B0ED07B68D3F8A9
:108EEC001C32DB68FA68D2F80412FA6802F50372D5
:108EFC00084611469847002300E002231846103715
:108F0C00BD4680BD80B584B000AF78607B68D3F877
:108F1C001832FB607B68D3F81C32002B15D0FB6831
:108F2C0093F80032FF2B10D07B68D3F81C329B686F
:108F3C00FA6892F80002F968FA6892F8012292B283
:108F4C009847FB68FF2283F800220023184610374D
:108F5C00BD4680BD80B483B000AF78607B6843228F
:108F6C001A80034B18460C37BD465DF8047B7047DE
:108F7C00E400002080B483B000AF78607B684322AB
:108F8C001A80034B18460C37BD465DF8047B7047BE
:108F9C00A000002080B483B000AF78607B684322CF
:108FAC001A80034B18460C37BD465DF8047B70479E
:108FBC002801002080B483B000AF78607B680A225F
:108FCC001A80034B18460C37BD465DF8047B70477E
:108FDC005800002080B485B000AF7860396002235F
:108FEC00FB733B68002B05D07B683A68C3F81C22E6
:108FFC000023FB73FB7B18461437BD465DF8047BDE
:10900C00704700BF80B487B000AFF860B9601346FA
:10901C00FB80FB68D3F818327B617B69BA68C3F8B4
:10902C000822FA887B69C3F81022002318461C37E3
:10903C00BD465DF8047B704780B485B000AF7860A6
:10904C0039607B68D3F81832FB60FB683A68C3F868
:10905C000422002318461437BD465DF8047B704784
:10906C0080B584B000AF78607B68D3F81832FB60B1
:10907C007B68D3F81832002B17D0FB68D3F8143266
:10908C00002B10D1FB680122C3F81422FB68D3F823
:10909C000822FB68D3F810329BB278688121F8F76C
:1090AC00B7FD002302E0012300E00223184610372D
:1090BC00BD4680BD80B584B000AF78607B68D3F8C6
:1090CC001832FB607B68D3F81832002B19D07B6800
:1090DC001B7C002B0AD1FB68D3F804327868012181
:1090EC001A464FF40073F8F7ADFD08E0FB68D3F8AF
:1090FC000432786801211A464023F8F7A3FD0023B7
:10910C0000E0022318461037BD4680BD0146002002
:10911C000246034600F03EB838B5084B084DED1A30
:10912C00AC1018BFED1805D0013C55F8043D98471C
:10913C00002CF9D1BDE8384000F04CB9FC93000884
:10914C000094000870B50F4E0F4D761BB61018BF6B
:10915C00002405D0013455F8043B9847A642F9D1B8
:10916C000A4E0B4D00F030F9761BB61018BF0024D8
:10917C0006D0013455F8043B9847A642F9D170BD8E
:10918C0070BD00BFF4930008F4930008FC93000832
:10919C00F49300082DE9F047254C064625688846CF
:1091AC00D5F8484192469946C4B360681F2817DC2D
:1091BC00411C76B104EB8003C3F888A0D4F8885125
:1091CC00012282401543022EC4F88851C3F808913D
:1091DC001ED0831C6160002044F82380BDE8F0871A
:1091EC00144B03B34FF4C870AFF300800446D0B1F6
:1091FC00D5F84831002784E888003846C5F848413E
:10920C000121C4F88871C4F88C71002EE1D0D1E72B
:10921C00D4F88C311A43C4F88C21DAE705F5A6741E
:10922C00C5F84841C1E74FF0FF30BDE8F08700BFFB
:10923C00D093000800000000024B13B10248FFF766
:10924C0065BF704700000000259100080D0000006C
:10925C0055415254204572726F72210A0000000071
:10926C004669666F206F766572666C6F77210A00AF
:10927C003C496365626F6F7420302E343E200000D1
:10928C0043444F4E45206E6F74207365740A000082
:10929C00436F6E66696720646F6E650A000000009C
:1092AC00435243206572726F722E2E000A0000002A
:1092BC0050726F6772616D6D696E672066726F6D4B
:1092CC0020666C6173680A00726573657420666150
:1092DC00696C65640A0000007262697473206661CF
:1092EC00696C65640A000000636F6E666967646F81
:1092FC006E65206661696C65640A0000536574755F
:10930C007020646F6E650A0057616974696E67201E
:10931C00666F72205553422073657269616C0A0046
:10932C0053544D3332205669727475616C20436FFF
:10933C006D506F727400000053544D6963726F6509
:10934C006C656374726F6E6963730000303030301B
:10935C003030303030303141000000004344432085
:10936C00436F6E666967000043444320496E746521
:10937C0072666163650000000000000000000000E0
:10938C00010203040607080900000000010203049F
:10939C00A0860100400D0300801A060000350C0069
:1093AC0040420F0080841E0000093D0000127A002C
:1093BC000024F40000366E010048E801006CDC0269
:1093CC004300000070010020F8B500BFF8BC08BCD9
:1093DC009E467047F8B500BFF8BC08BC9E46704767
:0893EC002C6FFF7F010000005F
:0893F400459200084D0200083B
:0493FC00250200083E
:10940000F91600082517000839170008F917000891
:10941000811D0008A51D0008051E0008C91D0008C3
:109420002D1E0008691E0008A51E0008E11E000888
:1094300012010102020200408304405700020102AF
:1094400003010000050F0C000107100202000000DC
:109450000403090400093D000A0600020000004060
:1094600001000000898C0008618D0008BD8D000896
:1094700000000000118F0008818E0008B98E0008DE
:10948000000000000000000000000000818F0008C4
:10949000618F0008A18F0008C18F00080000000044
:1094A00009024300020100C0320904000001020267
:1094B000010005240010010524010001042402021A
:1094C00005240600010705820308001009040100B5
:1094D000020A0000000705010200020007058102E0
:1094E0000002000009024300020100C0320904002A
:1094F0000001020201000524001001052401000101
:109500000424020205240600010705820308001056
:1095100009040100020A00000007050102400000E2
:10952000070581024000000009074300020104C052
:1095300032090400000102020100052400100105A7
:10954000240100010424020205240600010705820B
:10955000030800FF09040100020A000000070501DA
:1095600002400000070581024000000000000000EA
:10957000000000005C040020C40400202C05002032
:1095800000000000000000000000000000000000DB
:1095900000000000000000000000000000000000CB
:1095A00000000000CC930008000000000000000054
:1095B00000000000000000000000000000000000AB
:1095C000000000000000000000000000000000009B
:1095D000000000000000000000000000000000008B
:1095E000000000000000000000000000000000007B
:1095F000000000000000000000000000000000006B
:10960000000000000000000000000000000000005A
:109610000000000000000000010000000000000049
:109620000E33CDAB34126DE6ECDE05000B0000000E
:10963000000000000000000000000000000000002A
:10964000000000000000000000000000000000001A
:10965000000000000000000000000000000000000A
:1096600000000000000000000000000000000000FA
:040000050800018D61
:00000001FF
