:020000040800F2
:1000000000000220212300082D0A00082F0A000802
:10001000310A0008330A0008350A00080000000011
:10002000000000000000000000000000370A000887
:10003000390A0008000000003B0A00083D0A0008D9
:100040006523000865230008652300086523000870
:100050006523000865230008652300086523000860
:100060006523000865230008652300086523000850
:100070006523000865230008652300086523000840
:100080006523000865230008652300086523000830
:100090006523000865230008652300086523000820
:1000A0006523000865230008652300086523000810
:1000B0006523000865230008652300086523000800
:1000C00065230008652300086523000865230008F0
:1000D00065230008652300086523000865230008E0
:1000E00065230008652300086523000865230008D0
:1000F00065230008652300086523000865230008C0
:1001000065230008652300086523000865230008AF
:10011000652300086523000865230008652300089F
:10012000652300086523000865230008652300088F
:10013000652300086523000865230008652300087F
:10014000652300086523000865230008652300086F
:10015000652300086523000865230008652300085F
:10016000652300086523000865230008652300084F
:10017000652300086523000865230008652300083F
:08018000652300086523000857
:1001A000044B05481B1A062B02D9044B03B1184710
:1001B000704700BF8B080020880800200000000066
:1001C00005490648091A891001EBD171491002D07E
:1001D000034B03B1184770478808002088080020A7
:1001E0000000000010B5064C237843B9FFF7D8FF94
:1001F000044B13B10448AFF300800123237010BDFA
:100200008808002000000000344F000808B5084BA3
:100210001BB108480849AFF300800848036813B9C8
:10022000BDE80840CCE7064B002BF9D09847F7E72C
:1002300000000000344F00088C08002084080020D3
:1002400000000000134B002B08BF114B9D46A3F587
:10025000803A00218B460F461148124A121A03F0C9
:1002600015FE0D4B002B00D098470C4B002B00D0F7
:1002700098470020002104000D000B4803F010FBFC
:1002800003F03AFB2000290002F0E2F803F00EFB35
:100290000000080000000000000000000000000056
:1002A00088080020E8120020CD3800084C530008D0
:1002B000000000208408002088080020E8120020A8
:1002C00040F0BF60024B40F40030D860704700BF80
:1002D00000ED00E0C278037810B512B3164AD16879
:1002E0004278C943C1F30221C1F10404E4B2A2403F
:1002F000D4B20F220A4181780A40224303F16043BD
:1003000003F561431201D2B283F80023037801227E
:10031000590903F01F0302FA03F3084A42F8213097
:1003200010BD5A09012103F01F03994002F1200377
:10033000024A42F8231010BD00ED00E000E100E0A9
:1003400021F0604121F07F01014B08439860704724
:1003500000ED00E0044B1A6909B1104301E022EA04
:1003600000001861704700BF00ED00E0044B1A6800
:1003700004280CBF42F0040222F004021A60704705
:1003800010E000E0344B1A68002142F001021A60CC
:1003900099601A6822F0847222F480321A602F4A1F
:1003A0005A601A6882B022F480221A60D9600091E3
:1003B00001911A6842F480321A60274B1A6802F4DD
:1003C00000320192009A01320092019A1AB9009A01
:1003D000B2F5A06FF1D11B6813F4003318BF0123ED
:1003E0000193019B012B05D01D4B4FF000629A60D9
:1003F00002B07047184B1B491A6C42F080521A64C5
:100400000A6842F480420A609A689A609A6842F4E4
:1004100000429A609A6842F4A0529A60124A5A6066
:100420001A6842F080721A6019680B4A8901FBD57C
:100430000E4B40F205611960936823F0030393604B
:10044000936843F002039360034B9B6803F00C0333
:10045000082BF9D1C8E700BF003802401030002453
:1004600000ED00E00070004008544007003C0240EE
:10047000174A1849936803F00C03042B03D0082B88
:1004800003D0154B18E0154B16E05068536810F474
:10049000800F03F03F03506814BF104A0E4AB2FBAE
:1004A000F3F30B4A5268C2F30142C0F388100132E1
:1004B00043435200B3FBF2F30B60054B9B68C3F35D
:1004C00003130B441A790B68D3400B60704700BFCD
:1004D00000380240040000200024F40000127A00DA
:1004E0000A4B1A68002142F001021A6099601A68EA
:1004F00022F0847222F480321A60054A5A601A6827
:1005000022F480221A60D960704700BF0038024090
:1005100010300024024B00221A701870704700BF80
:1005200002380240034A136823F0F80343EAC0008C
:100530001060704700380240014B1860704700BFE0
:1005400000004742064B002201281A701A7002D0A0
:10055000042802D070471870704705221A7070473F
:1005600070380240014B1860704700BF800E474250
:1005700010B5029C40EA046001435B08013B41EA7C
:10058000821242EA0340014B586010BD003802401D
:10059000014B1860704700BF600047420907034BDA
:1005A00041EA8010C3F88400704700BF0038024061
:1005B000014B1860704700BF68004742014B18604C
:1005C000704700BF4C004742034A936823F0EC6336
:1005D000194308439060704700380240034A93680B
:1005E00023F0784319430843906070470038024075
:1005F000034A936823F0030318439060704700BFD9
:1006000000380240024B986800F00C00704700BFB1
:1006100000380240034A936823F0F00318439060C7
:10062000704700BF00380240034A936823F4E05348
:1006300018439060704700BF00380240034A936837
:1006400023F4604343EAC0009060704700380240E2
:100650001D4A936803F00C03042B10B503D0082B3C
:1006600003D01A4B18E01A4B16E05168536811F486
:10067000800F03F03F03516814BF154A134AB2FBC1
:10068000F3F3114A5268C2F30142C1F388110132F7
:100690004B435200B3FBF2F30B4A036093680D49DE
:1006A000C3F30313CC5C0368E34043609468C4F372
:1006B00082240C5D23FA04F484609268C2F342320F
:1006C0008A5CD340C36010BD003802400024F400AF
:1006D00000127A001800002000F44073094AB3F5B4
:1006E000407F01BF936820F0704123F4F81321F498
:1006F000407104BF0B439360136FC0F30B001843AA
:100700001067704700380240014B1860704700BF07
:100710003C0E4742014B1860704700BF400E4742F5
:10072000014B1860704700BF5C014742044B1A6BD5
:1007300009B1104301E022EA00001863704700BFCE
:1007400000380240044B5A6B09B1104301E022EA21
:1007500000005863704700BF00380240044B9A6B9A
:1007600009B1104301E022EA00009863704700BF1E
:1007700000380240044B1A6C09B1104301E022EA30
:1007800000001864704700BF00380240044B5A6CE8
:1007900009B1104301E022EA00005864704700BF2D
:1007A00000380240044B1A6909B1104301E022EA03
:1007B00000001861704700BF00380240044B5A69BE
:1007C00009B1104301E022EA00005861704700BF00
:1007D00000380240044B9A6909B1104301E022EA53
:1007E00000009861704700BF00380240044B1A6A4D
:1007F00009B1104301E022EA00001862704700BF0F
:1008000000380240044B5A6A09B1104301E022EA61
:1008100000005862704700BF00380240044B1A6D58
:1008200009B1104301E022EA00001865704700BFDB
:1008300000380240044B5A6D09B1104301E022EA2E
:1008400000005865704700BF00380240044B9A6DA5
:1008500009B1104301E022EA00009865704700BF2B
:1008600000380240044B1A6E09B1104301E022EA3D
:1008700000001866704700BF00380240044B5A6EF3
:1008800009B1104301E022EA00005866704700BF3A
:1008900000380240044B1A7809B1104301E022EA03
:1008A00000001870704700BF0D3802404209012A4D
:1008B000074B01D11B6803E0022A0CBF1B6F5B6F63
:1008C00000F01F0023FA00F000F00100704700BFA5
:1008D0000038024007B5002301933120FFF7E6FFFF
:1008E000019B01330193019BB3F5A06F01D0002858
:1008F000F3D03120FFF7DAFF003018BF012003B03A
:100900005DF804FB024A536F43F0807353677047EE
:1009100000380240034BDB68184214BF012000205E
:10092000704700BF00380240014B1870704700BF8D
:100930000E380240044B00221A605A609A60DA6056
:10094000024A5A61704700BF003C0140FFFF7F0030
:1009500082790168037970B5002A29D0194A15688F
:10096000CE4335401560546803F1804303F59E3350
:10097000344054601C682143196003689468DD4367
:100980002C409460D1682940D160417910290BBF77
:10099000916801F18042194302F59E3205BF9160D2
:1009A000D16811680B4316BF0B43D360136070BD51
:1009B00003F1804303F59E331A6822EA01011960AE
:1009C00070BD00BF003C014000230C220360037196
:1009D000427183717047024A13691843106170476E
:1009E000003C0140034B5B69184214BF012000200A
:1009F000704700BF003C0140014B5861704700BF89
:100A0000003C0140054B1A685B69034004D010426A
:100A100014BF01200020704718467047003C014079
:100A2000014B5861704700BF003C01407047FEE732
:100A3000FEE7FEE7FEE7704770477047704700002B
:100A400008B54FF480400121FFF7DCFE4FF48040F1
:100A50000021BDE80840FFF7D5BE014B1860704784
:100A60000038014001F0030301F0FC0101F1804175
:100A700001F59C3110B59B008C680F229A4024EA46
:100A800002028A608A68984002438A6010BD014B66
:100A900018607047DC002742014B1860704700BFA8
:100AA00000042742024B186AC0F30020704700BFC1
:100AB0000038014008B52C4B984205D10120014671
:100AC000FFF770FE012048E0284B984205D1022034
:100AD0000121FFF767FE02203FE0254B984205D138
:100AE00004200121FFF75EFE042036E0214B9842EE
:100AF00005D108200121FFF755FE08202DE01E4BEF
:100B0000984205D110200121FFF74CFE102024E06F
:100B10001A4B984205D120200121FFF743FE2020E7
:100B20001BE0174B984205D140200121FFF73AFE08
:100B3000402012E0134B984205D180200121FFF79D
:100B400031FE802009E0104B98420BD14FF48070A9
:100B50000121FFF727FE4FF480700021BDE8084017
:100B6000FFF720BE08BD00BF0000024000040240A5
:100B700000080240000C0240001002400014024035
:100B800000180240001C024000200240F0B50E6830
:100B900000220123934003EA060E9E452AD1550008
:100BA00003230468AB40DB431C4004600C790768F6
:100BB00004FA05FC013C4CEA0707012C076011D838
:100BC00084684F791C4084608468AF402743876005
:100BD000446824EA0E0444608C7947689440A4B2C7
:100BE0003C434460C4682340C360CB79C468AB40D5
:100BF0002343C3600132102ACBD1F0BD4FF6FF73FF
:100C000003600023037143718371C371704782B025
:100C10004FF480330193019B0B430193019BC3610C
:100C2000C161019BC361C3690193C369019302B0B0
:100C300070470369194214BF012000207047006902
:100C400080B270474369194214BF012000207047E9
:100C5000406980B2704701837047418370470AB191
:100C60000183704741837047416170474369594030
:100C70004161704701F00703C90800EB810010B51E
:100C80009B00046A0F21994024EA01010162016A74
:100C90009A401143016210BD37B50F4C054654F818
:100CA000200004EB45040121FFF740FD238A009357
:100CB00001238DF804308DF8073002238DF80530BC
:100CC000064B002253F825008DF806206946FFF7F1
:100CD0005DFF03B030BD00BF944500082800002030
:100CE000044B53F82020044B03EB4000038A13838A
:100CF000704700BF2800002094450008044B53F8BB
:100D00002020044B03EB4000038A5383704700BF4D
:100D10002800002094450008054B064A53F820108F
:100D200002EB40004B69028A53404B61704700BFA1
:100D3000280000209445000870B50646012086B0C2
:100D40000D460146FFF7F2FC4FF480400121FFF70A
:100D50001DFD174806A900EB86000123002441F879
:100D6000103D00698DF80C408DF80F40FFF70EFF25
:100D7000012D1BD120462146FFF774FE082304A84D
:100D80008DF8153004958DF814408DF81650FFF746
:100D9000DFFD06238DF8043001A80F238DF8053000
:100DA0008DF806308DF80750FFF794FA06B070BD45
:100DB0002800002008B5044B03EB800001210069E6
:100DC000FFF737FF08BD00BF2800002010B504461C
:100DD000083001F0C8FA204601F0C5FA204610BDDF
:100DE000F0B5044685B002AD00F1080720606060F0
:100DF00029468760C76038460295039502F004FBD8
:100E0000284601F0B0FA204641F2715340F8103FF5
:100E1000012302684FF41C7682EA9271B3FBF6F26A
:100E200006FB1232334E013306FB0122B3F51C7F61
:100E300040F8042FEDD1C4F8D03900266FF00043FC
:100E4000C4F8D469C4F8D839CDF800D0CDF804D0AE
:100E50000C2001F067FB002202604260264A52F833
:100E6000262082606946013602F010FB042EEFD185
:100E7000204601F078FA204669462460646002F05A
:100E8000C3FA684601F06FFA0295039526680DE0F3
:100E900068460FE00C2001F045FB00220260426032
:100EA000B2688260294602F0F1FA3668A642F1D1B2
:100EB0000AE0284601F057FA384601F054FA204675
:100EC00001F051FA01F0F4FB384601F04CFA3846D3
:100ED0002946B760F76002F097FA284601F043FA16
:100EE0000123C6F8D43930466FF07F43C6F8D839AD
:100EF00005B0F0BD6589076CBC4500082DE9F041DF
:100F0000846805462046A66802F0C8FA204601F02B
:100F1000EFFAD5F8D429D5F8D8399B1A5A1C05F11F
:100F200010080ED001334FF0FF30B0FBF3F703FB96
:100F300007F4404601F022FAA042FAD2B0FBF7F0E3
:100F400002E0404601F01AFAD5F8D439C4180C2052
:100F500001F0E8FA002202604260846005F10801B5
:100F600002F094FA3046BDE8F08100BF82B00190F3
:100F7000019B5A1E0192002BFAD102B0704700006B
:100F800003685A004CBF43F0004323F00043184469
:100F9000704700BF2DE9F04F83B099B34B1E174641
:100FA000054601939846002606EB080404EBD4742A
:100FB00064104FEAC40A05EB0A0B5846FFF7E0FF3E
:100FC000019B8146A3420AF1080028440ED0FFF796
:100FD000D7FFB94500F1FF3004D9B4420CD004F179
:100FE000FF38E1E7B84203D2661CDDE7B945F4D823
:100FF000584603B0BDE8F08F4FF0000B584603B0E1
:10100000BDE8F08F8B46584603B0BDE8F08F00BFB7
:10101000012807D0022807D0044B00280CBF18462F
:101020000020704702487047024870471D170008AB
:10103000211700082517000830B5244B83B004465B
:101040008D1E7BB3284601A9AFF3008020B3019920
:101050002A46FFF79FFF0546F0B1FFF791FF6B6847
:10106000A064012B12D0002B05F1040020DBFFF758
:1010700087FF0023E06423650368002B1CDBFFF778
:101080007FFF00232061184603B030BD0023236199
:101090000523184603B030BD0023236109231846F9
:1010A00003B030BD0A490B48091AC9100191CFE7B6
:1010B0000123E0642365DFE7C3F30360FFF7A8FFC4
:1010C000002820610CBF09230023DCE7000000009A
:1010D00040530008105100080368DA0710B50446B1
:1010E00006D49B0700F1480009D500F085FC236871
:1010F000590709D51A070ED5DB0613D510BD00F028
:1011000073FC23685907F5D404F1D00000F07CFC8F
:1011100023681A07F0D404F5A87000F07DFC23685A
:10112000DB06EBD404F5E870BDE8104000F0B8BC75
:1011300003680BB118447047184670470920704780
:10114000704700BF70B504460D4608E02B6C636124
:101150000120236921462A469847082808D12046BD
:10116000296CFFF769FF06460028EFD002F090FBDC
:101170000728FBD13046296CFFF7E2FF281D00F05D
:1011800027FC00BF2DE9F0470C1D064617460FCC83
:10119000ADF5727D03AD0FC50FCC0FC50FCC0FC5DC
:1011A00094E80F0002AC4FF0000ED6F80C80D6F891
:1011B000189085E80F003046216CC4F800E0FFF776
:1011C0003BFF002F05460CBF09270A277DB1A36B03
:1011D00047F010018DE81002012063643246334667
:1011E000C04778BB28460DF5727DBDE8F087236CBB
:1011F000736121464FF4F0727AA800F07DFE3369E6
:1012000031467AAA38469847889B82468DE8100274
:1012100039466364012032463346C04790B92046C0
:101220007AA94FF4F07200F067FEBAF1080F06D108
:101230003046216CFFF700FF09270546C6E7BAF1E3
:10124000070F04D009200DF5727DBDE8F087284610
:10125000216CFFF775FF03A800F0BAFB406C7047E4
:10126000F0B5CB6B0B640E1D0F4604460FCEF9B0E4
:1012700001AD0FC50FCE0FC50FCE0FC596E80F00FD
:101280004FF0FF3685E80F00009606E023692146FF
:101290006A4698470828054608D120461099FFF766
:1012A000CBFE0028F2D0092079B0F0BD6846FFF7E8
:1012B00013FF062DF7D120463946FFF743FF00BF45
:1012C00030B4DD6BC160826119461D64002230BC00
:1012D00058E700BF70B5C66843690B6404460D4605
:1012E00026B10122FFF74EFF02F0D2FA0369214630
:1012F00002202A469847072807D0082803D120460D
:101300002946FFF71FFF02F0C3FA3046296CFFF7AA
:1013100017FF281D00F05CFBC2681AB1CA6B0A6493
:1013200000222FE79CE700BF704700BF836813B11E
:10133000014601201847704700B5042907D8DFE8A7
:1013400001F00309060909000BB90F2A05D902208B
:101350005DF804FB01205DF804FB00EB82021846F7
:101360005368019A13605DF804FB00BF00B585B0B7
:101370000A4603AB002100930B46FFF7DDFF0398FD
:1013800005B05DF804FB00BF00B5042907D8DFE80D
:1013900001F00309060909000BB90F2A05D902203B
:1013A0005DF804FB01205DF804FB019900EB82026B
:1013B0000968516018465DF804FB00BF10B584B0A1
:1013C00004AB0C4643F8042D0021009322460B4643
:1013D000FFF7DAFF04B010BDF0B5D36B1364151D31
:1013E00007460E460FCDADF50F7D17AC0FC40FCDE0
:1013F0000FC40FCD0FC495E80F004FF0FF3584E800
:101400000F00169510E016A8FFF7D8FF314616A872
:10141000B847694616AA78B9049B0820984705285A
:1014200004460AD0092807D026996846FFF704FE2B
:101430006A460C210028E6D0092416A8FFF74CFEC6
:1014400020460DF50F7DF0BD2DE9F04F0D46C96C1E
:101450008BB00C1D096807919046089400F00309B1
:101460001E46002B64D10902032307918DF82560E5
:101470008DF824302B6DB9F1020F08BFAC6B13F05F
:10148000010343D100F00800C2B203920193276820
:10149000002F3DD0022E47D02788B4F802A0043494
:1014A000AB6C2AF0010B40460F219B44FFF75EFF17
:1014B000834537D827F001039B4458452CBF0020B3
:1014C00001200AF0010A07F0010747EA4A0ABAF1C7
:1014D000010F43D03AD3BAF1020F1FD1236823F092
:1014E00000420292B9F1000F7BD138B1039A002A71
:1014F00000F08380029A002A00F0A680002B7ADB9D
:10150000029B03F1010A04EB8A04C0E70023019364
:10151000022E40DDFFF712FE002842D009200BB05A
:10152000BDE8F08F0020CCE7D4F804A00834B7E77A
:10153000022B9FDC0B0CDFB2090402228DF8253050
:1015400004EB870407918DF8242093E7B9F1000F8D
:1015500002D0002840F0AD80043498E7B9F1000FC4
:1015600026D1B0B194E80C00D70F9A1CD6D005F163
:1015700058020133069200F09280201DFFF7D8FD3B
:101580003A46014606AB284601F098F8002840F09C
:10159000B58008347BE7404607A900F01BFB002814
:1015A000BCD1019B002B59D108200BB0BDE8F08FB6
:1015B00040460D212F6AFFF7D9FE8742E9D1AB6A79
:1015C0009C42E6D12046FFF7DBFC0F210246404655
:1015D000FFF7F4FE40462A460021FFF7EFFE072002
:1015E0009DE740460D212F6AFFF7C0FE874245D098
:1015F0002368002B84DA043482E7029B23B305F1CD
:101600005803059604F1040A039FDDF808B0CDF8ED
:1016100010901E4602E0D9454F4615D0504606961A
:10162000FFF786FD0022014606AB284601F046F88A
:1016300007F101090AF1040A0028ECD0029BDDF849
:101640001090059E9F42D3D140460D21FFF78EFE9C
:10165000069B2862AC626B62062060E70F21404661
:10166000FFF784FE0E2102464046FFF7A7FE4046E4
:101670000F21294AFFF7A2FE072050E7AB6A9C42E0
:10168000B6D104220027A3180299A962EF622A6347
:101690006B632368BB421FDB0123019330E74046A5
:1016A0000D21FFF763FE2862069B6B62AC62062089
:1016B00035E72046FFF764FC04340646AC63284651
:1016C00001F054F800283FF429AF404632460F217C
:1016D000FFF774FE072022E70846013004EB800084
:1016E000FFF74EFC0F2102464046FFF767FE4046DB
:1016F00039462A46FFF762FE072010E707460D210C
:101700004046FFF733FE022F2862CDD12B46069AC2
:1017100043F82C2F6B62C9E7BD350008002393E620
:10172000012391E602238FE6F0B50546C5B00429F2
:101730000CD8DFE801F056030B300E00012B4FEA06
:10174000124496B265D0052B00F08480022045B08B
:10175000F0BD002BFAD1102AF8D82B68DC0600F176
:10176000EB8022AE3046019200F0A4F9A86B019AFA
:101770000023012404FA03F1114203D0016846F862
:10178000231004300133042BF4D1A863304600F059
:1017900087F90020DBE7032BD8D1140C97B23B1953
:1017A000102BD3D82B681E0700F1E68022AE3046FE
:1017B0007F0000F053F906EBC4027B1EAC6B57B1FF
:1017C000043A214651F8040B42F8040F013B581C1F
:1017D000F8D104EB87043046AC6300F01DF900201B
:1017E000B5E7002BB2D1AC6B97B2281D012606FAE3
:1017F00003F1394203F1010302D02168016004348E
:10180000102B00F10400F2D112F4005020D1AC638F
:101810009DE73219102A99D80F2C97D82968C80744
:101820004FF0000755D422A8019300F0E1F8019B86
:1018300019E008463746012B00F098800F2CA8636A
:1018400002D822A800F0D8F817B102A800F0DCF8FE
:1018500000207CE73719202F3FF678AF0F2C30D9C6
:101860003746002E45D1A96B3246002EE1D0002725
:1018700044A84FEA420C00EBC4000CF1FF328C3854
:101880008E465EF8046B40F8046F013A561CF8D19E
:1018900001EB8C00002FCED0102C224644A938BF7B
:1018A000102201EBC202A2F5C47201467800043A8C
:1018B00001EB800051F8046B42F8046F8142F9D1CA
:1018C000B9E7102F42D92A68D007A7F110071146AF
:1018D00010D521F00102052B2A60019328465BD028
:1018E00021F0030140F8481B00F082F8019B002F13
:1018F0004AD02A6851075BD4012B63D00F2C04D83F
:1019000022A8019300F07CF8019B002FABD002A825
:10191000019300F07DF8019BA96BC4F11002002A2D
:10192000A6DC102C224644A838BF102200EBC202CD
:10193000A2F5C4727800BAE723F010032B6005F516
:10194000E870019200F0B6F8019A0AE72968C80722
:101950001DD521F00102284642F0020240F8482B32
:101960000193002700F04CF8019BC9E70430A863FD
:1019700022A800F039F86BE723F008032B6005F587
:10198000A87000F06BF811E7012B3FF44CAF0F2C5F
:1019900098BF0027B4D966E742F0020240F8482B0E
:1019A00000F02EF8019B002FAAD02A685107A5D578
:1019B000284622F0040240F8D02B019300F028F8CA
:1019C000019B99E722A8019300F012F8019BA3E77D
:1019D00000F1340191E838009C46A6464CF8045DBD
:1019E00090E8FF0FE54600BD90EC210B704700BF6B
:1019F00080EC210B704700BF90EC200B704700BFBC
:101A000080EC200B704700BFD0EC200B704700BF6C
:101A1000C0EC200B704700BFF0EC0201F0EC0211AB
:101A2000F0EC0221F0EC0231F0EC0241F0EC02515A
:101A3000F0EC0261F0EC0271F0EC0281F0EC02914A
:101A4000F0EC02A1F0EC02B1F0EC02C1F0EC02D13A
:101A5000F0EC02E1F0EC02F1704700BFE0EC0201B3
:101A6000E0EC0211E0EC0221E0EC0231E0EC02419A
:101A7000E0EC0251E0EC0261E0EC0271E0EC02818A
:101A8000E0EC0291E0EC02A1E0EC02B1E0EC02C17A
:101A9000E0EC02D1E0EC02E1E0EC02F1704700BFC3
:101AA000B0FC0181B0FC0191B0FC01A1B0FC01B11E
:101AB000704700BFA0FC0181A0FC0191A0FC01A126
:101AC000A0FC01B1704700BFEC4600B52DE9005005
:101AD0002DE9FF1F4FF000032DE90C0001A9FFF7CE
:101AE000BFFBDDF840E012B0704700BFEC4600B528
:101AF0002DE900502DE9FF1F4FF000032DE90C00E8
:101B000001A9FFF7E7FBDDF840E012B0704700BF26
:101B1000EC4600B52DE900502DE9FF1F4FF0000302
:101B20002DE90C0001A9FFF7F7FBDDF840E012B04A
:101B3000704700BFEC4600B52DE900502DE9FF1FAE
:101B40004FF000032DE90C0001ABFFF7B9FBDDF806
:101B500040E012B0704700BFEC4600B52DE90050E0
:101B60002DE9FF1F4FF000032DE90C0001AAFFF73C
:101B700033FCDDF840E012B0704700BF037A1BB9B8
:101B8000437A43B9B02070475A1E036802721A02A2
:101B90000260180E70474268013B10B4437213682C
:101BA0000321141D01721A02446002605DF8044BA7
:101BB000180E704700B585B003AB002100930C22CE
:101BC0000B46FFF7B9FB039805B05DF804FB00BFB7
:101BD000F0E700BF2DE9F043064685B00D464FF013
:101BE00000082846FFF7CAFFB028044600F0B58079
:101BF00020F07F0111F0FF0120D000F0F003802BD6
:101C00007AD0902B36D0A02B49D0B02B5CD0C02BF3
:101C100000F0898000F0F803D02B0BD100F0070210
:101C2000013242F40022304601210523FFF77CFDFA
:101C30000028D6D0092005B0BDE8F0830DF10C09CD
:101C40000B468700CDF8009030460D22FFF774FB5D
:101C5000FFB2039BCDF80090043760064FF00001FF
:101C60004CBFDF1BFF1830460B460D220397FFF7D2
:101C70008BFBB6E700F00D030D2BDBD003AF00218B
:101C800000F00F020B4600973046FFF755FB00218E
:101C900000970B4630460D22FFF776FBA1E7C343C2
:101CA00003F007034FF47F621A41010702F47F62D9
:101CB0004FF0000148BF42F480420B463046FFF728
:101CC00033FD0028B6D18CE7B1284CD0B2285DD0C6
:101CD000B32800F08A8000F0FC03B42BAAD000F0F7
:101CE00007020132012142F400220B463046FFF781
:101CF0001BFD00289ED174E72846FFF73FFF240212
:101D00002043B0F5004F95D004010021A2B20B464C
:101D10003046FFF709FD00288CD114F4004F18BF9E
:101D20004FF001085DE7C62872D0C7287AD000F0CE
:101D3000F803C02B00F08980C82800F0A580C928CE
:101D40007FF478AF2846FFF719FF00F00F02013249
:101D500000F0F00042EA003265E7B8F1000F00F051
:101D60008280002067E72846FFF708FF0246002828
:101D70003FF460AF10F0F0017FF45CAF30460B46EB
:101D8000FFF7D2FC00287FF455AF2AE700210DF1C0
:101D90000C090D220B46CDF800903046FFF7CCFA27
:101DA0002846FFF7EBFE02064FF002040CD5039B1A
:101DB00000F07F00A040034428460393FFF7DEFEB7
:101DC000030604F10704F2D4039BCDF8009000F061
:101DD0007F00A04003F5017300211C180D220B4663
:101DE00030460394FFF7D0FAFBE62846FFF7C6FE1D
:101DF00000F00F02013200F0F000012142EA00324F
:101E00000B463046FFF790FC00287FF413AFE8E65E
:101E10002846FFF7B3FE00F00F02013200F0F00099
:101E20000321EBE72846FFF7A9FE024600283FF40E
:101E300001AF10F0F0037FF4FDAE30460421FFF750
:101E400073FC00287FF4F6AECBE600F00F020132FF
:101E5000032142F420220B463046FFF765FC0028A0
:101E60007FF4E8AEBDE603AC41460E224346009443
:101E70003046FFF761FA0094304641460F22434650
:101E8000FFF782FA4046D6E62846FFF777FE00F0D5
:101E9000F00200F00F031032013343EA0232C2E6CF
:101EA00010B5C36C84B05A6803208DF80C00DC793F
:101EB0008DF80D4012020833084601A901920293E1
:101EC000FFF788FE04B010BD08B5FFF781FE806CF7
:101ED00008BD00BF08B5FFF77BFEC36CD87903EBE4
:101EE0008000083008BD00BF08B501F0D1FC00BF7C
:101EF00008B501F0CDFC00BF844641EA000313F0B1
:101F000003036DD1403A41D351F8043B40F8043B00
:101F100051F8043B40F8043B51F8043B40F8043BC3
:101F200051F8043B40F8043B51F8043B40F8043BB3
:101F300051F8043B40F8043B51F8043B40F8043BA3
:101F400051F8043B40F8043B51F8043B40F8043B93
:101F500051F8043B40F8043B51F8043B40F8043B83
:101F600051F8043B40F8043B51F8043B40F8043B73
:101F700051F8043B40F8043B51F8043B40F8043B63
:101F800051F8043B40F8043B403ABDD2303211D303
:101F900051F8043B40F8043B51F8043B40F8043B43
:101FA00051F8043B40F8043B51F8043B40F8043B33
:101FB000103AEDD20C3205D351F8043B40F8043B03
:101FC000043AF9D2043208D0D2071CBF11F8013B01
:101FD00000F8013B01D30B8803806046704700BFC7
:101FE000082A13D38B078DD010F003038AD0C3F1D6
:101FF0000403D21ADB071CBF11F8013B00F8013BB8
:1020000080D331F8023B20F8023B7BE7043AD9D376
:10201000013A11F8013B00F8013BF9D20B7803704B
:102020004B7843708B7883706046704700000000E7
:1020300000000000000000000000000000000000A0
:10204000A2EB0300704700BF02780B78012A28BF7B
:102050009A42F5D16DE9044540EA0104CDE90267F1
:102060006FF0000C4FEA447212B380EA010414F0DE
:10207000070F6AD100F0070420F0070004F0030501
:1020800021F007014FEAC505F0E8042314F0040F1E
:10209000F1E804670CFA05F462EA040266EA040651
:1020A0000AD063EA0403624667EA0407664603E06F
:1020B000F0E80423F1E8046782FA4CF582EA0604AA
:1020C000A4FA8CF46CBB83FA4CF583EA0705A5FAF5
:1020D0008CF595B950E9022351E9026782FA4CF573
:1020E00082EA0604A4FA8CF483FA4CF583EA070525
:1020F000A5FA8CF52543DBD09CB92DBAB5FA85F449
:1021000024F0070427FA04F1DDE9026723FA04F357
:1021100003F0FF0001F0FF01FDE80445A0EB010022
:10212000704724BAB4FA84F424F0070426FA04F1C0
:10213000DDE9026722FA04F202F0FF0001F0FF017C
:10214000FDE80445A0EB0100704714F0030F3CD1FB
:1021500010F0030428D150F8082B51F8083B82FAFC
:102160004CF582EA0305A5FA8CF55DB950F8042C0C
:1021700051F8043C82FA4CF582EA0305A5FA8CF585
:10218000002DE8D02DBAB5FA85F424F0070423FA1F
:1021900004F122FA04F202F0FF0001F0FF01FDE871
:1021A0000445A0EB010070474FEAC40420F003008F
:1021B00050F8082B21F0030151F8083B0CFA04F405
:1021C00062EA040263EA0403C9E710F003041AD0C8
:1021D000A1EB040120F00300E40750F8042B06D023
:1021E0000FD28B785FFAA2F4E41A06D12BB1CB7828
:1021F0005FFAB2F4E41A00D11BB920465DF8104B27
:10220000704701F1040150F8042BCC0721F00301C1
:1022100051F8043B48D824D222F07F4482FA4CF58E
:1022200094EA1325A5FA8CF50AD165B951F8043B57
:1022300084EA0204B4EB036F0ED150F8042BEBE7F1
:102240004FEA132355E035F07F454DD10878FDE87E
:102250000445C0F1000070474FEA126203F0FF032B
:1022600047E002EA1C4482FA4CF594EA1345A5FAC9
:102270008CF50AD165B951F8043B84EA0204B4EB49
:10228000034F0CD150F8042BEBE74FEA134330E037
:1022900015EA1C4528D10B884FEA124229E04FEA83
:1022A000124203EA1C4324E002F0FF0482FA4CF5D8
:1022B00094EA1365A5FA8CF50AD165B951F8043B87
:1022C00084EA0204B4EB032F09D150F8042BEBE7A6
:1022D0004FEA13630DE015F0FF0F05D10B684FEACD
:1022E000122223F07F4304E04FF00000FDE8044594
:1022F000704712BA1BBA82FA4CF482EA0304A4FAB9
:102300008CF5B5FA85F402FA04F203FA04F34FEA05
:102310001260FDE80445A0EB13607047AFF3008046
:10232000002103E00A4B5B584350043109480A4B33
:1023300042189A42F6D3094A02E0002342F8043BCD
:10234000074B9A42F9D3FEF71DF800F081F8704769
:102350004C5300080000002084080020880800205A
:10236000E8120020FEE738B504460068A04204D019
:10237000056800F0BDF82846F8E738BDD0F8C03948
:10238000B3F51C7F70B549D30446054600216B6840
:102390002A682C4E02F0004223F000431343D5F884
:1023A000342682EA530213F0010318BF3346013189
:1023B0005340E32945F8043BE9D1D4F88C23D4F801
:1023C0009033204D02F0004223F000431343226873
:1023D00082EA530213F0010318BF2B465340C4F89E
:1023E0008C33013140F26F23994204F10404E4D1AB
:1023F000D0F8BC29036802F0004223F000431343E5
:10240000D0F8302682EA530213F0010318BF2B469E
:102410005340C0F8BC390023C0F8C039D0F8C039E7
:102420005A1CC0F8C02950F82300074B80EAD0207E
:10243000C201134043400548DA031040584080EA87
:10244000904070BDDFB0089980562C9D0000C6EF0B
:1024500070B5ADF51E6D01A8FEF7C2FC40F6DC10AC
:1024600000F060F80646FEF7BBFC01200146FEF7CF
:102470005DF91D491D48012303220B7100230A60E9
:102480008B714A71CB71FEF781FB18480121FEF771
:10249000E2FB01A8FEF732FDFEF768FD13480221BA
:1024A000FEF7D9FB01A8FEF729FDFEF75FFD0F48F7
:1024B0000321FEF7D2FB3046FEF720FDFEF756FD66
:1024C000E3E704460D46304600F012F82046294660
:1024D000FFE7012902D100F0B5F9FEE701A8FEF7F8
:1024E00075FC00F0E5F800BFA408002000000240E1
:1024F00001F032BA10B5034B0360044600F028FD2A
:10250000204610BDD04A000810B5054B03600446B4
:1025100000F01EFD2046FFF7EBFF204610BD00BF78
:10252000D04A000810B5002814BF044601242046F4
:1025300001F00AFA40B900F05FFF30B18047204651
:1025400001F002FA0028F6D010BD042000F00CF8CB
:10255000024B03600249034A00F0BEFEF04A000845
:10256000004B00088126000838B500F18005284698
:1025700001F0EAF9044638B120460021802201F03A
:1025800085FC04F1800038BD0B4AB5F5007F116869
:1025900007D80B46D80706D50134042C4FEA53035D
:1025A000F8D100F095FF0123A340044819431160BE
:1025B00000EB4424E0E700BF900A0020980A0020C6
:1025C000094B984203D303F50062904202D380384E
:1025D00001F0C2B90549C01A400A0B6801228240C5
:1025E00023EA02030B607047980A0020900A00203B
:1025F00010B5782001F0A8F9044630B1204600213A
:10260000782201F043FC204610BD0B490A681346AE
:10261000DC0706D5013004284FEA5303F8D100F057
:1026200057FF01238340054C1A43C0EB00100A609A
:1026300004EBC004E2E700BFAC080020B0080020B3
:102640000A4B984203D303F5F072904201D301F094
:1026500083B9074A0749C01AA2FB003080090B68FA
:102660000122824023EA02030B607047B008002079
:1026700089888888AC080020004870470C4B000807
:1026800010B5034B0360044600F088FC204610BDE3
:10269000F04A000810B5054B0360044600F07EFCCC
:1026A0002046FFF725FF204610BD00BFF04A000876
:1026B0001EB400F08DF81EBCFFF718FAF0B50278D2
:1026C000472A83B00E461F461AD00023254C01939B
:1026D000236820469B68984780B1019B1B68019343
:1026E00002253368214630461C6901AA0123A04710
:1026F00010B1019B3B60284603B0F0BD0125F0E717
:1027000043784E2BE1D18378552BDED1C378432B10
:1027100019D0C378432BD8D10379432BD5D1437932
:102720002B2BD2D183792B2BCFD1C379012BCCD8B2
:1027300004D050F8204C58300190C9E750F8200CD4
:1027400050F8784CF8E70379462BE2D143794F2BC8
:10275000DFD18379522BDCD1C379002BD9D10193FE
:10276000014CB5E7104C0008B84B000810B5044602
:1027700000F0FCFC2378472BA4F1200204D08368EE
:1027800023BB8260012010BD63784E2BF7D1A37864
:10279000552BF4D1E378432BF1D12379432BEED1A0
:1027A00063792B2BEBD1A3792B2BE8D1E379012B88
:1027B000E5D854F8043C0133012B44F8043CE1D142
:1027C000836844F8083C8260012010BD00F080FE60
:1027D00008B500F0CBFC836883B393F82020472A28
:1027E00004D00022826003F1200008BD93F821206C
:1027F0004E2AF6D193F82220552AF2D193F82320BD
:10280000432AEED193F82420432AEAD193F82520D5
:102810002B2AE6D193F826202B2AE2D193F8272001
:10282000012ADED8DA69013ADA61002ADBD19A6935
:10283000826000229A6103F1200008BD00F048FE8A
:10284000406A704738B5044600F090FC2178036870
:102850004729A4F1200205D0002B31D11C4602608B
:10286000204638BD61784E29F6D1A1785529F3D19B
:10287000E1784329F0D121794329EDD161792B29E0
:10288000EAD1A1792B29E7D1E1790129E4D854F8DB
:102890000C5C002D11DB0135416844F80C5C93425F
:1028A00001F1FF3141601CBF44F8103C026020463A
:1028B000646AFEF739FD204638BDC5F10105EBE736
:1028C00000F006FE013101D0FFF7F2FE00F076FEC7
:1028D00008B500F047FC0246006800283DD090F89B
:1028E0002030472B06D0002313602030BDE808407D
:1028F000FEF71CBD90F821304E2BF4D190F8223019
:10290000552BF0D190F82330432BECD190F82430A4
:10291000432BE8D190F825302B2BE4D190F82630CA
:102920002B2BE0D190F82730012BDCD84369002B0A
:1029300005DB013B08D05A1C0DD0436108BD0133B3
:10294000FBD101691160F8E7036913602030BDE82D
:102950000840FEF7EBBC00F0BBFD08BD08B500F079
:1029600005FC4068003018BF012008BD30B40025C8
:102970002A4610F8014B04F07F0393401D432306C1
:1029800002F10702F5D41F2A05D8630603D54FF0DC
:10299000FF3393401D430D6030BC7047F0B55028A5
:1029A00085B0054645D00F4600F00F010C293ED8F2
:1029B000DFE801F007293907173D3D3D3D1F1B07A3
:1029C0001700104650F8044B44B105F0700110296F
:1029D00018BF3A4614442A0648BF24681C6005B054
:1029E000F0BD104650F8084BEEE7104630F9024BA8
:1029F000EAE7104603A901930092FFF7B7FF039C93
:102A00009DE80C00E0E700242646104610F801EB94
:102A10000EF07F01B1401EF0800F44EA010406F180
:102A20000706F3D1D0E7104630F8024BCCE700F0B0
:102A30002FFFD01C20F0030050F8044B1C6005B0A1
:102A4000F0BD00BFFF2815D008B500F07003202BA3
:102A500012D00AD9402B14D0502B17D0302B07D1CD
:102A60000846BDE80840FFF73FBA7BB1102B0DD0F8
:102A700000F00EFF002070470846BDE80840FFF751
:102A800037BA0846BDE80840FFF71EBA002008BD67
:102A9000F8B50C4615460746002844D0FFF714FA4F
:102AA00028602678FF2E04F1010432D039463046E2
:102AB000FFF7C8FF224601462B1D3046FFF76EFF89
:102AC0000446601C23782B75FF2B29D0102300248B
:102AD0002B75224610F8011B01F07F039340090675
:102AE00044EA030402F10702F4D40444EC600378DE
:102AF0006B7500240130224610F8011B01F07F03A2
:102B000093401C430B0602F10702F5D404442C61E8
:102B1000F8BD686023782B75FF2B04F10100D5D137
:102B20000023EB60E3E7BBE72DE9F04F00F0030380
:102B300093B00024012B0F461546069400F09E80AA
:102B40000ED3022B0AD138462946FFF7A9F90028EF
:102B500000F0AF80092013B0BDE8F08F00F098FEC0
:102B600000F0080000F0FF010028ECD112AB104685
:102B700043F82C7D0C2200930B46FEF705FC2846FB
:102B8000FFF7A8F94FF0010881460028DBD00CAB15
:102B90001A46494628460393FFF77AFF294682469C
:102BA0009DF84400FFF74EFF0BAE00210E900B4640
:102BB0000F2200962846FEF7BFFB0B9B109A23F0CE
:102BC0000103924503F1FF343AD29DF845B000214C
:102BD0005846FFF737FF5246014609AB5846FFF704
:102BE000DDFE9DF845A0834600215046FFF72AFFF1
:102BF0005A4601460AAB5046FFF7D0FE9DF845A065
:102C0000834600215046FFF71DFF5A4601463346D2
:102C10005046FFF7C3FE8246002001461AF801EB3A
:102C20000EF07F038B401EF0800F40EA030001F19D
:102C30000701F3D1099A0C9B13449C4280F09080C9
:102C40004FF0000A0126002418F0010F00F09180D7
:102C5000022E3FF478AF0AAB0021284600930D22E4
:102C60000B46069DFEF768FB0A9B7D62BC62C7F8B7
:102C70002C90C7F830A03B6206206CE700F00800FB
:102C800000F0FF04C8B112AB002143F82C7D0C22E8
:102C9000009328460B46FEF777FB2846FFF71AF904
:102CA00044F002045FFA84F8814600287FF46FAF95
:102CB00049E7082013B0BDE8F08F0CAB00930393F5
:102CC0001046234621460D223E6AFEF735FB0C9B3B
:102CD0009E42D8D112AB0C2243F82C7D284600939B
:102CE00021462346FEF750FBD7F830A0BB6AFA6AAC
:102CF000BAF1000F42D01C4691460326002CC0F2C8
:102D0000CD8012AB002143F8287D0A460093284667
:102D10000B46FEF739FB12AA002142F8244D0B4660
:102D2000009228460122FEF72FFB0AAC00210B4639
:102D300000940F222846FEF7FFFA0A9B009403F046
:102D4000010300214AEA030428460B460F220A9495
:102D5000FEF71AFB022E69D0072013B0BDE8F08FF2
:102D60000A9A13449C4213D3109B9A45FFF42DAF4B
:102D700066E718F0080F04D1012EBFD1384600F0E5
:102D80000DFC012E00F0E180002CBADA00F0AEFB61
:102D90000B9B002B3FF4D7AE0D9A03EB020A0028E1
:102DA00000F0BA80109B01381844BAF1000F3FF4CC
:102DB000CAAE002800F0B48018F00803059300F0B4
:102DC000B18047224E2355213A707B70432246231F
:102DD000B970FA704F2152223B7100237971BA7198
:102DE000FB7100239B46049508A9FFF7BFFD09A9C5
:102DF0000446FFF7BBFD089B002B32D034DD9DF865
:102E00004400FF286CD000F00702042A3FF6A6AE6B
:102E100001A151F822F000BF5D2E00085D2B0008D3
:102E2000572E00085D2E0008372E00083846FFF7A1
:102E30009DFC07208FE6DB005B420F9A0E991A4437
:102E40000AABFFF7ABFD0A9929B3EFB9099B002B39
:102E500071D0E018C8E75B005B42EEE79B005B4285
:102E6000EBE74FF0010BF1E717B1059A002A39D0D3
:102E70005A1CC2EB82720F9951F82220002AE5D128
:102E8000049D1C460326DFE63846002206ABFFF70A
:102E900015FC0028DAD0049D089BF2E7039A494606
:102EA0002846FFF7F5FD29469DF84400FFF7CAFDC7
:102EB000A20082F00302D2430F990E908B5801EBCF
:102EC000020E33B17246002352F8041F0133002969
:102ED000FAD10422BB62F862C7F834E03A6310E723
:102EE0000023AAE703F1010CCCEB8C720F98069D2E
:102EF00050F822100B9500EB82050029C0D0294420
:102F0000384600223346FFF7D9FB00289ED155F8FA
:102F1000041F0029F3D1BEE7BAF1000F3FF413AE4E
:102F2000022690E6FB79012B0CBF57F8203C07F1F5
:102F30005803069355E75A46049D002A3FF403AE12
:102F40001C46022680E6FFF77DFC00F0C1FA00BFB8
:102F5000704700BF00207047002070470020704776
:102F600010B50446FFF7C4FA204610BD814211D0C7
:102F700008B5406803782A2B0AD049680B782A2BB9
:102F800008BF0131FFF760F8B0FA80F0400908BDD2
:102F9000002008BD01207047FFF7E8BF704700BF61
:102FA000704700BF00487047EC4B0008004870476E
:102FB000FC4B000810B50446FFF79AFA204610BDF6
:102FC00010B50446FFF794FA204610BD704700BFC5
:102FD00010B50446FFF78CFA204610BD704700BFBD
:102FE00010B50446FFF784FA204610BD0120704753
:102FF00010B5034B0360044600F054FB204610BD9F
:10300000B04C000810B5054B0360044600F04AFBC5
:103010002046FFF76DFA204610BD00BFB04C0008F7
:1030200030B5012B83B004460D4609D9E068E96844
:10303000046824690233A44603B0BDE83040604709
:10304000C06809498DE80C00FFF790FF9DE80C006F
:103050000028EBD0E8680368DB68984780F001003F
:10306000C0B203B030BD00BF884A000870B5036825
:1030700084B000249E6900941023154602931268C0
:103080008DF804406B460394B0479DF8043003F07C
:103090000603062B03BF009B2B600120204604B0D3
:1030A00070BD00BF009890420CBF06200120704701
:1030B00010B5034B03600446FFF74AFF204610BDDE
:1030C000D84C000810B5054B03600446FFF740FFDD
:1030D0002046FFF70DFA204610BD00BFD84C00086F
:1030E00038B515461C46FFF741FF20B108220623DC
:1030F0002560E260237138BD2DE9F04116461C467B
:1031000007460D46FFF732FF08B9032C01D9BDE889
:10311000F0812B683946324628465B69BDE8F041AC
:10312000184700BF70B582B01646069C08998C42BD
:1031300005460CD028461946FFF718FF20B1099A1A
:103140000123146016719371002002B070BD0799BD
:103150000193FFF70BFF019B0028EBD0099B5E71E9
:10316000F2E700BF004870479812002000487047FF
:103170009812002010B5034B03600446FFF798FF38
:10318000204610BD384D000810B5054B03600446BD
:10319000FFF78EFF2046FFF7ABF9204610BD00BFBA
:1031A000384D000870B582B00D46069C9442064624
:1031B00009D0B06806680694346A2946A44602B06D
:1031C000BDE870406047194601920093FFF7CEFEBC
:1031D000009B019A0028ECD0062002B070BD00BF11
:1031E0002DE9F04F81B00C4619461F4691468346A3
:1031F0000A9EDDF82CA0DDF830800D9DFFF7B6FEAD
:1032000070B1002C2E6085F804901FDB3444A0457B
:103210000CBF06240124AC71002001B0BDE8F08F82
:10322000464518D0DBF80800D0F800E00A96CDF843
:103230002CA0CDF830800D952146DEF81C404A4682
:103240003B46A44601B0BDE8F04F60470234E3D1ED
:103250000123AB71E0E758465146FFF787FE00288F
:10326000E0D085F80590D7E72DE9F04107460E46F6
:1032700015461C46FFF734FF08B1BDE8F081B86879
:1032800007682346BC6931462A46A446BDE8F0419A
:10329000604700BF012810B51AD8BFF35F8FA1F1B6
:1032A000280353E8002F013A43E800200028F8D112
:1032B000BFF35F8F5AB951F81C3C01F158040BB1B0
:1032C000204698472046BDE81040FFF779B910BD69
:1032D00051F8140C00F0E8F8F8B504460F4616460D
:1032E000FFF744FF436801252B44436044F8787C92
:1032F00044F8746C44F8805C00F02AF944F8700CCF
:1033000000F00EF9A4F1580543222B234FF0470C8F
:103310004FF04E0E0F4944F86C0C5527002604F868
:1033200058CC04F857EC44F8501C04F8552C04F819
:10333000542C04F8533C04F8523C04F8567C04F82E
:10334000516C2846FEF7C0FB2846FFF77BFA00F0D9
:10335000BFF800BF9532000810B5FFF707FF4268BD
:103360000368013242606BB193F82020472A0BD0EA
:103370000022026003F120042046FEF7C9FB20462C
:10338000FFF760FA00F0A4F893F821204E2AEFD15D
:1033900093F82220552AEBD193F82320432AE7D132
:1033A00093F82420432AE3D193F825202B2ADFD158
:1033B00093F826202B2ADBD193F82720012AD7D88F
:1033C0005A6952425A61D5E708B500F081F800BF4A
:1033D00008B500F07DF800BF064BBFF35F8F0246D3
:1033E00053E8000F43E800210029F9D1BFF35F8FB4
:1033F000704700BFA4120020024B1868BFF35F8F14
:10340000704700BFA412002003680A68834210D0EE
:103410008A4218D002600B6043684A6842604B6081
:1034200003684268106058604A680B681160596010
:1034300070478A4206D0486858601A60036053603B
:103440004960096070474168516013600A605A60C2
:1034500040600060704700BF90420BD030B44368BA
:1034600054684D6820602A601960446030BC486828
:1034700050604B60704700BF03461A68596890421D
:1034800083E806001346F8D1704700BF4B684360DD
:103490004B68016018604860704700BF036842686D
:1034A00013605A60704700BF08B5804700F0F0F91C
:1034B000FFF7C8F900F0ECF90D460446FFF708FAEB
:1034C000013501D0FFF7F4F8204600F077F800BF8F
:1034D00008B5034B1868BFF35F8FFFF7E5FF00BF28
:1034E0004000002008B58047FFF7F2FF08B5034B06
:1034F0001868BFF35F8FFFF7F5FF00BF3C000020A7
:10350000064BBFF35F8F024653E8000F43E80021EC
:103510000029F9D1BFF35F8F704700BF4000002042
:10352000024B1868BFF35F8F704700BF4000002058
:10353000064BBFF35F8F024653E8000F43E80021BC
:103540000029F9D1BFF35F8F704700BF3C00002016
:10355000024B1868BFF35F8F704700BF3C0000202C
:103560000378472B01D00020704743784E2BFAD1C7
:103570008378552BF7D1C378432BF4D10379432BB0
:10358000F1D143792B2BEED183792B2BEBD1C07961
:1035900001288CBF00200120704700BF10B530B15A
:1035A0000446FFF74FF92046FFF7DAFF08B9FFF7A7
:1035B0008FFF54F8140CFFF777FF00BF2DE9F04F91
:1035C00083B00446FFF7CCFF68B154F8185C54F898
:1035D000148CD4F82890276B666B2046FFF732F9DD
:1035E0002846FFF77FFF2046FFF72CF9FFF77EFF05
:1035F000FFF728F9FFF76CFFFFF724F9FFF7B2FD9B
:10360000036893F82720012A2FD003F178020025C0
:10361000009227F0030703F1200AAB46CB451ADAE4
:10362000346804B134445046214600226B46FFF70B
:1036300045F8F8B923681349D3F810C002AA01234A
:1036400042F8040D2046E047002818BF01250BF181
:10365000010B3E44E2E755B10420FEF785FF0A4B1B
:1036600003600849094AFFF737FE1A68CFE740466A
:10367000FFF71AFFFFF770FEFFF72AF9FFF728F9A7
:10368000FFF716F86C4C0008384C0008A12F000812
:10369000C068C96810B4046824690233A4465DF8A0
:1036A000044B604710B5034B03600446FFF750FC22
:1036B000204610BDD04D000810B5054B03600446F0
:1036C000FFF746FC2046FEF713FF204610BD00BF63
:1036D000D04D00082DE9F04190461F4606460D46A4
:1036E000FFF744FC0446E8B9336853F8040CE5B12D
:1036F0002B6853F8041CFFF739FC98B1FA0711D571
:10370000B368AA689A430DD13068DB07846958BF53
:1037100027F00107294642463B463046A446BDE80D
:10372000F04160472046BDE8F08100F011F800BF8D
:1037300008B50420FEF718FF024B03600249034A54
:10374000FFF7CAFD684E0008484E0008F137000830
:1037500008B50420FEF708FF024B03600249034A44
:10376000FFF7BAFDF04E0008004F0008613800086E
:1037700008B50420FEF7F8FE024B03600249034A35
:10378000FFF7AAFD904E0008A04E00082938000857
:1037900008B50420FEF7E8FE024B03600249034A25
:1037A000FFF79AFD084E0008F04D0008B9370008F1
:1037B00000487047304E000810B5034B03600446C4
:1037C000FEF75EFF204610BD084E000810B5054B01
:1037D00003600446FEF754FF2046FEF789FE2046AC
:1037E00010BD00BF084E000800487047784E000822
:1037F00010B5034B03600446FFF7D0FB204610BD15
:10380000684E000810B5054B03600446FFF7C6FB81
:103810002046FEF76DFE204610BD00BF684E000832
:1038200000487047AC4E000810B5034B03600446D7
:10383000FEF726FF204610BD904E000810B5054B40
:1038400003600446FEF71CFF2046FEF751FE2046AB
:1038500010BD00BF904E0008004870470C4F000894
:1038600010B5034B03600446FFF798FB204610BDDC
:10387000F04E000810B5054B03600446FFF78EFBC1
:103880002046FEF735FE204610BD00BFF04E000872
:1038900008B5062000F0ECFB012000F079FE00BF27
:1038A000014600200246034600F016BC08B5002180
:1038B000044600F06DFC044B1868C36B03B19847D5
:1038C000204600F065FE00BF304F000838B5084BB9
:1038D000084DED1AAC1018BFED1805D0013C55F895
:1038E000043D9847002CF9D1BDE8384001F062BB97
:1038F000485300084C53000870B50F4E0F4D761B0F
:10390000B61018BF002405D0013455F8043B984781
:10391000A642F9D10A4E0B4D761B01F045FBB610BD
:1039200018BF002406D0013455F8043B9847A6423E
:10393000F9D170BD70BD00BF40530008405300086E
:103940004853000840530008024B0146186800F035
:103950000BB800BF70040020024B0146186800F04D
:10396000CFBC00BF700400202DE9F04F01F10B0522
:10397000162D83B0064627D935F0070500F1B6802D
:10398000A94200F2B38000F0CFFAB5F5FC7F22D255
:10399000C24FE80807EBC003DC689C4200F0C88116
:1039A0006368E168A56823F00303234430465A683E
:1039B000E96042F001028D605A6000F0B7FA083405
:1039C000204603B0BDE8F08F102900F28F8000F090
:1039D000ABFA1025DCE7680A00F08F80042800F2BB
:1039E0005481A80938304100AC4F07EB8101CC6805
:1039F000A14206D10CE0002A80F28280E468A14254
:103A000006D0636823F003035A1B0F2AF3DD013845
:103A10000130A2493C6901F1080E744500F07D8136
:103A2000636823F003035A1B0F2A00F36381002A03
:103A3000C1F814E0C1F810E073DAB3F5007F80F04C
:103A40003981DB0801EBC3084FEAA30C4A68D8F8B8
:103A50000890C4F80890012303FA0CF31343C4F848
:103A60000C804B60C8F80840C9F80C408210012453
:103A700094409C4262D8234206D120F003006400A7
:103A8000234200F10400FAD007EBC008C446814687
:103A9000DCF80C309C4507D141E1002980F25181CE
:103AA000DB689C4500F03B815A6822F00302511B01
:103AB0000F29F2DD1C46D3F80CC054F8088F5A19B0
:103AC00045F0010941F00105C3F804903046C8F8FB
:103AD0000CC0CCF808807A613A61C2F80CE0C2F8F8
:103AE00008E05560515000F021FA69E700240C23EA
:103AF0002046336003B0BDE8F08F7E213F2073E79E
:103B00002344E1685A68A56842F00102E960304642
:103B10008D605A6000F00AFA0834204603B0BDE810
:103B2000F08F234430465A6842F001025A6000F098
:103B3000FDF90834204603B0BDE8F08FBC68636827
:103B400023F00308454504D8C5EB08030F2B00F309
:103B50008C80534BDFF858A11A68DAF80030013333
:103B60002A4404EB080B00F0508102F580520F321A
:103B700022F47F6222F00F0211463046019200F0DB
:103B8000D7F9B0F1FF3F8146019A00F047818345A4
:103B900000F2EE80434B1968CB451144196000F0E8
:103BA0004281DAF80000DFF808E101301BBFCBEBFF
:103BB000090B5944CEF80090196019F0070100F084
:103BC0000781C1F10800C1F58051814408314A44A0
:103BD000C2F30B02C2EB010A51463046019300F0DA
:103BE000A7F9431C019B00F02C81C9EB0002524451
:103BF00042F001021968C7F808905144BC42C9F864
:103C000004201960DFF89CA016D0B8F10F0F40F225
:103C1000EE806268A8F10C0323F00703E01802F0BD
:103C200001024FF0050E1A430F2B6260C0F804E04A
:103C3000C0F808E000F209811B4BBC681A68914289
:103C400088BF1960194B1A689142626888BF196071
:103C500022F003029542A2EB050301D80F2B04DCEE
:103C6000304600F063F90024AAE6621943F001032C
:103C700045F0010565603046BA60536000F056F9C2
:103C80000834204603B0BDE8F08F142868D95428C2
:103C900000F29780280B6E304100A5E674040020E6
:103CA000B0120020B4120020AC120020A812002094
:103CB000800800205A0A042A55D9142A00F2A78045
:103CC0005B324FEA420C07EB8C0CDFF8BC81DCF86E
:103CD000081061457FD04A6822F00302934202D265
:103CE00089688C45F7D1CA687B68E260A1609460FE
:103CF000CC60BBE6631942F0010745F00105656041
:103D000030464B610B61C3F80CE0C3F808E05F601C
:103D10009A50083400F00AF952E64B68A6E609F119
:103D2000010919F0030F0CF1080C7FF4B1AE2CE07F
:103D300004F108036469A34208BF02303FF469AE8E
:103D40002EE61A441C465168DB6854F8085F41F0BF
:103D5000010151603046EB609D6000F0E7F82FE60E
:103D60005B30410040E69A0938324FEA420CAAE73C
:103D7000BC42454B3FF40EAF9C68626822F00302E0
:103D800068E7D8F8008098457CD110F0030FA8F1BF
:103D9000080300F1FF30F4D17B6823EA04037B6061
:103DA00064009C423FF6CAAE002C3FF4C7AE2342EB
:103DB00048467FF469AE6400234200F10400FAD063
:103DC00062E6B0F5AA7F18D8E80B773041000BE621
:103DD0004FF48051FBE6D8F8043092104FF0010CFC
:103DE0000CFA02F21343C8F804300A467DE70123B7
:103DF000C9F804304C4600222CE740F25453984254
:103E00001CD8A80C7C304100EEE51032B4E6542AF0
:103E100023D81A0B6E324FEA420C54E7BC68626832
:103E200022F0030216E7CBF30B0000287FF4B9AEB3
:103E30004244BB6842F001025A60FDE6FC217E204C
:103E4000D2E501224FF0000AD4E604F10801304621
:103E500000F056FADAF80010EEE6B2F5AA7F04D8C0
:103E6000DA0B77324FEA420C2DE740F254518A4286
:103E700004D89A0C7C324FEA420C24E74FF0FC0C39
:103E80007E2220E77B688BE77404002070B48407EF
:103E900046D0541E002A41D0CDB2034602E0621E35
:103EA000E4B3144603F8015B9A07F8D1032C2ED92A
:103EB000CDB245EA05250F2C45EA054519D903F190
:103EC00010022646103E0F2E42F8105C42F80C5CA1
:103ED00042F8085C42F8045C02F11002F2D8A4F146
:103EE000100222F00F0204F00F041032032C1344CE
:103EF0000DD91E462246043A032A46F8045BFAD836
:103F0000221F22F003020432134404F003042CB1F4
:103F1000C9B21C4403F8011BA342FBD170BC70471B
:103F200014460346C2E700BF704700BF704700BF9A
:103F300038B5074C002305460846236000F01AFBFD
:103F4000431C00D038BD2368002BFBD02B6038BD4C
:103F5000E412002038B5D0F8DC4205460CB1002050
:103F600038BD8021FFF700FDC5F8DC0250B12346C3
:103F7000224601E0D5F8DC02C2500433802BF9D18F
:103F8000002038BD4FF0FF3038BD00BF1F29F8B505
:103F90000AD8D0F8DC42074616460D464CB154F814
:103FA000250044F82560F8BD162202604FF0FF306E
:103FB000F8BDFFF7CFFF10B9D7F8DC42EFE74FF0BD
:103FC000FF30F8BD1F2938B522D8D0F8DC220546CD
:103FD0000C469AB152F8213083B1012B0CD0591CF8
:103FE00006D00025204642F824509847284638BD80
:103FF00016230360012038BD002038BD284600F09C
:1040000069F8224601462846BDE8384000F04EB81F
:10401000162303604FF0FF3038BD00BF1F2920D8A2
:1040200038B5D0F8DC3205460C46A3B153F824204D
:1040300003EB84036AB1511C09D0012A05D0002585
:1040400020461D609047284638BD032038BD022019
:1040500038BD012038BDFFF77DFF28B9D5F8DC3227
:10406000E4E74FF0FF3070474FF0FF3038BD00BF3E
:10407000024B01461868FFF7A5BF00BF700400207F
:10408000024B0A4601461868FFF780BF7004002003
:10409000014B1868FFF75EBF70040020024B014619
:1040A0001868FFF7BBBF00BF7004002038B5084C8C
:1040B0000023054608461146236000F053FA431CCE
:1040C00000D038BD2368002BFBD02B6038BD00BF6B
:1040D000E412002000F03EBA2DE9F047254C256897
:1040E000D5F848410646884692469946CCB3606862
:1040F0001F2818DC431C7EB104EB80050121C5F8A4
:1041000088A0D4F8887101FA00F21743022EC4F88F
:104110008871C5F808911ED00230636044F8208091
:104120000020BDE8F087144B03B34FF4C870FFF7CD
:104130000BFC0446D0B1D5F84831002780E8880050
:10414000C5F8484138460123C4F88871C4F88C7119
:10415000002EE1D0D0E7D4F88C110A43C4F88C21AA
:10416000DAE705F5A674C5F84841C0E74FF0FF301F
:10417000BDE8F087304F000849390008024B13B101
:104180000248FFF78DBB704700000000CD380008E3
:104190002DE9F04F314B83B01B68009303F5A473F6
:1041A00081460E460193009BD3F8487127B3DDF892
:1041B00004A07C68651E0ED4013407EB84044FF024
:1041C0000008E6B1D4F80031B34218D0013D6B1CB1
:1041D000A4F10404F5D1224B73B17B68002B36D1D6
:1041E0003B68002B34D03846CAF80030FFF7B4FBE8
:1041F000DAF80070002FDCD103B0BDE8F08F7B68E7
:104200002268013BAB420CBF7D60C4F80080002AED
:10421000DCD0D7F88831D7F804B00121A940194281
:1042200008D190477B685B45BDD1DAF80030BB42CE
:10423000CCD0B8E7D7F88C31194204D14846D4F82D
:1042400080109047EEE7D4F880009047EAE73B689B
:10425000BA461F46002FACD1CEE700BF304F000852
:1042600059390008F8B5234F0C460646FFF75CFEA7
:10427000BB685D6825F00305291B01F6EF7121F489
:104280007F6121F00F01A1F58054B4F5805F07DB59
:1042900030460021FFF74CFEBB682B44984204D007
:1042A0003046FFF743FE0020F8BD30466142FFF77D
:1042B0003FFE01300DD0104BBA6819682D1B45F038
:1042C00001053046091B55601960FFF72FFE0120DC
:1042D000F8BD30460021FFF72BFEBA68831A0F2B7A
:1042E000DEDD064C0449246843F00103001B5360E3
:1042F0000860D5E774040020B41200208008002074
:1043000000294ED02DE9F0410C468046FFF70CFE07
:1043100054F8047C624927F00102A4F10805AB18A7
:104320008E6858689E4220F003005AD0FE075860FD
:104330000BD454F8087CED1B01F1080EAC687445F1
:104340003A4467D0EF68E760BC601C186468E40713
:104350000CD4544F9C68BC4202447CD0D868E060C6
:1043600042F0010384606B60AA5003E042F0010355
:104370006B60AA50B2F5007F14D2D20801EBC203E1
:1043800048689F68AF609210012404FA02F210435B
:10439000EB6048609D60FD604046BDE8F041FFF77E
:1043A000C5BD7047530A042B47D8930903F138045D
:1043B000600001EB80003A498368834243D059682A
:1043C00021F00301914202D99B689842F7D1DA6843
:1043D000EA60AB6040469560DD60BDE8F041FFF704
:1043E000A5BDFF07024407D454F8083CED1A1A444F
:1043F000A868EB68C36098602B4B1B6842F0010013
:104400009A4268608D60C7D3284B40461968FFF711
:1044100029FFC1E719184968C90709D4D9689B68F9
:10442000024442F00100D9608B606860AA50B3E793
:1044300042F001036B60AA50AEE7142B14D803F1CD
:104440005B046000B5E74A68A4100120A040024365
:104450004A601A46BCE742F001034D610D61EC6011
:10446000AC606B60AA5097E7542B04D8130B03F190
:104470006E0460009DE7B3F5AA7F04D8D30B03F167
:104480007704600095E740F25450834204D8930CBF
:1044900003F17C0460008CE7FC207E2489E700BFE8
:1044A000740400207C0400207C080020B01200204E
:1044B00038B50C460968054609B1FFF7F9FF2846EB
:1044C0002146BDE83840FFF71BBF00BF204B1B68EB
:1044D00098423CD0C36C70B505468BB10026995903
:1044E00039B10C682846FFF70BFF2146002CF8D1A4
:1044F000EB6C0436802EF2D119462846FFF700FFF8
:10450000296C11B12846FFF7FBFED5F8481151B1CF
:1045100005F5A676B14206D00C682846FFF7F0FEF6
:10452000A6422146F8D1696D11B12846FFF7E8FE91
:10453000AB6B03B970BDEB6B28469847D5F8E0121A
:104540000029F7D02846BDE87040FFF7B1BF70479B
:1045500070040020024B58221A604FF0FF30704761
:10456000E4120020024B58221A604FF0FF307047CF
:10457000E4120020044A05491368002B08BF0B46CB
:104580001844106018467047DC120020E812002022
:10459000FEE700BF0800000008000000080000005F
:1045A000080000000010002000400080060000000D
:1045B000010000000100000001000000FFFF3F00BB
:1045C000FFFF7F00FFFFBF00FFFFFF00760000003E
:1045D00050760000504B76006200000050620000F0
:1045E000504B62007700000050770000504B77007E
:1045F0004473000050447300504B447300000000AB
:104600004469000050446900504B446900000000B8
:104610006300000050630000504B63006100000025
:1046200050610000504B61006800000050680000BD
:10463000504B68007300000050730000504B730033
:104640007400000050740000504B740069000000BA
:1046500050690000504B69006A000000506A000079
:10466000504B6A006C000000506C0000504B6C0016
:104670006D000000506D0000504B6D007800000090
:1046800050780000504B780079000000507900000D
:10469000504B79006600000050660000504B6600E9
:1046A0006400000050640000504B6400650000008E
:1046B00050650000504B65004466000050446600A1
:1046C000504B446600000000446400005044640005
:1046D000504B4464000000004465000050446500F5
:1046E000504B446500000000446E000050446E00D2
:1046F000504B446E00000000B04C0008F04600082B
:104700000100000018470008B04C0008EC46000803
:104710000000000018470008D04A0008E8460008DA
:10472000B04C0008E04600080100000040470008C7
:10473000B04C0008DC4600080000000040470008BC
:10474000D04A0008D8460008B04C0008D0460008FF
:104750000100000068470008B04C0008CC46000883
:104760000000000068470008D04A0008C84600085A
:10477000B04C0008C0460008010000009047000847
:10478000B04C0008BC46000800000000904700083C
:10479000D04A0008B8460008B04C0008B4460008EB
:1047A00001000000B8470008B04C0008B0460008FF
:1047B00000000000B8470008D04A0008AC460008D6
:1047C000B04C0008A846000801000000E0470008BF
:1047D000B04C0008A446000800000000E0470008B4
:1047E000D04A0008A0460008B04C00089C460008CB
:1047F0000100000008480008B04C00089846000876
:104800000000000008480008D04A0008944600084C
:10481000B04C000890460008010000003048000835
:10482000B04C00088C46000800000000304800082A
:10483000D04A000888460008B04C000884460008AA
:104840000100000058480008B04C000880460008ED
:104850000000000058480008D04A00087C460008C4
:10486000B04C0008784600080100000080480008AD
:10487000B04C0008744600080000000080480008A2
:10488000D04A000870460008B04C00086C4600088A
:1048900001000000A8480008B04C00086846000865
:1048A00000000000A8480008D04A0008644600083C
:1048B000B04C00086046000801000000D048000825
:1048C000B04C00085C46000800000000D04800081A
:1048D000D04A000858460008B04C0008544600086A
:1048E00001000000F8480008B04C000850460008DD
:1048F00000000000F8480008D04A00084C460008B4
:10490000B04C00084846000801000000204900089B
:10491000B04C000844460008000000002049000890
:10492000D04A000840460008B04C00083C46000849
:104930000100000048490008B04C00083846000853
:104940000000000048490008D04A0008344600082A
:10495000B04C000830460008010000007049000813
:10496000B04C00082C460008000000007049000808
:10497000D04A000828460008B04C00082446000829
:104980000100000098490008B04C000820460008CB
:104990000000000098490008D04A00081C460008A2
:1049A000B04C00081846000801000000C04900088B
:1049B000B04C00081446000800000000C049000880
:1049C000D04A000810460008B04C0008084600080D
:1049D00001000000E8490008B04C00080446000847
:1049E00000000000E8490008D04A0008004600081E
:1049F000B04C0008F845000801000000104A00080B
:104A0000B04C0008F445000800000000104A0008FF
:104A1000D04A0008F0450008B04C0008EC450008FA
:104A200001000000384A0008B04C0008E8450008C2
:104A300000000000384A0008D04A0008E445000899
:104A4000B04C0008E045000801000000604A000882
:104A5000B04C0008DC45000800000000604A000877
:104A6000D04A0008D8450008B04C0008D4450008DA
:104A700001000000884A0008B04C0008D04500083A
:104A800000000000884A0008D04A0008CC45000811
:104A9000384D00089C4A00082C4B00084E31305F0E
:104AA0005F637878616269763132335F5F66756E15
:104AB00064616D656E74616C5F747970655F696E59
:104AC000666F45000000000000000000904A0008EA
:104AD000F524000809250008552F0008592F000863
:104AE000992F00085D2F000800000000004B00080F
:104AF000812600089526000879260008000000009D
:104B0000384D00081C4B0008C04B00087374643A11
:104B10003A6261645F616C6C6F6300005374396268
:104B200061645F616C6C6F6300000000D84C00082A
:104B3000344B0008537439747970655F696E666F21
:104B40000000000000000000000000002C4B0008E6
:104B5000512F0008612F0008552F0008592F000819
:104B6000992F00085D2F000800000000B84B0008D6
:104B70000000000000000000C93300080000000031
:104B800000000000104C00080000000000000000C1
:104B9000C9330008000000004E31305F5F63787851
:104BA000616269763131355F5F666F726365645F3C
:104BB000756E77696E644500D84C0008984B000804
:104BC000D84C0008484C00084E31305F5F6378785D
:104BD000616269763131395F5F666F726569676EF0
:104BE0005F657863657074696F6E45007374643ACD
:104BF0003A657863657074696F6E00007374643A27
:104C00003A6261645F657863657074696F6E000015
:104C1000D84C0008C84B000800000000C04B00083A
:104C20009D2F0008B52F0008A52F000800000000E8
:104C3000000000006C4C0008A12F0008C12F0008E4
:104C4000AD2F00080000000053743965786365706B
:104C500074696F6E00000000537431336261645FE9
:104C6000657863657074696F6E000000384D0008E8
:104C7000584C0008C04B00084E31305F5F637878B5
:104C8000616269763131395F5F706F696E74657228
:104C90005F747970655F696E666F4500384D000816
:104CA000784C0008984D0008000000009C4C00085B
:104CB000F12F000805300008ED2F0008592F0008DB
:104CC000D53600085D2F00082130000800000000E4
:104CD00000000000004D0008B1300008C530000899
:104CE000552F0008592F0008F93000086D300008D2
:104CF000E130000825310008A53000080000000060
:104D0000384D00080C4D00082C4B00084E31305F28
:104D10005F637878616269763131375F5F636C61B8
:104D200073735F747970655F696E666F450000002C
:104D300000000000604D000875310008893100084E
:104D4000552F0008592F0008F93000086D30000871
:104D500069320008E1310008A531000800000000B8
:104D6000384D00086C4D0008004D00084E31305F92
:104D70005F637878616269763132305F5F73695F53
:104D8000636C6173735F747970655F696E666F459C
:104D90000000000000000000384D0008A44D00088D
:104DA0002C4B00084E31305F5F6378786162697622
:104DB0003131375F5F70626173655F747970655F11
:104DC000696E666F4500000000000000984D000805
:104DD000A5360008B9360008552F0008592F0008DD
:104DE000D53600085D2F000891360008000000004D
:104DF000384D0008184E0008004B00080000000065
:104E000000000000F04D0008B9370008CD37000859
:104E1000B137000800000000537431366261645FEE
:104E200061727261795F6C656E6774680000000082
:104E30007374643A3A6261645F61727261795F6C43
:104E4000656E677468000000384D0008544E000815
:104E5000C04B00085374386261645F63617374000F
:104E600000000000484E0008F1370008053800082F
:104E7000E9370008000000007374643A3A62616424
:104E80005F6361737400000000000000A04E000822
:104E9000293800083D3800082138000800000000CB
:104EA000384D0008C84E0008004B00087374643A7F
:104EB0003A6261645F61727261795F6E65775F6C9F
:104EC000656E677468000000537432306261645F1D
:104ED00061727261795F6E65775F6C656E67746829
:104EE000000000000000000000000000004F00086B
:104EF00061380008753800085938000800000000C3
:104F0000384D00081C4F0008C04B00087374643A09
:104F10003A6261645F74797065696400537431301A
:104F20006261645F74797065696400004300000029
:104F3000480000201000000000000000017A52002C
:104F4000027C0E011B0C0D00580000001800000030
:104F500004D1FFFFC802000000420E108404850344
:104F6000448602870102540A42C6C748C4C5430B9F
:104F7000470A42C6C748C4C5430B640AC6C748C4EB
:104F8000C5430B690A43C4430B640A42C4C5C6C780
:104F9000430B024A0A42C4C5C6C7410B52C4C5C628
:104FA000C700000000000000F8B500BFF8BC08BC56
:104FB0009E467047F8B500BFF8BC08BC9E467047D7
:104FC00069DBFF7FB0AB0400FFFF01107204B0018A
:104FD00000B60104D20100E4010400004DDBFF7FB4
:104FE00003F7B201B0B0B0AAFF1021011708040006
:104FF000001004820103160472031E4E8C010092FD
:10500000010400000000017DF0F8FFFF1DDBFF7FC1
:10501000A908B100FF1011010A6E0480010184018A
:105020000800007F000000000000000008B10181BE
:10503000B0B0008400000000F1DAFF7FB0AF1200D2
:10504000FF10190111228A040000E404049E0801E3
:105050008606DC010000010000000000CDDAFF7FC1
:105060008408B101B0B0B000FF1019010C020608AD
:10507000010C0410051C0A000001007F00007D00E7
:10508000000000000000000008B10181B0B0008401
:105090000000000008B10181B0B0008400000000F1
:1050A00089DAFF7FB0AF0200FF101D011226043C19
:1050B0000130043401724ABC0100C4010400000143
:1050C000000000000000000008B10181B0B00084C1
:1050D0000000000008B10181B0B0008400000000B1
:1050E00008B10181B0B000840000000008B1018166
:1050F000B0B000840000000008B10181B0B00084AD
:105100000000000008B10181B0B000840000000080
:1051100034B1FF7F01000000C8BCFF7FA4FEFF7F09
:10512000DCBDFF7FB0B0AC8044BEFF7F010000005B
:1051300008BFFF7FB0A90280A0BFFF7FB0B0A880EA
:10514000F0BFFF7F01000000FCBFFF7FB0B0AA806E
:1051500034C0FF7FAE71B28004C1FF7F0100000048
:1051600000C1FF7FAB3F388058C1FF7F01000000C6
:1051700064C1FF7FB0B0AA80A0C1FF7F0100000022
:1051800058C2FF7FAB0EB280C0C2FF7FB0AF0A80B3
:105190008CC5FF7F0100000090C5FF7FAB3F0480FE
:1051A00030C8FF7F010000000CCAFF7F008404802C
:1051B00020CAFF7F010000001CCAFF7FB0AD048041
:1051C000E0CCFF7FB0A8038000CDFF7F2CFFFF7FE6
:1051D00004CDFF7F30FFFF7F10CDFF7F0100000077
:1051E00070D2FF7FF8FDFF7F08D3FF7F0100000032
:1051F00004D3FF7FB0B0A88070D3FF7F0100000010
:10520000BCD4FF7FB0AB028064D5FF7F01000000FB
:1052100034D6FF7FF8FDFF7FB8D6FF7F0100000086
:105220007CD7FF7FB0AB04801CD8FF7F00FEFF7FE0
:1052300060D8FF7FAB08B180F0D8FF7FFCFDFF7F17
:1052400010DDFF7F01000000A8DDFF7FB0B0A88067
:10525000D0DDFF7FB0A9028014DEFF7FB0AA0380FB
:1052600044DEFF7F0100000048DEFF7FB0B0A88071
:1052700070DEFF7FA908B18080DEFF7FB0B0AC8018
:10528000A4DEFF7FB0AA0180DCDEFF7F010000000A
:10529000E4DEFF7FB0B0A8800CDFFF7FB0AA018002
:1052A00040DFFF7FB0AF0080C0DFFF7FB0B0AC80D9
:1052B000E4DFFF7FB0B0A88020E0FF7FAB08B180C3
:1052C00098E0FF7FB0B0A88000E1FF7F0100000000
:1052D000D8E1FF7F88FDFF7FF8E1FF7F010000003C
:1052E00004E2FF7FA4FDFF7F04E2FF7FA8FDFF7FB4
:1052F00010E2FF7F01000000C4E2FF7FA4FDFF7FFA
:1053000090E3FF7F010000009CE3FF7FB0B0A88026
:10531000C4E3FF7FB0B0AC8018E4FF7FACFDFF7F3B
:1053200030E4FF7FB0FDFF7F48E4FF7FB4FDFF7FE7
:1053300060E4FF7FB8FDFF7F78E4FF7F010000009D
:085340007D4100080D02000888
:04534800E501000873
:10534C0000000000007A030A0000000000000000CA
:10535C00010203040607080900000000010203040F
:10536C000102030406070809000C0240000C02406D
:10537C00000C0240000C024000000240D134000836
:10538C0091380008000000000000000034030020E9
:10539C009C0300200404002000000000000000001A
:1053AC0000000000000000000000000000000000F1
:1053BC000000000000000000000000002C4F00085E
:1053CC0000000000000000000000000000000000D1
:1053DC0000000000000000000000000000000000C1
:1053EC0000000000000000000000000000000000B1
:1053FC0000000000000000000000000000000000A1
:10540C000000000000000000000000000000000090
:10541C000000000000000000000000000000000080
:10542C000000000000000000000000000000000070
:10543C0001000000000000000E33CDAB34126DE60D
:10544C00ECDE05000B000000000000000000000076
:10545C000000000000000000000000000000000040
:10546C000000000000000000000000000000000030
:10547C000000000000000000000000000000000020
:10548C000000000000000000000000000000000010
:1057BC0048000020000000000000000074040020DD
:1057CC00740400207C0400207C040020840400204D
:1057DC00840400208C0400208C04002094040020FD
:1057EC00940400209C0400209C040020A4040020AD
:1057FC00A4040020AC040020AC040020B40400205D
:10580C00B4040020BC040020BC040020C40400200C
:10581C00C4040020CC040020CC040020D4040020BC
:10582C00D4040020DC040020DC040020E40400206C
:10583C00E4040020EC040020EC040020F40400201C
:10584C00F4040020FC040020FC04002004050020CB
:10585C00040500200C0500200C0500201405002078
:10586C00140500201C0500201C0500202405002028
:10587C00240500202C0500202C05002034050020D8
:10588C00340500203C0500203C0500204405002088
:10589C00440500204C0500204C0500205405002038
:1058AC00540500205C0500205C05002064050020E8
:1058BC00640500206C0500206C0500207405002098
:1058CC00740500207C0500207C0500208405002048
:1058DC00840500208C0500208C05002094050020F8
:1058EC00940500209C0500209C050020A4050020A8
:1058FC00A4050020AC050020AC050020B405002058
:10590C00B4050020BC050020BC050020C405002007
:10591C00C4050020CC050020CC050020D4050020B7
:10592C00D4050020DC050020DC050020E405002067
:10593C00E4050020EC050020EC050020F405002017
:10594C00F4050020FC050020FC05002004060020C6
:10595C00040600200C0600200C0600201406002073
:10596C00140600201C0600201C0600202406002023
:10597C00240600202C0600202C06002034060020D3
:10598C00340600203C0600203C0600204406002083
:10599C00440600204C0600204C0600205406002033
:1059AC00540600205C0600205C06002064060020E3
:1059BC00640600206C0600206C0600207406002093
:1059CC00740600207C0600207C0600208406002043
:1059DC00840600208C0600208C06002094060020F3
:1059EC00940600209C0600209C060020A4060020A3
:1059FC00A4060020AC060020AC060020B406002053
:105A0C00B4060020BC060020BC060020C406002002
:105A1C00C4060020CC060020CC060020D4060020B2
:105A2C00D4060020DC060020DC060020E406002062
:105A3C00E4060020EC060020EC060020F406002012
:105A4C00F4060020FC060020FC06002004070020C1
:105A5C00040700200C0700200C070020140700206E
:105A6C00140700201C0700201C070020240700201E
:105A7C00240700202C0700202C07002034070020CE
:105A8C00340700203C0700203C070020440700207E
:105A9C00440700204C0700204C070020540700202E
:105AAC00540700205C0700205C07002064070020DE
:105ABC00640700206C0700206C070020740700208E
:105ACC00740700207C0700207C070020840700203E
:105ADC00840700208C0700208C07002094070020EE
:105AEC00940700209C0700209C070020A40700209E
:105AFC00A4070020AC070020AC070020B40700204E
:105B0C00B4070020BC070020BC070020C4070020FD
:105B1C00C4070020CC070020CC070020D4070020AD
:105B2C00D4070020DC070020DC070020E40700205D
:105B3C00E4070020EC070020EC070020F40700200D
:105B4C00F4070020FC070020FC07002004080020BC
:105B5C00040800200C0800200C0800201408002069
:105B6C00140800201C0800201C0800202408002019
:105B7C00240800202C0800202C08002034080020C9
:105B8C00340800203C0800203C0800204408002079
:105B9C00440800204C0800204C0800205408002029
:105BAC00540800205C0800205C08002064080020D9
:105BBC00640800206C0800206C0800200000020023
:045BCC00FFFFFFFFD9
:045BD00000000000D1
:0400000508002321AB
:00000001FF
